{
  "_format": "hh-sol-artifact-1",
  "contractName": "Minter",
  "sourceName": "contracts/Minter.sol",
  "abi": [
    {
      "inputs": [],
      "stateMutability": "nonpayable",
      "type": "constructor"
    },
    {
      "anonymous": false,
      "inputs": [
        {
          "indexed": true,
          "internalType": "address",
          "name": "owner",
          "type": "address"
        },
        {
          "indexed": true,
          "internalType": "address",
          "name": "approved",
          "type": "address"
        },
        {
          "indexed": true,
          "internalType": "uint256",
          "name": "tokenId",
          "type": "uint256"
        }
      ],
      "name": "Approval",
      "type": "event"
    },
    {
      "anonymous": false,
      "inputs": [
        {
          "indexed": true,
          "internalType": "address",
          "name": "owner",
          "type": "address"
        },
        {
          "indexed": true,
          "internalType": "address",
          "name": "operator",
          "type": "address"
        },
        {
          "indexed": false,
          "internalType": "bool",
          "name": "approved",
          "type": "bool"
        }
      ],
      "name": "ApprovalForAll",
      "type": "event"
    },
    {
      "anonymous": false,
      "inputs": [
        {
          "indexed": true,
          "internalType": "address",
          "name": "previousOwner",
          "type": "address"
        },
        {
          "indexed": true,
          "internalType": "address",
          "name": "newOwner",
          "type": "address"
        }
      ],
      "name": "OwnershipTransferred",
      "type": "event"
    },
    {
      "anonymous": false,
      "inputs": [
        {
          "indexed": true,
          "internalType": "address",
          "name": "from",
          "type": "address"
        },
        {
          "indexed": true,
          "internalType": "address",
          "name": "to",
          "type": "address"
        },
        {
          "indexed": true,
          "internalType": "uint256",
          "name": "tokenId",
          "type": "uint256"
        }
      ],
      "name": "Transfer",
      "type": "event"
    },
    {
      "inputs": [
        {
          "internalType": "address",
          "name": "to",
          "type": "address"
        },
        {
          "internalType": "uint256",
          "name": "tokenId",
          "type": "uint256"
        }
      ],
      "name": "approve",
      "outputs": [],
      "stateMutability": "nonpayable",
      "type": "function"
    },
    {
      "inputs": [
        {
          "internalType": "address",
          "name": "owner",
          "type": "address"
        }
      ],
      "name": "balanceOf",
      "outputs": [
        {
          "internalType": "uint256",
          "name": "",
          "type": "uint256"
        }
      ],
      "stateMutability": "view",
      "type": "function"
    },
    {
      "inputs": [
        {
          "internalType": "uint256",
          "name": "tokenId",
          "type": "uint256"
        }
      ],
      "name": "burn",
      "outputs": [],
      "stateMutability": "nonpayable",
      "type": "function"
    },
    {
      "inputs": [],
      "name": "count",
      "outputs": [
        {
          "internalType": "uint256",
          "name": "",
          "type": "uint256"
        }
      ],
      "stateMutability": "view",
      "type": "function"
    },
    {
      "inputs": [
        {
          "internalType": "string",
          "name": "",
          "type": "string"
        }
      ],
      "name": "existingURIs",
      "outputs": [
        {
          "internalType": "uint8",
          "name": "",
          "type": "uint8"
        }
      ],
      "stateMutability": "view",
      "type": "function"
    },
    {
      "inputs": [
        {
          "internalType": "uint256",
          "name": "tokenId",
          "type": "uint256"
        }
      ],
      "name": "getApproved",
      "outputs": [
        {
          "internalType": "address",
          "name": "",
          "type": "address"
        }
      ],
      "stateMutability": "view",
      "type": "function"
    },
    {
      "inputs": [
        {
          "internalType": "address",
          "name": "owner",
          "type": "address"
        },
        {
          "internalType": "address",
          "name": "operator",
          "type": "address"
        }
      ],
      "name": "isApprovedForAll",
      "outputs": [
        {
          "internalType": "bool",
          "name": "",
          "type": "bool"
        }
      ],
      "stateMutability": "view",
      "type": "function"
    },
    {
      "inputs": [
        {
          "internalType": "string",
          "name": "uri",
          "type": "string"
        }
      ],
      "name": "isContentOwned",
      "outputs": [
        {
          "internalType": "bool",
          "name": "",
          "type": "bool"
        }
      ],
      "stateMutability": "view",
      "type": "function"
    },
    {
      "inputs": [],
      "name": "mintValue",
      "outputs": [
        {
          "internalType": "uint256",
          "name": "",
          "type": "uint256"
        }
      ],
      "stateMutability": "view",
      "type": "function"
    },
    {
      "inputs": [],
      "name": "name",
      "outputs": [
        {
          "internalType": "string",
          "name": "",
          "type": "string"
        }
      ],
      "stateMutability": "view",
      "type": "function"
    },
    {
      "inputs": [],
      "name": "owner",
      "outputs": [
        {
          "internalType": "address",
          "name": "",
          "type": "address"
        }
      ],
      "stateMutability": "view",
      "type": "function"
    },
    {
      "inputs": [
        {
          "internalType": "uint256",
          "name": "tokenId",
          "type": "uint256"
        }
      ],
      "name": "ownerOf",
      "outputs": [
        {
          "internalType": "address",
          "name": "",
          "type": "address"
        }
      ],
      "stateMutability": "view",
      "type": "function"
    },
    {
      "inputs": [
        {
          "internalType": "address",
          "name": "to",
          "type": "address"
        },
        {
          "internalType": "string",
          "name": "uri",
          "type": "string"
        }
      ],
      "name": "payToMint",
      "outputs": [
        {
          "internalType": "uint256",
          "name": "",
          "type": "uint256"
        }
      ],
      "stateMutability": "payable",
      "type": "function"
    },
    {
      "inputs": [],
      "name": "renounceOwnership",
      "outputs": [],
      "stateMutability": "nonpayable",
      "type": "function"
    },
    {
      "inputs": [
        {
          "internalType": "address",
          "name": "to",
          "type": "address"
        },
        {
          "internalType": "string",
          "name": "uri",
          "type": "string"
        }
      ],
      "name": "safeMint",
      "outputs": [],
      "stateMutability": "nonpayable",
      "type": "function"
    },
    {
      "inputs": [
        {
          "internalType": "address",
          "name": "from",
          "type": "address"
        },
        {
          "internalType": "address",
          "name": "to",
          "type": "address"
        },
        {
          "internalType": "uint256",
          "name": "tokenId",
          "type": "uint256"
        }
      ],
      "name": "safeTransferFrom",
      "outputs": [],
      "stateMutability": "nonpayable",
      "type": "function"
    },
    {
      "inputs": [
        {
          "internalType": "address",
          "name": "from",
          "type": "address"
        },
        {
          "internalType": "address",
          "name": "to",
          "type": "address"
        },
        {
          "internalType": "uint256",
          "name": "tokenId",
          "type": "uint256"
        },
        {
          "internalType": "bytes",
          "name": "_data",
          "type": "bytes"
        }
      ],
      "name": "safeTransferFrom",
      "outputs": [],
      "stateMutability": "nonpayable",
      "type": "function"
    },
    {
      "inputs": [
        {
          "internalType": "address",
          "name": "operator",
          "type": "address"
        },
        {
          "internalType": "bool",
          "name": "approved",
          "type": "bool"
        }
      ],
      "name": "setApprovalForAll",
      "outputs": [],
      "stateMutability": "nonpayable",
      "type": "function"
    },
    {
      "inputs": [
        {
          "internalType": "uint256",
          "name": "_mintValue",
          "type": "uint256"
        }
      ],
      "name": "setMintValue",
      "outputs": [],
      "stateMutability": "nonpayable",
      "type": "function"
    },
    {
      "inputs": [
        {
          "internalType": "bytes4",
          "name": "interfaceId",
          "type": "bytes4"
        }
      ],
      "name": "supportsInterface",
      "outputs": [
        {
          "internalType": "bool",
          "name": "",
          "type": "bool"
        }
      ],
      "stateMutability": "view",
      "type": "function"
    },
    {
      "inputs": [],
      "name": "symbol",
      "outputs": [
        {
          "internalType": "string",
          "name": "",
          "type": "string"
        }
      ],
      "stateMutability": "view",
      "type": "function"
    },
    {
      "inputs": [
        {
          "internalType": "uint256",
          "name": "tokenId",
          "type": "uint256"
        }
      ],
      "name": "tokenURI",
      "outputs": [
        {
          "internalType": "string",
          "name": "",
          "type": "string"
        }
      ],
      "stateMutability": "view",
      "type": "function"
    },
    {
      "inputs": [
        {
          "internalType": "address",
          "name": "from",
          "type": "address"
        },
        {
          "internalType": "address",
          "name": "to",
          "type": "address"
        },
        {
          "internalType": "uint256",
          "name": "tokenId",
          "type": "uint256"
        }
      ],
      "name": "transferFrom",
      "outputs": [],
      "stateMutability": "nonpayable",
      "type": "function"
    },
    {
      "inputs": [
        {
          "internalType": "address",
          "name": "newOwner",
          "type": "address"
        }
      ],
      "name": "transferOwnership",
      "outputs": [],
      "stateMutability": "nonpayable",
      "type": "function"
    },
    {
      "inputs": [],
      "name": "withdraw",
      "outputs": [],
      "stateMutability": "nonpayable",
      "type": "function"
    }
  ],
  "bytecode": "0x60806040523480156200001157600080fd5b506040518060400160405280600681526020017f4d696e74657200000000000000000000000000000000000000000000000000008152506040518060400160405280600381526020017f4d494e0000000000000000000000000000000000000000000000000000000000815250816000908051906020019062000096929190620001b4565b508060019080519060200190620000af929190620001b4565b505050620000d2620000c6620000e660201b60201c565b620000ee60201b60201c565b66b1a2bc2ec50000600981905550620002c9565b600033905090565b6000600760009054906101000a900473ffffffffffffffffffffffffffffffffffffffff16905081600760006101000a81548173ffffffffffffffffffffffffffffffffffffffff021916908373ffffffffffffffffffffffffffffffffffffffff1602179055508173ffffffffffffffffffffffffffffffffffffffff168173ffffffffffffffffffffffffffffffffffffffff167f8be0079c531659141344cd1fd0a4f28419497f9722a3daafe3b4186f6b6457e060405160405180910390a35050565b828054620001c29062000264565b90600052602060002090601f016020900481019282620001e6576000855562000232565b82601f106200020157805160ff191683800117855562000232565b8280016001018555821562000232579182015b828111156200023157825182559160200191906001019062000214565b5b50905062000241919062000245565b5090565b5b808211156200026057600081600090555060010162000246565b5090565b600060028204905060018216806200027d57607f821691505b602082108114156200029457620002936200029a565b5b50919050565b7f4e487b7100000000000000000000000000000000000000000000000000000000600052602260045260246000fd5b613c4380620002d96000396000f3fe6080604052600436106101665760003560e01c8063715018a6116100d1578063b88d4fde1161008a578063d204c45e11610064578063d204c45e1461052d578063e985e9c514610556578063f2fde38b14610593578063f37971df146105bc57610166565b8063b88d4fde1461049e578063c01031c0146104c7578063c87b56dd146104f057610166565b8063715018a6146103a057806389c77dfe146103b75780638da5cb5b146103e257806395d89b411461040d5780639f1cabc614610438578063a22cb4651461047557610166565b80633ccfd60b116101235780633ccfd60b1461028d57806342842e0e146102a457806342966c68146102cd578063615fd9e2146102f65780636352211e1461032657806370a082311461036357610166565b806301ffc9a71461016b57806306661abd146101a857806306fdde03146101d3578063081812fc146101fe578063095ea7b31461023b57806323b872dd14610264575b600080fd5b34801561017757600080fd5b50610192600480360381019061018d919061295d565b6105f9565b60405161019f9190612e79565b60405180910390f35b3480156101b457600080fd5b506101bd6106db565b6040516101ca91906131bd565b60405180910390f35b3480156101df57600080fd5b506101e86106ec565b6040516101f59190612e94565b60405180910390f35b34801561020a57600080fd5b50610225600480360381019061022091906129f0565b61077e565b6040516102329190612e12565b60405180910390f35b34801561024757600080fd5b50610262600480360381019061025d9190612921565b610803565b005b34801561027057600080fd5b5061028b600480360381019061028691906127c7565b61091b565b005b34801561029957600080fd5b506102a261097b565b005b3480156102b057600080fd5b506102cb60048036038101906102c691906127c7565b610a40565b005b3480156102d957600080fd5b506102f460048036038101906102ef91906129f0565b610a60565b005b610310600480360381019061030b91906128cd565b610abc565b60405161031d91906131bd565b60405180910390f35b34801561033257600080fd5b5061034d600480360381019061034891906129f0565b610b15565b60405161035a9190612e12565b60405180910390f35b34801561036f57600080fd5b5061038a60048036038101906103859190612762565b610bc7565b60405161039791906131bd565b60405180910390f35b3480156103ac57600080fd5b506103b5610c7f565b005b3480156103c357600080fd5b506103cc610d07565b6040516103d991906131bd565b60405180910390f35b3480156103ee57600080fd5b506103f7610d0d565b6040516104049190612e12565b60405180910390f35b34801561041957600080fd5b50610422610d37565b60405161042f9190612e94565b60405180910390f35b34801561044457600080fd5b5061045f600480360381019061045a91906129af565b610dc9565b60405161046c9190612e79565b60405180910390f35b34801561048157600080fd5b5061049c60048036038101906104979190612891565b610e04565b005b3480156104aa57600080fd5b506104c560048036038101906104c09190612816565b610e1a565b005b3480156104d357600080fd5b506104ee60048036038101906104e991906129f0565b610e7c565b005b3480156104fc57600080fd5b50610517600480360381019061051291906129f0565b610f02565b6040516105249190612e94565b60405180910390f35b34801561053957600080fd5b50610554600480360381019061054f91906128cd565b610f14565b005b34801561056257600080fd5b5061057d6004803603810190610578919061278b565b610f9f565b60405161058a9190612e79565b60405180910390f35b34801561059f57600080fd5b506105ba60048036038101906105b59190612762565b611033565b005b3480156105c857600080fd5b506105e360048036038101906105de91906129af565b61112b565b6040516105f091906131d8565b60405180910390f35b60007f80ac58cd000000000000000000000000000000000000000000000000000000007bffffffffffffffffffffffffffffffffffffffffffffffffffffffff1916827bffffffffffffffffffffffffffffffffffffffffffffffffffffffff191614806106c457507f5b5e139f000000000000000000000000000000000000000000000000000000007bffffffffffffffffffffffffffffffffffffffffffffffffffffffff1916827bffffffffffffffffffffffffffffffffffffffffffffffffffffffff1916145b806106d457506106d382611161565b5b9050919050565b60006106e760086111cb565b905090565b6060600080546106fb9061343b565b80601f01602080910402602001604051908101604052809291908181526020018280546107279061343b565b80156107745780601f1061074957610100808354040283529160200191610774565b820191906000526020600020905b81548152906001019060200180831161075757829003601f168201915b5050505050905090565b6000610789826111d9565b6107c8576040517f08c379a00000000000000000000000000000000000000000000000000000000081526004016107bf9061309d565b60405180910390fd5b6004600083815260200190815260200160002060009054906101000a900473ffffffffffffffffffffffffffffffffffffffff169050919050565b600061080e82610b15565b90508073ffffffffffffffffffffffffffffffffffffffff168373ffffffffffffffffffffffffffffffffffffffff16141561087f576040517f08c379a00000000000000000000000000000000000000000000000000000000081526004016108769061311d565b60405180910390fd5b8073ffffffffffffffffffffffffffffffffffffffff1661089e611245565b73ffffffffffffffffffffffffffffffffffffffff1614806108cd57506108cc816108c7611245565b610f9f565b5b61090c576040517f08c379a000000000000000000000000000000000000000000000000000000000815260040161090390612fdd565b60405180910390fd5b610916838361124d565b505050565b61092c610926611245565b82611306565b61096b576040517f08c379a00000000000000000000000000000000000000000000000000000000081526004016109629061313d565b60405180910390fd5b6109768383836113e4565b505050565b610983611245565b73ffffffffffffffffffffffffffffffffffffffff166109a1610d0d565b73ffffffffffffffffffffffffffffffffffffffff16146109f7576040517f08c379a00000000000000000000000000000000000000000000000000000000081526004016109ee906130bd565b60405180910390fd5b3073ffffffffffffffffffffffffffffffffffffffff166108fc479081150290604051600060405180830381858888f19350505050158015610a3d573d6000803e3d6000fd5b50565b610a5b83838360405180602001604052806000815250610e1a565b505050565b610a71610a6b611245565b82611306565b610ab0576040517f08c379a0000000000000000000000000000000000000000000000000000000008152600401610aa79061317d565b60405180910390fd5b610ab981611640565b50565b6000600954341015610b03576040517f08c379a0000000000000000000000000000000000000000000000000000000008152600401610afa9061319d565b60405180910390fd5b610b0d838361164c565b905092915050565b6000806002600084815260200190815260200160002060009054906101000a900473ffffffffffffffffffffffffffffffffffffffff169050600073ffffffffffffffffffffffffffffffffffffffff168173ffffffffffffffffffffffffffffffffffffffff161415610bbe576040517f08c379a0000000000000000000000000000000000000000000000000000000008152600401610bb59061301d565b60405180910390fd5b80915050919050565b60008073ffffffffffffffffffffffffffffffffffffffff168273ffffffffffffffffffffffffffffffffffffffff161415610c38576040517f08c379a0000000000000000000000000000000000000000000000000000000008152600401610c2f90612ffd565b60405180910390fd5b600360008373ffffffffffffffffffffffffffffffffffffffff1673ffffffffffffffffffffffffffffffffffffffff168152602001908152602001600020549050919050565b610c87611245565b73ffffffffffffffffffffffffffffffffffffffff16610ca5610d0d565b73ffffffffffffffffffffffffffffffffffffffff1614610cfb576040517f08c379a0000000000000000000000000000000000000000000000000000000008152600401610cf2906130bd565b60405180910390fd5b610d0560006117ac565b565b60095481565b6000600760009054906101000a900473ffffffffffffffffffffffffffffffffffffffff16905090565b606060018054610d469061343b565b80601f0160208091040260200160405190810160405280929190818152602001828054610d729061343b565b8015610dbf5780601f10610d9457610100808354040283529160200191610dbf565b820191906000526020600020905b815481529060010190602001808311610da257829003601f168201915b5050505050905090565b60006001600a83604051610ddd9190612dd7565b908152602001604051809103902060009054906101000a900460ff1660ff16149050919050565b610e16610e0f611245565b8383611872565b5050565b610e2b610e25611245565b83611306565b610e6a576040517f08c379a0000000000000000000000000000000000000000000000000000000008152600401610e619061313d565b60405180910390fd5b610e76848484846119df565b50505050565b610e84611245565b73ffffffffffffffffffffffffffffffffffffffff16610ea2610d0d565b73ffffffffffffffffffffffffffffffffffffffff1614610ef8576040517f08c379a0000000000000000000000000000000000000000000000000000000008152600401610eef906130bd565b60405180910390fd5b8060098190555050565b6060610f0d82611a3b565b9050919050565b610f1c611245565b73ffffffffffffffffffffffffffffffffffffffff16610f3a610d0d565b73ffffffffffffffffffffffffffffffffffffffff1614610f90576040517f08c379a0000000000000000000000000000000000000000000000000000000008152600401610f87906130bd565b60405180910390fd5b610f9a828261164c565b505050565b6000600560008473ffffffffffffffffffffffffffffffffffffffff1673ffffffffffffffffffffffffffffffffffffffff16815260200190815260200160002060008373ffffffffffffffffffffffffffffffffffffffff1673ffffffffffffffffffffffffffffffffffffffff16815260200190815260200160002060009054906101000a900460ff16905092915050565b61103b611245565b73ffffffffffffffffffffffffffffffffffffffff16611059610d0d565b73ffffffffffffffffffffffffffffffffffffffff16146110af576040517f08c379a00000000000000000000000000000000000000000000000000000000081526004016110a6906130bd565b60405180910390fd5b600073ffffffffffffffffffffffffffffffffffffffff168173ffffffffffffffffffffffffffffffffffffffff16141561111f576040517f08c379a000000000000000000000000000000000000000000000000000000000815260040161111690612f3d565b60405180910390fd5b611128816117ac565b50565b600a818051602081018201805184825260208301602085012081835280955050505050506000915054906101000a900460ff1681565b60007f01ffc9a7000000000000000000000000000000000000000000000000000000007bffffffffffffffffffffffffffffffffffffffffffffffffffffffff1916827bffffffffffffffffffffffffffffffffffffffffffffffffffffffff1916149050919050565b600081600001549050919050565b60008073ffffffffffffffffffffffffffffffffffffffff166002600084815260200190815260200160002060009054906101000a900473ffffffffffffffffffffffffffffffffffffffff1673ffffffffffffffffffffffffffffffffffffffff1614159050919050565b600033905090565b816004600083815260200190815260200160002060006101000a81548173ffffffffffffffffffffffffffffffffffffffff021916908373ffffffffffffffffffffffffffffffffffffffff160217905550808273ffffffffffffffffffffffffffffffffffffffff166112c083610b15565b73ffffffffffffffffffffffffffffffffffffffff167f8c5be1e5ebec7d5bd14f71427d1e84f3dd0314c0f7b2291e5b200ac8c7c3b92560405160405180910390a45050565b6000611311826111d9565b611350576040517f08c379a000000000000000000000000000000000000000000000000000000000815260040161134790612fbd565b60405180910390fd5b600061135b83610b15565b90508073ffffffffffffffffffffffffffffffffffffffff168473ffffffffffffffffffffffffffffffffffffffff1614806113ca57508373ffffffffffffffffffffffffffffffffffffffff166113b28461077e565b73ffffffffffffffffffffffffffffffffffffffff16145b806113db57506113da8185610f9f565b5b91505092915050565b8273ffffffffffffffffffffffffffffffffffffffff1661140482610b15565b73ffffffffffffffffffffffffffffffffffffffff161461145a576040517f08c379a0000000000000000000000000000000000000000000000000000000008152600401611451906130dd565b60405180910390fd5b600073ffffffffffffffffffffffffffffffffffffffff168273ffffffffffffffffffffffffffffffffffffffff1614156114ca576040517f08c379a00000000000000000000000000000000000000000000000000000000081526004016114c190612f7d565b60405180910390fd5b6114d5838383611b8d565b6114e060008261124d565b6001600360008573ffffffffffffffffffffffffffffffffffffffff1673ffffffffffffffffffffffffffffffffffffffff16815260200190815260200160002060008282546115309190613344565b925050819055506001600360008473ffffffffffffffffffffffffffffffffffffffff1673ffffffffffffffffffffffffffffffffffffffff168152602001908152602001600020600082825461158791906132bd565b92505081905550816002600083815260200190815260200160002060006101000a81548173ffffffffffffffffffffffffffffffffffffffff021916908373ffffffffffffffffffffffffffffffffffffffff160217905550808273ffffffffffffffffffffffffffffffffffffffff168473ffffffffffffffffffffffffffffffffffffffff167fddf252ad1be2c89b69c2b068fc378daa952ba7f163c4a11628f55a4df523b3ef60405160405180910390a4505050565b61164981611b92565b50565b60006001600a836040516116609190612dd7565b908152602001604051809103902060009054906101000a900460ff1660ff1614156116c0576040517f08c379a00000000000000000000000000000000000000000000000000000000081526004016116b79061315d565b60405180910390fd5b60006116cc60086111cb565b90506116d86008611be5565b6001600a846040516116ea9190612dd7565b908152602001604051809103902060006101000a81548160ff021916908360ff16021790555061171a8482611bfb565b6117248184611c19565b6117636040518060400160405280600781526020017f746f6b656e49640000000000000000000000000000000000000000000000000081525082611c8d565b6117a26040518060400160405280600381526020017f757269000000000000000000000000000000000000000000000000000000000081525084611d29565b8091505092915050565b6000600760009054906101000a900473ffffffffffffffffffffffffffffffffffffffff16905081600760006101000a81548173ffffffffffffffffffffffffffffffffffffffff021916908373ffffffffffffffffffffffffffffffffffffffff1602179055508173ffffffffffffffffffffffffffffffffffffffff168173ffffffffffffffffffffffffffffffffffffffff167f8be0079c531659141344cd1fd0a4f28419497f9722a3daafe3b4186f6b6457e060405160405180910390a35050565b8173ffffffffffffffffffffffffffffffffffffffff168373ffffffffffffffffffffffffffffffffffffffff1614156118e1576040517f08c379a00000000000000000000000000000000000000000000000000000000081526004016118d890612f9d565b60405180910390fd5b80600560008573ffffffffffffffffffffffffffffffffffffffff1673ffffffffffffffffffffffffffffffffffffffff16815260200190815260200160002060008473ffffffffffffffffffffffffffffffffffffffff1673ffffffffffffffffffffffffffffffffffffffff16815260200190815260200160002060006101000a81548160ff0219169083151502179055508173ffffffffffffffffffffffffffffffffffffffff168373ffffffffffffffffffffffffffffffffffffffff167f17307eab39ab6107e8899845ad3d59bd9653f200f220920489ca2b5937696c31836040516119d29190612e79565b60405180910390a3505050565b6119ea8484846113e4565b6119f684848484611dc5565b611a35576040517f08c379a0000000000000000000000000000000000000000000000000000000008152600401611a2c90612f1d565b60405180910390fd5b50505050565b6060611a46826111d9565b611a85576040517f08c379a0000000000000000000000000000000000000000000000000000000008152600401611a7c9061307d565b60405180910390fd5b6000600660008481526020019081526020016000208054611aa59061343b565b80601f0160208091040260200160405190810160405280929190818152602001828054611ad19061343b565b8015611b1e5780601f10611af357610100808354040283529160200191611b1e565b820191906000526020600020905b815481529060010190602001808311611b0157829003601f168201915b505050505090506000611b2f611f5c565b9050600081511415611b45578192505050611b88565b600082511115611b7a578082604051602001611b62929190612dee565b60405160208183030381529060405292505050611b88565b611b8384611f7c565b925050505b919050565b505050565b611b9b81612023565b6000600660008381526020019081526020016000208054611bbb9061343b565b905014611be257600660008281526020019081526020016000206000611be19190612546565b5b50565b6001816000016000828254019250508190555050565b611c15828260405180602001604052806000815250612134565b5050565b611c22826111d9565b611c61576040517f08c379a0000000000000000000000000000000000000000000000000000000008152600401611c589061303d565b60405180910390fd5b80600660008481526020019081526020016000209080519060200190611c88929190612586565b505050565b611d258282604051602401611ca3929190612eed565b6040516020818303038152906040527f9710a9d0000000000000000000000000000000000000000000000000000000007bffffffffffffffffffffffffffffffffffffffffffffffffffffffff19166020820180517bffffffffffffffffffffffffffffffffffffffffffffffffffffffff838183161783525050505061218f565b5050565b611dc18282604051602401611d3f929190612eb6565b6040516020818303038152906040527f4b5c4277000000000000000000000000000000000000000000000000000000007bffffffffffffffffffffffffffffffffffffffffffffffffffffffff19166020820180517bffffffffffffffffffffffffffffffffffffffffffffffffffffffff838183161783525050505061218f565b5050565b6000611de68473ffffffffffffffffffffffffffffffffffffffff166121b8565b15611f4f578373ffffffffffffffffffffffffffffffffffffffff1663150b7a02611e0f611245565b8786866040518563ffffffff1660e01b8152600401611e319493929190612e2d565b602060405180830381600087803b158015611e4b57600080fd5b505af1925050508015611e7c57506040513d601f19601f82011682018060405250810190611e799190612986565b60015b611eff573d8060008114611eac576040519150601f19603f3d011682016040523d82523d6000602084013e611eb1565b606091505b50600081511415611ef7576040517f08c379a0000000000000000000000000000000000000000000000000000000008152600401611eee90612f1d565b60405180910390fd5b805181602001fd5b63150b7a0260e01b7bffffffffffffffffffffffffffffffffffffffffffffffffffffffff1916817bffffffffffffffffffffffffffffffffffffffffffffffffffffffff191614915050611f54565b600190505b949350505050565b6060604051806060016040528060358152602001613bd960359139905090565b6060611f87826111d9565b611fc6576040517f08c379a0000000000000000000000000000000000000000000000000000000008152600401611fbd906130fd565b60405180910390fd5b6000611fd0611f5c565b90506000815111611ff0576040518060200160405280600081525061201b565b80611ffa846121cb565b60405160200161200b929190612dee565b6040516020818303038152906040525b915050919050565b600061202e82610b15565b905061203c81600084611b8d565b61204760008361124d565b6001600360008373ffffffffffffffffffffffffffffffffffffffff1673ffffffffffffffffffffffffffffffffffffffff16815260200190815260200160002060008282546120979190613344565b925050819055506002600083815260200190815260200160002060006101000a81549073ffffffffffffffffffffffffffffffffffffffff021916905581600073ffffffffffffffffffffffffffffffffffffffff168273ffffffffffffffffffffffffffffffffffffffff167fddf252ad1be2c89b69c2b068fc378daa952ba7f163c4a11628f55a4df523b3ef60405160405180910390a45050565b61213e8383612378565b61214b6000848484611dc5565b61218a576040517f08c379a000000000000000000000000000000000000000000000000000000000815260040161218190612f1d565b60405180910390fd5b505050565b60008151905060006a636f6e736f6c652e6c6f679050602083016000808483855afa5050505050565b600080823b905060008111915050919050565b60606000821415612213576040518060400160405280600181526020017f30000000000000000000000000000000000000000000000000000000000000008152509050612373565b600082905060005b6000821461224557808061222e9061349e565b915050600a8261223e9190613313565b915061221b565b60008167ffffffffffffffff811115612287577f4e487b7100000000000000000000000000000000000000000000000000000000600052604160045260246000fd5b6040519080825280601f01601f1916602001820160405280156122b95781602001600182028036833780820191505090505b5090505b6000851461236c576001826122d29190613344565b9150600a856122e191906134e7565b60306122ed91906132bd565b60f81b818381518110612329577f4e487b7100000000000000000000000000000000000000000000000000000000600052603260045260246000fd5b60200101907effffffffffffffffffffffffffffffffffffffffffffffffffffffffffffff1916908160001a905350600a856123659190613313565b94506122bd565b8093505050505b919050565b600073ffffffffffffffffffffffffffffffffffffffff168273ffffffffffffffffffffffffffffffffffffffff1614156123e8576040517f08c379a00000000000000000000000000000000000000000000000000000000081526004016123df9061305d565b60405180910390fd5b6123f1816111d9565b15612431576040517f08c379a000000000000000000000000000000000000000000000000000000000815260040161242890612f5d565b60405180910390fd5b61243d60008383611b8d565b6001600360008473ffffffffffffffffffffffffffffffffffffffff1673ffffffffffffffffffffffffffffffffffffffff168152602001908152602001600020600082825461248d91906132bd565b92505081905550816002600083815260200190815260200160002060006101000a81548173ffffffffffffffffffffffffffffffffffffffff021916908373ffffffffffffffffffffffffffffffffffffffff160217905550808273ffffffffffffffffffffffffffffffffffffffff16600073ffffffffffffffffffffffffffffffffffffffff167fddf252ad1be2c89b69c2b068fc378daa952ba7f163c4a11628f55a4df523b3ef60405160405180910390a45050565b5080546125529061343b565b6000825580601f106125645750612583565b601f016020900490600052602060002090810190612582919061260c565b5b50565b8280546125929061343b565b90600052602060002090601f0160209004810192826125b457600085556125fb565b82601f106125cd57805160ff19168380011785556125fb565b828001600101855582156125fb579182015b828111156125fa5782518255916020019190600101906125df565b5b509050612608919061260c565b5090565b5b8082111561262557600081600090555060010161260d565b5090565b600061263c61263784613218565b6131f3565b90508281526020810184848401111561265457600080fd5b61265f8482856133f9565b509392505050565b600061267a61267584613249565b6131f3565b90508281526020810184848401111561269257600080fd5b61269d8482856133f9565b509392505050565b6000813590506126b481613b7c565b92915050565b6000813590506126c981613b93565b92915050565b6000813590506126de81613baa565b92915050565b6000815190506126f381613baa565b92915050565b600082601f83011261270a57600080fd5b813561271a848260208601612629565b91505092915050565b600082601f83011261273457600080fd5b8135612744848260208601612667565b91505092915050565b60008135905061275c81613bc1565b92915050565b60006020828403121561277457600080fd5b6000612782848285016126a5565b91505092915050565b6000806040838503121561279e57600080fd5b60006127ac858286016126a5565b92505060206127bd858286016126a5565b9150509250929050565b6000806000606084860312156127dc57600080fd5b60006127ea868287016126a5565b93505060206127fb868287016126a5565b925050604061280c8682870161274d565b9150509250925092565b6000806000806080858703121561282c57600080fd5b600061283a878288016126a5565b945050602061284b878288016126a5565b935050604061285c8782880161274d565b925050606085013567ffffffffffffffff81111561287957600080fd5b612885878288016126f9565b91505092959194509250565b600080604083850312156128a457600080fd5b60006128b2858286016126a5565b92505060206128c3858286016126ba565b9150509250929050565b600080604083850312156128e057600080fd5b60006128ee858286016126a5565b925050602083013567ffffffffffffffff81111561290b57600080fd5b61291785828601612723565b9150509250929050565b6000806040838503121561293457600080fd5b6000612942858286016126a5565b92505060206129538582860161274d565b9150509250929050565b60006020828403121561296f57600080fd5b600061297d848285016126cf565b91505092915050565b60006020828403121561299857600080fd5b60006129a6848285016126e4565b91505092915050565b6000602082840312156129c157600080fd5b600082013567ffffffffffffffff8111156129db57600080fd5b6129e784828501612723565b91505092915050565b600060208284031215612a0257600080fd5b6000612a108482850161274d565b91505092915050565b612a2281613378565b82525050565b612a318161338a565b82525050565b6000612a428261327a565b612a4c8185613290565b9350612a5c818560208601613408565b612a65816135d4565b840191505092915050565b6000612a7b82613285565b612a8581856132a1565b9350612a95818560208601613408565b612a9e816135d4565b840191505092915050565b6000612ab482613285565b612abe81856132b2565b9350612ace818560208601613408565b80840191505092915050565b6000612ae76032836132a1565b9150612af2826135e5565b604082019050919050565b6000612b0a6026836132a1565b9150612b1582613634565b604082019050919050565b6000612b2d601c836132a1565b9150612b3882613683565b602082019050919050565b6000612b506024836132a1565b9150612b5b826136ac565b604082019050919050565b6000612b736019836132a1565b9150612b7e826136fb565b602082019050919050565b6000612b96602c836132a1565b9150612ba182613724565b604082019050919050565b6000612bb96038836132a1565b9150612bc482613773565b604082019050919050565b6000612bdc602a836132a1565b9150612be7826137c2565b604082019050919050565b6000612bff6029836132a1565b9150612c0a82613811565b604082019050919050565b6000612c22602e836132a1565b9150612c2d82613860565b604082019050919050565b6000612c456020836132a1565b9150612c50826138af565b602082019050919050565b6000612c686031836132a1565b9150612c73826138d8565b604082019050919050565b6000612c8b602c836132a1565b9150612c9682613927565b604082019050919050565b6000612cae6020836132a1565b9150612cb982613976565b602082019050919050565b6000612cd16029836132a1565b9150612cdc8261399f565b604082019050919050565b6000612cf4602f836132a1565b9150612cff826139ee565b604082019050919050565b6000612d176021836132a1565b9150612d2282613a3d565b604082019050919050565b6000612d3a6031836132a1565b9150612d4582613a8c565b604082019050919050565b6000612d5d6013836132a1565b9150612d6882613adb565b602082019050919050565b6000612d806030836132a1565b9150612d8b82613b04565b604082019050919050565b6000612da3600e836132a1565b9150612dae82613b53565b602082019050919050565b612dc2816133e2565b82525050565b612dd1816133ec565b82525050565b6000612de38284612aa9565b915081905092915050565b6000612dfa8285612aa9565b9150612e068284612aa9565b91508190509392505050565b6000602082019050612e276000830184612a19565b92915050565b6000608082019050612e426000830187612a19565b612e4f6020830186612a19565b612e5c6040830185612db9565b8181036060830152612e6e8184612a37565b905095945050505050565b6000602082019050612e8e6000830184612a28565b92915050565b60006020820190508181036000830152612eae8184612a70565b905092915050565b60006040820190508181036000830152612ed08185612a70565b90508181036020830152612ee48184612a70565b90509392505050565b60006040820190508181036000830152612f078185612a70565b9050612f166020830184612db9565b9392505050565b60006020820190508181036000830152612f3681612ada565b9050919050565b60006020820190508181036000830152612f5681612afd565b9050919050565b60006020820190508181036000830152612f7681612b20565b9050919050565b60006020820190508181036000830152612f9681612b43565b9050919050565b60006020820190508181036000830152612fb681612b66565b9050919050565b60006020820190508181036000830152612fd681612b89565b9050919050565b60006020820190508181036000830152612ff681612bac565b9050919050565b6000602082019050818103600083015261301681612bcf565b9050919050565b6000602082019050818103600083015261303681612bf2565b9050919050565b6000602082019050818103600083015261305681612c15565b9050919050565b6000602082019050818103600083015261307681612c38565b9050919050565b6000602082019050818103600083015261309681612c5b565b9050919050565b600060208201905081810360008301526130b681612c7e565b9050919050565b600060208201905081810360008301526130d681612ca1565b9050919050565b600060208201905081810360008301526130f681612cc4565b9050919050565b6000602082019050818103600083015261311681612ce7565b9050919050565b6000602082019050818103600083015261313681612d0a565b9050919050565b6000602082019050818103600083015261315681612d2d565b9050919050565b6000602082019050818103600083015261317681612d50565b9050919050565b6000602082019050818103600083015261319681612d73565b9050919050565b600060208201905081810360008301526131b681612d96565b9050919050565b60006020820190506131d26000830184612db9565b92915050565b60006020820190506131ed6000830184612dc8565b92915050565b60006131fd61320e565b9050613209828261346d565b919050565b6000604051905090565b600067ffffffffffffffff821115613233576132326135a5565b5b61323c826135d4565b9050602081019050919050565b600067ffffffffffffffff821115613264576132636135a5565b5b61326d826135d4565b9050602081019050919050565b600081519050919050565b600081519050919050565b600082825260208201905092915050565b600082825260208201905092915050565b600081905092915050565b60006132c8826133e2565b91506132d3836133e2565b9250827fffffffffffffffffffffffffffffffffffffffffffffffffffffffffffffffff0382111561330857613307613518565b5b828201905092915050565b600061331e826133e2565b9150613329836133e2565b92508261333957613338613547565b5b828204905092915050565b600061334f826133e2565b915061335a836133e2565b92508282101561336d5761336c613518565b5b828203905092915050565b6000613383826133c2565b9050919050565b60008115159050919050565b60007fffffffff0000000000000000000000000000000000000000000000000000000082169050919050565b600073ffffffffffffffffffffffffffffffffffffffff82169050919050565b6000819050919050565b600060ff82169050919050565b82818337600083830152505050565b60005b8381101561342657808201518184015260208101905061340b565b83811115613435576000848401525b50505050565b6000600282049050600182168061345357607f821691505b6020821081141561346757613466613576565b5b50919050565b613476826135d4565b810181811067ffffffffffffffff82111715613495576134946135a5565b5b80604052505050565b60006134a9826133e2565b91507fffffffffffffffffffffffffffffffffffffffffffffffffffffffffffffffff8214156134dc576134db613518565b5b600182019050919050565b60006134f2826133e2565b91506134fd836133e2565b92508261350d5761350c613547565b5b828206905092915050565b7f4e487b7100000000000000000000000000000000000000000000000000000000600052601160045260246000fd5b7f4e487b7100000000000000000000000000000000000000000000000000000000600052601260045260246000fd5b7f4e487b7100000000000000000000000000000000000000000000000000000000600052602260045260246000fd5b7f4e487b7100000000000000000000000000000000000000000000000000000000600052604160045260246000fd5b6000601f19601f8301169050919050565b7f4552433732313a207472616e7366657220746f206e6f6e20455243373231526560008201527f63656976657220696d706c656d656e7465720000000000000000000000000000602082015250565b7f4f776e61626c653a206e6577206f776e657220697320746865207a65726f206160008201527f6464726573730000000000000000000000000000000000000000000000000000602082015250565b7f4552433732313a20746f6b656e20616c7265616479206d696e74656400000000600082015250565b7f4552433732313a207472616e7366657220746f20746865207a65726f2061646460008201527f7265737300000000000000000000000000000000000000000000000000000000602082015250565b7f4552433732313a20617070726f766520746f2063616c6c657200000000000000600082015250565b7f4552433732313a206f70657261746f7220717565727920666f72206e6f6e657860008201527f697374656e7420746f6b656e0000000000000000000000000000000000000000602082015250565b7f4552433732313a20617070726f76652063616c6c6572206973206e6f74206f7760008201527f6e6572206e6f7220617070726f76656420666f7220616c6c0000000000000000602082015250565b7f4552433732313a2062616c616e636520717565727920666f7220746865207a6560008201527f726f206164647265737300000000000000000000000000000000000000000000602082015250565b7f4552433732313a206f776e657220717565727920666f72206e6f6e657869737460008201527f656e7420746f6b656e0000000000000000000000000000000000000000000000602082015250565b7f45524337323155524953746f726167653a2055524920736574206f66206e6f6e60008201527f6578697374656e7420746f6b656e000000000000000000000000000000000000602082015250565b7f4552433732313a206d696e7420746f20746865207a65726f2061646472657373600082015250565b7f45524337323155524953746f726167653a2055524920717565727920666f722060008201527f6e6f6e6578697374656e7420746f6b656e000000000000000000000000000000602082015250565b7f4552433732313a20617070726f76656420717565727920666f72206e6f6e657860008201527f697374656e7420746f6b656e0000000000000000000000000000000000000000602082015250565b7f4f776e61626c653a2063616c6c6572206973206e6f7420746865206f776e6572600082015250565b7f4552433732313a207472616e73666572206f6620746f6b656e2074686174206960008201527f73206e6f74206f776e0000000000000000000000000000000000000000000000602082015250565b7f4552433732314d657461646174613a2055524920717565727920666f72206e6f60008201527f6e6578697374656e7420746f6b656e0000000000000000000000000000000000602082015250565b7f4552433732313a20617070726f76616c20746f2063757272656e74206f776e6560008201527f7200000000000000000000000000000000000000000000000000000000000000602082015250565b7f4552433732313a207472616e736665722063616c6c6572206973206e6f74206f60008201527f776e6572206e6f7220617070726f766564000000000000000000000000000000602082015250565b7f4e465420616c7265616479206d696e7465642100000000000000000000000000600082015250565b7f4552433732314275726e61626c653a2063616c6c6572206973206e6f74206f7760008201527f6e6572206e6f7220617070726f76656400000000000000000000000000000000602082015250565b7f4e65656420746f20706179207570000000000000000000000000000000000000600082015250565b613b8581613378565b8114613b9057600080fd5b50565b613b9c8161338a565b8114613ba757600080fd5b50565b613bb381613396565b8114613bbe57600080fd5b50565b613bca816133e2565b8114613bd557600080fd5b5056fe697066733a2f2f516d5868665a334263426466775437745078784853635947355a7a44627133364e55646a4b46596d367754455a4aa2646970667358221220bef350017288cca3ba0e648870dc82b16d94e47cc3d428d5565bf5e1ccb1254e64736f6c63430008040033",
  "linkReferences": {},
  "deployedLinkReferences": {}
}