{
  "_format": "hh-sol-artifact-1",
  "contractName": "Minter",
  "sourceName": "contracts/Minter.sol",
  "abi": [
    {
      "inputs": [],
      "stateMutability": "nonpayable",
      "type": "constructor"
    },
    {
      "anonymous": false,
      "inputs": [
        {
          "indexed": true,
          "internalType": "address",
          "name": "owner",
          "type": "address"
        },
        {
          "indexed": true,
          "internalType": "address",
          "name": "approved",
          "type": "address"
        },
        {
          "indexed": true,
          "internalType": "uint256",
          "name": "tokenId",
          "type": "uint256"
        }
      ],
      "name": "Approval",
      "type": "event"
    },
    {
      "anonymous": false,
      "inputs": [
        {
          "indexed": true,
          "internalType": "address",
          "name": "owner",
          "type": "address"
        },
        {
          "indexed": true,
          "internalType": "address",
          "name": "operator",
          "type": "address"
        },
        {
          "indexed": false,
          "internalType": "bool",
          "name": "approved",
          "type": "bool"
        }
      ],
      "name": "ApprovalForAll",
      "type": "event"
    },
    {
      "anonymous": false,
      "inputs": [
        {
          "indexed": true,
          "internalType": "address",
          "name": "previousOwner",
          "type": "address"
        },
        {
          "indexed": true,
          "internalType": "address",
          "name": "newOwner",
          "type": "address"
        }
      ],
      "name": "OwnershipTransferred",
      "type": "event"
    },
    {
      "anonymous": false,
      "inputs": [
        {
          "indexed": true,
          "internalType": "address",
          "name": "from",
          "type": "address"
        },
        {
          "indexed": true,
          "internalType": "address",
          "name": "to",
          "type": "address"
        },
        {
          "indexed": true,
          "internalType": "uint256",
          "name": "tokenId",
          "type": "uint256"
        }
      ],
      "name": "Transfer",
      "type": "event"
    },
    {
      "inputs": [
        {
          "internalType": "address",
          "name": "to",
          "type": "address"
        },
        {
          "internalType": "uint256",
          "name": "tokenId",
          "type": "uint256"
        }
      ],
      "name": "approve",
      "outputs": [],
      "stateMutability": "nonpayable",
      "type": "function"
    },
    {
      "inputs": [
        {
          "internalType": "address",
          "name": "owner",
          "type": "address"
        }
      ],
      "name": "balanceOf",
      "outputs": [
        {
          "internalType": "uint256",
          "name": "",
          "type": "uint256"
        }
      ],
      "stateMutability": "view",
      "type": "function"
    },
    {
      "inputs": [
        {
          "internalType": "uint256",
          "name": "tokenId",
          "type": "uint256"
        }
      ],
      "name": "burn",
      "outputs": [],
      "stateMutability": "nonpayable",
      "type": "function"
    },
    {
      "inputs": [],
      "name": "count",
      "outputs": [
        {
          "internalType": "uint256",
          "name": "",
          "type": "uint256"
        }
      ],
      "stateMutability": "view",
      "type": "function"
    },
    {
      "inputs": [
        {
          "internalType": "string",
          "name": "",
          "type": "string"
        }
      ],
      "name": "existingURIs",
      "outputs": [
        {
          "internalType": "uint8",
          "name": "",
          "type": "uint8"
        }
      ],
      "stateMutability": "view",
      "type": "function"
    },
    {
      "inputs": [
        {
          "internalType": "uint256",
          "name": "tokenId",
          "type": "uint256"
        }
      ],
      "name": "getApproved",
      "outputs": [
        {
          "internalType": "address",
          "name": "",
          "type": "address"
        }
      ],
      "stateMutability": "view",
      "type": "function"
    },
    {
      "inputs": [
        {
          "internalType": "address",
          "name": "owner",
          "type": "address"
        },
        {
          "internalType": "address",
          "name": "operator",
          "type": "address"
        }
      ],
      "name": "isApprovedForAll",
      "outputs": [
        {
          "internalType": "bool",
          "name": "",
          "type": "bool"
        }
      ],
      "stateMutability": "view",
      "type": "function"
    },
    {
      "inputs": [
        {
          "internalType": "string",
          "name": "uri",
          "type": "string"
        }
      ],
      "name": "isContentOwned",
      "outputs": [
        {
          "internalType": "bool",
          "name": "",
          "type": "bool"
        }
      ],
      "stateMutability": "view",
      "type": "function"
    },
    {
      "inputs": [],
      "name": "mintValue",
      "outputs": [
        {
          "internalType": "uint256",
          "name": "",
          "type": "uint256"
        }
      ],
      "stateMutability": "view",
      "type": "function"
    },
    {
      "inputs": [],
      "name": "name",
      "outputs": [
        {
          "internalType": "string",
          "name": "",
          "type": "string"
        }
      ],
      "stateMutability": "view",
      "type": "function"
    },
    {
      "inputs": [],
      "name": "owner",
      "outputs": [
        {
          "internalType": "address",
          "name": "",
          "type": "address"
        }
      ],
      "stateMutability": "view",
      "type": "function"
    },
    {
      "inputs": [
        {
          "internalType": "uint256",
          "name": "tokenId",
          "type": "uint256"
        }
      ],
      "name": "ownerOf",
      "outputs": [
        {
          "internalType": "address",
          "name": "",
          "type": "address"
        }
      ],
      "stateMutability": "view",
      "type": "function"
    },
    {
      "inputs": [
        {
          "internalType": "address",
          "name": "to",
          "type": "address"
        }
      ],
      "name": "payToMint",
      "outputs": [
        {
          "internalType": "uint256",
          "name": "",
          "type": "uint256"
        }
      ],
      "stateMutability": "payable",
      "type": "function"
    },
    {
      "inputs": [],
      "name": "renounceOwnership",
      "outputs": [],
      "stateMutability": "nonpayable",
      "type": "function"
    },
    {
      "inputs": [
        {
          "internalType": "address",
          "name": "to",
          "type": "address"
        }
      ],
      "name": "safeMint",
      "outputs": [],
      "stateMutability": "nonpayable",
      "type": "function"
    },
    {
      "inputs": [
        {
          "internalType": "address",
          "name": "from",
          "type": "address"
        },
        {
          "internalType": "address",
          "name": "to",
          "type": "address"
        },
        {
          "internalType": "uint256",
          "name": "tokenId",
          "type": "uint256"
        }
      ],
      "name": "safeTransferFrom",
      "outputs": [],
      "stateMutability": "nonpayable",
      "type": "function"
    },
    {
      "inputs": [
        {
          "internalType": "address",
          "name": "from",
          "type": "address"
        },
        {
          "internalType": "address",
          "name": "to",
          "type": "address"
        },
        {
          "internalType": "uint256",
          "name": "tokenId",
          "type": "uint256"
        },
        {
          "internalType": "bytes",
          "name": "_data",
          "type": "bytes"
        }
      ],
      "name": "safeTransferFrom",
      "outputs": [],
      "stateMutability": "nonpayable",
      "type": "function"
    },
    {
      "inputs": [
        {
          "internalType": "address",
          "name": "operator",
          "type": "address"
        },
        {
          "internalType": "bool",
          "name": "approved",
          "type": "bool"
        }
      ],
      "name": "setApprovalForAll",
      "outputs": [],
      "stateMutability": "nonpayable",
      "type": "function"
    },
    {
      "inputs": [
        {
          "internalType": "uint256",
          "name": "_mintValue",
          "type": "uint256"
        }
      ],
      "name": "setMintValue",
      "outputs": [],
      "stateMutability": "nonpayable",
      "type": "function"
    },
    {
      "inputs": [
        {
          "internalType": "bytes4",
          "name": "interfaceId",
          "type": "bytes4"
        }
      ],
      "name": "supportsInterface",
      "outputs": [
        {
          "internalType": "bool",
          "name": "",
          "type": "bool"
        }
      ],
      "stateMutability": "view",
      "type": "function"
    },
    {
      "inputs": [],
      "name": "symbol",
      "outputs": [
        {
          "internalType": "string",
          "name": "",
          "type": "string"
        }
      ],
      "stateMutability": "view",
      "type": "function"
    },
    {
      "inputs": [
        {
          "internalType": "uint256",
          "name": "tokenId",
          "type": "uint256"
        }
      ],
      "name": "tokenURI",
      "outputs": [
        {
          "internalType": "string",
          "name": "",
          "type": "string"
        }
      ],
      "stateMutability": "view",
      "type": "function"
    },
    {
      "inputs": [
        {
          "internalType": "address",
          "name": "from",
          "type": "address"
        },
        {
          "internalType": "address",
          "name": "to",
          "type": "address"
        },
        {
          "internalType": "uint256",
          "name": "tokenId",
          "type": "uint256"
        }
      ],
      "name": "transferFrom",
      "outputs": [],
      "stateMutability": "nonpayable",
      "type": "function"
    },
    {
      "inputs": [
        {
          "internalType": "address",
          "name": "newOwner",
          "type": "address"
        }
      ],
      "name": "transferOwnership",
      "outputs": [],
      "stateMutability": "nonpayable",
      "type": "function"
    },
    {
      "inputs": [],
      "name": "withdraw",
      "outputs": [],
      "stateMutability": "nonpayable",
      "type": "function"
    }
  ],
  "bytecode": "0x60806040523480156200001157600080fd5b506040518060400160405280600681526020017f4d696e74657200000000000000000000000000000000000000000000000000008152506040518060400160405280600381526020017f4d494e0000000000000000000000000000000000000000000000000000000000815250816000908051906020019062000096929190620001b4565b508060019080519060200190620000af929190620001b4565b505050620000d2620000c6620000e660201b60201c565b620000ee60201b60201c565b66b1a2bc2ec50000600981905550620002c9565b600033905090565b6000600760009054906101000a900473ffffffffffffffffffffffffffffffffffffffff16905081600760006101000a81548173ffffffffffffffffffffffffffffffffffffffff021916908373ffffffffffffffffffffffffffffffffffffffff1602179055508173ffffffffffffffffffffffffffffffffffffffff168173ffffffffffffffffffffffffffffffffffffffff167f8be0079c531659141344cd1fd0a4f28419497f9722a3daafe3b4186f6b6457e060405160405180910390a35050565b828054620001c29062000264565b90600052602060002090601f016020900481019282620001e6576000855562000232565b82601f106200020157805160ff191683800117855562000232565b8280016001018555821562000232579182015b828111156200023157825182559160200191906001019062000214565b5b50905062000241919062000245565b5090565b5b808211156200026057600081600090555060010162000246565b5090565b600060028204905060018216806200027d57607f821691505b602082108114156200029457620002936200029a565b5b50919050565b7f4e487b7100000000000000000000000000000000000000000000000000000000600052602260045260246000fd5b613a9680620002d96000396000f3fe6080604052600436106101665760003560e01c806370a08231116100d1578063a22cb4651161008a578063c87b56dd11610064578063c87b56dd14610519578063e985e9c514610556578063f2fde38b14610593578063f37971df146105bc57610166565b8063a22cb4651461049e578063b88d4fde146104c7578063c01031c0146104f057610166565b806370a082311461038c578063715018a6146103c957806389c77dfe146103e05780638da5cb5b1461040b57806395d89b41146104365780639f1cabc61461046157610166565b80633ccfd60b116101235780633ccfd60b1461028d57806340d097c3146102a457806342842e0e146102cd57806342966c68146102f6578063585b32821461031f5780636352211e1461034f57610166565b806301ffc9a71461016b57806306661abd146101a857806306fdde03146101d3578063081812fc146101fe578063095ea7b31461023b57806323b872dd14610264575b600080fd5b34801561017757600080fd5b50610192600480360381019061018d9190612752565b6105f9565b60405161019f9190612ce1565b60405180910390f35b3480156101b457600080fd5b506101bd6106db565b6040516101ca9190612fbe565b60405180910390f35b3480156101df57600080fd5b506101e86106ec565b6040516101f59190612cfc565b60405180910390f35b34801561020a57600080fd5b50610225600480360381019061022091906127e5565b61077e565b6040516102329190612c7a565b60405180910390f35b34801561024757600080fd5b50610262600480360381019061025d9190612716565b610803565b005b34801561027057600080fd5b5061028b60048036038101906102869190612610565b61091b565b005b34801561029957600080fd5b506102a261097b565b005b3480156102b057600080fd5b506102cb60048036038101906102c691906125ab565b610a40565b005b3480156102d957600080fd5b506102f460048036038101906102ef9190612610565b610ac9565b005b34801561030257600080fd5b5061031d600480360381019061031891906127e5565b610ae9565b005b610339600480360381019061033491906125ab565b610b45565b6040516103469190612fbe565b60405180910390f35b34801561035b57600080fd5b50610376600480360381019061037191906127e5565b610b9c565b6040516103839190612c7a565b60405180910390f35b34801561039857600080fd5b506103b360048036038101906103ae91906125ab565b610c4e565b6040516103c09190612fbe565b60405180910390f35b3480156103d557600080fd5b506103de610d06565b005b3480156103ec57600080fd5b506103f5610d8e565b6040516104029190612fbe565b60405180910390f35b34801561041757600080fd5b50610420610d94565b60405161042d9190612c7a565b60405180910390f35b34801561044257600080fd5b5061044b610dbe565b6040516104589190612cfc565b60405180910390f35b34801561046d57600080fd5b50610488600480360381019061048391906127a4565b610e50565b6040516104959190612ce1565b60405180910390f35b3480156104aa57600080fd5b506104c560048036038101906104c091906126da565b610e8b565b005b3480156104d357600080fd5b506104ee60048036038101906104e9919061265f565b610ea1565b005b3480156104fc57600080fd5b50610517600480360381019061051291906127e5565b610f03565b005b34801561052557600080fd5b50610540600480360381019061053b91906127e5565b610f89565b60405161054d9190612cfc565b60405180910390f35b34801561056257600080fd5b5061057d600480360381019061057891906125d4565b610f9b565b60405161058a9190612ce1565b60405180910390f35b34801561059f57600080fd5b506105ba60048036038101906105b591906125ab565b61102f565b005b3480156105c857600080fd5b506105e360048036038101906105de91906127a4565b611127565b6040516105f09190612fd9565b60405180910390f35b60007f80ac58cd000000000000000000000000000000000000000000000000000000007bffffffffffffffffffffffffffffffffffffffffffffffffffffffff1916827bffffffffffffffffffffffffffffffffffffffffffffffffffffffff191614806106c457507f5b5e139f000000000000000000000000000000000000000000000000000000007bffffffffffffffffffffffffffffffffffffffffffffffffffffffff1916827bffffffffffffffffffffffffffffffffffffffffffffffffffffffff1916145b806106d457506106d38261115d565b5b9050919050565b60006106e760086111c7565b905090565b6060600080546106fb9061323c565b80601f01602080910402602001604051908101604052809291908181526020018280546107279061323c565b80156107745780601f1061074957610100808354040283529160200191610774565b820191906000526020600020905b81548152906001019060200180831161075757829003601f168201915b5050505050905090565b6000610789826111d5565b6107c8576040517f08c379a00000000000000000000000000000000000000000000000000000000081526004016107bf90612e9e565b60405180910390fd5b6004600083815260200190815260200160002060009054906101000a900473ffffffffffffffffffffffffffffffffffffffff169050919050565b600061080e82610b9c565b90508073ffffffffffffffffffffffffffffffffffffffff168373ffffffffffffffffffffffffffffffffffffffff16141561087f576040517f08c379a000000000000000000000000000000000000000000000000000000000815260040161087690612f1e565b60405180910390fd5b8073ffffffffffffffffffffffffffffffffffffffff1661089e611241565b73ffffffffffffffffffffffffffffffffffffffff1614806108cd57506108cc816108c7611241565b610f9b565b5b61090c576040517f08c379a000000000000000000000000000000000000000000000000000000000815260040161090390612dde565b60405180910390fd5b6109168383611249565b505050565b61092c610926611241565b82611302565b61096b576040517f08c379a000000000000000000000000000000000000000000000000000000000815260040161096290612f3e565b60405180910390fd5b6109768383836113e0565b505050565b610983611241565b73ffffffffffffffffffffffffffffffffffffffff166109a1610d94565b73ffffffffffffffffffffffffffffffffffffffff16146109f7576040517f08c379a00000000000000000000000000000000000000000000000000000000081526004016109ee90612ebe565b60405180910390fd5b3073ffffffffffffffffffffffffffffffffffffffff166108fc479081150290604051600060405180830381858888f19350505050158015610a3d573d6000803e3d6000fd5b50565b610a48611241565b73ffffffffffffffffffffffffffffffffffffffff16610a66610d94565b73ffffffffffffffffffffffffffffffffffffffff1614610abc576040517f08c379a0000000000000000000000000000000000000000000000000000000008152600401610ab390612ebe565b60405180910390fd5b610ac58161163c565b5050565b610ae483838360405180602001604052806000815250610ea1565b505050565b610afa610af4611241565b82611302565b610b39576040517f08c379a0000000000000000000000000000000000000000000000000000000008152600401610b3090612f7e565b60405180910390fd5b610b428161174a565b50565b6000600954341015610b8c576040517f08c379a0000000000000000000000000000000000000000000000000000000008152600401610b8390612f9e565b60405180910390fd5b610b958261163c565b9050919050565b6000806002600084815260200190815260200160002060009054906101000a900473ffffffffffffffffffffffffffffffffffffffff169050600073ffffffffffffffffffffffffffffffffffffffff168173ffffffffffffffffffffffffffffffffffffffff161415610c45576040517f08c379a0000000000000000000000000000000000000000000000000000000008152600401610c3c90612e1e565b60405180910390fd5b80915050919050565b60008073ffffffffffffffffffffffffffffffffffffffff168273ffffffffffffffffffffffffffffffffffffffff161415610cbf576040517f08c379a0000000000000000000000000000000000000000000000000000000008152600401610cb690612dfe565b60405180910390fd5b600360008373ffffffffffffffffffffffffffffffffffffffff1673ffffffffffffffffffffffffffffffffffffffff168152602001908152602001600020549050919050565b610d0e611241565b73ffffffffffffffffffffffffffffffffffffffff16610d2c610d94565b73ffffffffffffffffffffffffffffffffffffffff1614610d82576040517f08c379a0000000000000000000000000000000000000000000000000000000008152600401610d7990612ebe565b60405180910390fd5b610d8c6000611756565b565b60095481565b6000600760009054906101000a900473ffffffffffffffffffffffffffffffffffffffff16905090565b606060018054610dcd9061323c565b80601f0160208091040260200160405190810160405280929190818152602001828054610df99061323c565b8015610e465780601f10610e1b57610100808354040283529160200191610e46565b820191906000526020600020905b815481529060010190602001808311610e2957829003601f168201915b5050505050905090565b60006001600a83604051610e649190612c12565b908152602001604051809103902060009054906101000a900460ff1660ff16149050919050565b610e9d610e96611241565b838361181c565b5050565b610eb2610eac611241565b83611302565b610ef1576040517f08c379a0000000000000000000000000000000000000000000000000000000008152600401610ee890612f3e565b60405180910390fd5b610efd84848484611989565b50505050565b610f0b611241565b73ffffffffffffffffffffffffffffffffffffffff16610f29610d94565b73ffffffffffffffffffffffffffffffffffffffff1614610f7f576040517f08c379a0000000000000000000000000000000000000000000000000000000008152600401610f7690612ebe565b60405180910390fd5b8060098190555050565b6060610f94826119e5565b9050919050565b6000600560008473ffffffffffffffffffffffffffffffffffffffff1673ffffffffffffffffffffffffffffffffffffffff16815260200190815260200160002060008373ffffffffffffffffffffffffffffffffffffffff1673ffffffffffffffffffffffffffffffffffffffff16815260200190815260200160002060009054906101000a900460ff16905092915050565b611037611241565b73ffffffffffffffffffffffffffffffffffffffff16611055610d94565b73ffffffffffffffffffffffffffffffffffffffff16146110ab576040517f08c379a00000000000000000000000000000000000000000000000000000000081526004016110a290612ebe565b60405180910390fd5b600073ffffffffffffffffffffffffffffffffffffffff168173ffffffffffffffffffffffffffffffffffffffff16141561111b576040517f08c379a000000000000000000000000000000000000000000000000000000000815260040161111290612d3e565b60405180910390fd5b61112481611756565b50565b600a818051602081018201805184825260208301602085012081835280955050505050506000915054906101000a900460ff1681565b60007f01ffc9a7000000000000000000000000000000000000000000000000000000007bffffffffffffffffffffffffffffffffffffffffffffffffffffffff1916827bffffffffffffffffffffffffffffffffffffffffffffffffffffffff1916149050919050565b600081600001549050919050565b60008073ffffffffffffffffffffffffffffffffffffffff166002600084815260200190815260200160002060009054906101000a900473ffffffffffffffffffffffffffffffffffffffff1673ffffffffffffffffffffffffffffffffffffffff1614159050919050565b600033905090565b816004600083815260200190815260200160002060006101000a81548173ffffffffffffffffffffffffffffffffffffffff021916908373ffffffffffffffffffffffffffffffffffffffff160217905550808273ffffffffffffffffffffffffffffffffffffffff166112bc83610b9c565b73ffffffffffffffffffffffffffffffffffffffff167f8c5be1e5ebec7d5bd14f71427d1e84f3dd0314c0f7b2291e5b200ac8c7c3b92560405160405180910390a45050565b600061130d826111d5565b61134c576040517f08c379a000000000000000000000000000000000000000000000000000000000815260040161134390612dbe565b60405180910390fd5b600061135783610b9c565b90508073ffffffffffffffffffffffffffffffffffffffff168473ffffffffffffffffffffffffffffffffffffffff1614806113c657508373ffffffffffffffffffffffffffffffffffffffff166113ae8461077e565b73ffffffffffffffffffffffffffffffffffffffff16145b806113d757506113d68185610f9b565b5b91505092915050565b8273ffffffffffffffffffffffffffffffffffffffff1661140082610b9c565b73ffffffffffffffffffffffffffffffffffffffff1614611456576040517f08c379a000000000000000000000000000000000000000000000000000000000815260040161144d90612ede565b60405180910390fd5b600073ffffffffffffffffffffffffffffffffffffffff168273ffffffffffffffffffffffffffffffffffffffff1614156114c6576040517f08c379a00000000000000000000000000000000000000000000000000000000081526004016114bd90612d7e565b60405180910390fd5b6114d1838383611b37565b6114dc600082611249565b6001600360008573ffffffffffffffffffffffffffffffffffffffff1673ffffffffffffffffffffffffffffffffffffffff168152602001908152602001600020600082825461152c9190613145565b925050819055506001600360008473ffffffffffffffffffffffffffffffffffffffff1673ffffffffffffffffffffffffffffffffffffffff168152602001908152602001600020600082825461158391906130be565b92505081905550816002600083815260200190815260200160002060006101000a81548173ffffffffffffffffffffffffffffffffffffffff021916908373ffffffffffffffffffffffffffffffffffffffff160217905550808273ffffffffffffffffffffffffffffffffffffffff168473ffffffffffffffffffffffffffffffffffffffff167fddf252ad1be2c89b69c2b068fc378daa952ba7f163c4a11628f55a4df523b3ef60405160405180910390a4505050565b60006116486008611b3c565b600061165460086111c7565b9050600061166182611b52565b6040516020016116719190612c4d565b60405160208183030381529060405290506001600a826040516116949190612c12565b908152602001604051809103902060009054906101000a900460ff1660ff1614156116f4576040517f08c379a00000000000000000000000000000000000000000000000000000000081526004016116eb90612f5e565b60405180910390fd5b6001600a826040516117069190612c12565b908152602001604051809103902060006101000a81548160ff021916908360ff1602179055506117368483611cff565b6117408282611d1d565b8192505050919050565b61175381611d91565b50565b6000600760009054906101000a900473ffffffffffffffffffffffffffffffffffffffff16905081600760006101000a81548173ffffffffffffffffffffffffffffffffffffffff021916908373ffffffffffffffffffffffffffffffffffffffff1602179055508173ffffffffffffffffffffffffffffffffffffffff168173ffffffffffffffffffffffffffffffffffffffff167f8be0079c531659141344cd1fd0a4f28419497f9722a3daafe3b4186f6b6457e060405160405180910390a35050565b8173ffffffffffffffffffffffffffffffffffffffff168373ffffffffffffffffffffffffffffffffffffffff16141561188b576040517f08c379a000000000000000000000000000000000000000000000000000000000815260040161188290612d9e565b60405180910390fd5b80600560008573ffffffffffffffffffffffffffffffffffffffff1673ffffffffffffffffffffffffffffffffffffffff16815260200190815260200160002060008473ffffffffffffffffffffffffffffffffffffffff1673ffffffffffffffffffffffffffffffffffffffff16815260200190815260200160002060006101000a81548160ff0219169083151502179055508173ffffffffffffffffffffffffffffffffffffffff168373ffffffffffffffffffffffffffffffffffffffff167f17307eab39ab6107e8899845ad3d59bd9653f200f220920489ca2b5937696c318360405161197c9190612ce1565b60405180910390a3505050565b6119948484846113e0565b6119a084848484611de4565b6119df576040517f08c379a00000000000000000000000000000000000000000000000000000000081526004016119d690612d1e565b60405180910390fd5b50505050565b60606119f0826111d5565b611a2f576040517f08c379a0000000000000000000000000000000000000000000000000000000008152600401611a2690612e7e565b60405180910390fd5b6000600660008481526020019081526020016000208054611a4f9061323c565b80601f0160208091040260200160405190810160405280929190818152602001828054611a7b9061323c565b8015611ac85780601f10611a9d57610100808354040283529160200191611ac8565b820191906000526020600020905b815481529060010190602001808311611aab57829003601f168201915b505050505090506000611ad9611f7b565b9050600081511415611aef578192505050611b32565b600082511115611b24578082604051602001611b0c929190612c29565b60405160208183030381529060405292505050611b32565b611b2d84611f9b565b925050505b919050565b505050565b6001816000016000828254019250508190555050565b60606000821415611b9a576040518060400160405280600181526020017f30000000000000000000000000000000000000000000000000000000000000008152509050611cfa565b600082905060005b60008214611bcc578080611bb59061329f565b915050600a82611bc59190613114565b9150611ba2565b60008167ffffffffffffffff811115611c0e577f4e487b7100000000000000000000000000000000000000000000000000000000600052604160045260246000fd5b6040519080825280601f01601f191660200182016040528015611c405781602001600182028036833780820191505090505b5090505b60008514611cf357600182611c599190613145565b9150600a85611c6891906132e8565b6030611c7491906130be565b60f81b818381518110611cb0577f4e487b7100000000000000000000000000000000000000000000000000000000600052603260045260246000fd5b60200101907effffffffffffffffffffffffffffffffffffffffffffffffffffffffffffff1916908160001a905350600a85611cec9190613114565b9450611c44565b8093505050505b919050565b611d19828260405180602001604052806000815250612042565b5050565b611d26826111d5565b611d65576040517f08c379a0000000000000000000000000000000000000000000000000000000008152600401611d5c90612e3e565b60405180910390fd5b80600660008481526020019081526020016000209080519060200190611d8c92919061238f565b505050565b611d9a8161209d565b6000600660008381526020019081526020016000208054611dba9061323c565b905014611de157600660008281526020019081526020016000206000611de09190612415565b5b50565b6000611e058473ffffffffffffffffffffffffffffffffffffffff166121ae565b15611f6e578373ffffffffffffffffffffffffffffffffffffffff1663150b7a02611e2e611241565b8786866040518563ffffffff1660e01b8152600401611e509493929190612c95565b602060405180830381600087803b158015611e6a57600080fd5b505af1925050508015611e9b57506040513d601f19601f82011682018060405250810190611e98919061277b565b60015b611f1e573d8060008114611ecb576040519150601f19603f3d011682016040523d82523d6000602084013e611ed0565b606091505b50600081511415611f16576040517f08c379a0000000000000000000000000000000000000000000000000000000008152600401611f0d90612d1e565b60405180910390fd5b805181602001fd5b63150b7a0260e01b7bffffffffffffffffffffffffffffffffffffffffffffffffffffffff1916817bffffffffffffffffffffffffffffffffffffffffffffffffffffffff191614915050611f73565b600190505b949350505050565b6060604051806060016040528060358152602001613a2c60359139905090565b6060611fa6826111d5565b611fe5576040517f08c379a0000000000000000000000000000000000000000000000000000000008152600401611fdc90612efe565b60405180910390fd5b6000611fef611f7b565b9050600081511161200f576040518060200160405280600081525061203a565b8061201984611b52565b60405160200161202a929190612c29565b6040516020818303038152906040525b915050919050565b61204c83836121c1565b6120596000848484611de4565b612098576040517f08c379a000000000000000000000000000000000000000000000000000000000815260040161208f90612d1e565b60405180910390fd5b505050565b60006120a882610b9c565b90506120b681600084611b37565b6120c1600083611249565b6001600360008373ffffffffffffffffffffffffffffffffffffffff1673ffffffffffffffffffffffffffffffffffffffff16815260200190815260200160002060008282546121119190613145565b925050819055506002600083815260200190815260200160002060006101000a81549073ffffffffffffffffffffffffffffffffffffffff021916905581600073ffffffffffffffffffffffffffffffffffffffff168273ffffffffffffffffffffffffffffffffffffffff167fddf252ad1be2c89b69c2b068fc378daa952ba7f163c4a11628f55a4df523b3ef60405160405180910390a45050565b600080823b905060008111915050919050565b600073ffffffffffffffffffffffffffffffffffffffff168273ffffffffffffffffffffffffffffffffffffffff161415612231576040517f08c379a000000000000000000000000000000000000000000000000000000000815260040161222890612e5e565b60405180910390fd5b61223a816111d5565b1561227a576040517f08c379a000000000000000000000000000000000000000000000000000000000815260040161227190612d5e565b60405180910390fd5b61228660008383611b37565b6001600360008473ffffffffffffffffffffffffffffffffffffffff1673ffffffffffffffffffffffffffffffffffffffff16815260200190815260200160002060008282546122d691906130be565b92505081905550816002600083815260200190815260200160002060006101000a81548173ffffffffffffffffffffffffffffffffffffffff021916908373ffffffffffffffffffffffffffffffffffffffff160217905550808273ffffffffffffffffffffffffffffffffffffffff16600073ffffffffffffffffffffffffffffffffffffffff167fddf252ad1be2c89b69c2b068fc378daa952ba7f163c4a11628f55a4df523b3ef60405160405180910390a45050565b82805461239b9061323c565b90600052602060002090601f0160209004810192826123bd5760008555612404565b82601f106123d657805160ff1916838001178555612404565b82800160010185558215612404579182015b828111156124035782518255916020019190600101906123e8565b5b5090506124119190612455565b5090565b5080546124219061323c565b6000825580601f106124335750612452565b601f0160209004906000526020600020908101906124519190612455565b5b50565b5b8082111561246e576000816000905550600101612456565b5090565b600061248561248084613019565b612ff4565b90508281526020810184848401111561249d57600080fd5b6124a88482856131fa565b509392505050565b60006124c36124be8461304a565b612ff4565b9050828152602081018484840111156124db57600080fd5b6124e68482856131fa565b509392505050565b6000813590506124fd816139cf565b92915050565b600081359050612512816139e6565b92915050565b600081359050612527816139fd565b92915050565b60008151905061253c816139fd565b92915050565b600082601f83011261255357600080fd5b8135612563848260208601612472565b91505092915050565b600082601f83011261257d57600080fd5b813561258d8482602086016124b0565b91505092915050565b6000813590506125a581613a14565b92915050565b6000602082840312156125bd57600080fd5b60006125cb848285016124ee565b91505092915050565b600080604083850312156125e757600080fd5b60006125f5858286016124ee565b9250506020612606858286016124ee565b9150509250929050565b60008060006060848603121561262557600080fd5b6000612633868287016124ee565b9350506020612644868287016124ee565b925050604061265586828701612596565b9150509250925092565b6000806000806080858703121561267557600080fd5b6000612683878288016124ee565b9450506020612694878288016124ee565b93505060406126a587828801612596565b925050606085013567ffffffffffffffff8111156126c257600080fd5b6126ce87828801612542565b91505092959194509250565b600080604083850312156126ed57600080fd5b60006126fb858286016124ee565b925050602061270c85828601612503565b9150509250929050565b6000806040838503121561272957600080fd5b6000612737858286016124ee565b925050602061274885828601612596565b9150509250929050565b60006020828403121561276457600080fd5b600061277284828501612518565b91505092915050565b60006020828403121561278d57600080fd5b600061279b8482850161252d565b91505092915050565b6000602082840312156127b657600080fd5b600082013567ffffffffffffffff8111156127d057600080fd5b6127dc8482850161256c565b91505092915050565b6000602082840312156127f757600080fd5b600061280584828501612596565b91505092915050565b61281781613179565b82525050565b6128268161318b565b82525050565b60006128378261307b565b6128418185613091565b9350612851818560208601613209565b61285a816133d5565b840191505092915050565b600061287082613086565b61287a81856130a2565b935061288a818560208601613209565b612893816133d5565b840191505092915050565b60006128a982613086565b6128b381856130b3565b93506128c3818560208601613209565b80840191505092915050565b60006128dc6032836130a2565b91506128e7826133e6565b604082019050919050565b60006128ff6026836130a2565b915061290a82613435565b604082019050919050565b6000612922601c836130a2565b915061292d82613484565b602082019050919050565b60006129456004836130b3565b9150612950826134ad565b600482019050919050565b60006129686024836130a2565b9150612973826134d6565b604082019050919050565b600061298b6019836130a2565b915061299682613525565b602082019050919050565b60006129ae602c836130a2565b91506129b98261354e565b604082019050919050565b60006129d16038836130a2565b91506129dc8261359d565b604082019050919050565b60006129f4602a836130a2565b91506129ff826135ec565b604082019050919050565b6000612a176029836130a2565b9150612a228261363b565b604082019050919050565b6000612a3a602e836130a2565b9150612a458261368a565b604082019050919050565b6000612a5d6020836130a2565b9150612a68826136d9565b602082019050919050565b6000612a806031836130a2565b9150612a8b82613702565b604082019050919050565b6000612aa3602c836130a2565b9150612aae82613751565b604082019050919050565b6000612ac66020836130a2565b9150612ad1826137a0565b602082019050919050565b6000612ae96029836130a2565b9150612af4826137c9565b604082019050919050565b6000612b0c602f836130a2565b9150612b1782613818565b604082019050919050565b6000612b2f6021836130a2565b9150612b3a82613867565b604082019050919050565b6000612b526031836130a2565b9150612b5d826138b6565b604082019050919050565b6000612b756013836130a2565b9150612b8082613905565b602082019050919050565b6000612b986030836130a2565b9150612ba38261392e565b604082019050919050565b6000612bbb6001836130b3565b9150612bc68261397d565b600182019050919050565b6000612bde600e836130a2565b9150612be9826139a6565b602082019050919050565b612bfd816131e3565b82525050565b612c0c816131ed565b82525050565b6000612c1e828461289e565b915081905092915050565b6000612c35828561289e565b9150612c41828461289e565b91508190509392505050565b6000612c5882612bae565b9150612c64828461289e565b9150612c6f82612938565b915081905092915050565b6000602082019050612c8f600083018461280e565b92915050565b6000608082019050612caa600083018761280e565b612cb7602083018661280e565b612cc46040830185612bf4565b8181036060830152612cd6818461282c565b905095945050505050565b6000602082019050612cf6600083018461281d565b92915050565b60006020820190508181036000830152612d168184612865565b905092915050565b60006020820190508181036000830152612d37816128cf565b9050919050565b60006020820190508181036000830152612d57816128f2565b9050919050565b60006020820190508181036000830152612d7781612915565b9050919050565b60006020820190508181036000830152612d978161295b565b9050919050565b60006020820190508181036000830152612db78161297e565b9050919050565b60006020820190508181036000830152612dd7816129a1565b9050919050565b60006020820190508181036000830152612df7816129c4565b9050919050565b60006020820190508181036000830152612e17816129e7565b9050919050565b60006020820190508181036000830152612e3781612a0a565b9050919050565b60006020820190508181036000830152612e5781612a2d565b9050919050565b60006020820190508181036000830152612e7781612a50565b9050919050565b60006020820190508181036000830152612e9781612a73565b9050919050565b60006020820190508181036000830152612eb781612a96565b9050919050565b60006020820190508181036000830152612ed781612ab9565b9050919050565b60006020820190508181036000830152612ef781612adc565b9050919050565b60006020820190508181036000830152612f1781612aff565b9050919050565b60006020820190508181036000830152612f3781612b22565b9050919050565b60006020820190508181036000830152612f5781612b45565b9050919050565b60006020820190508181036000830152612f7781612b68565b9050919050565b60006020820190508181036000830152612f9781612b8b565b9050919050565b60006020820190508181036000830152612fb781612bd1565b9050919050565b6000602082019050612fd36000830184612bf4565b92915050565b6000602082019050612fee6000830184612c03565b92915050565b6000612ffe61300f565b905061300a828261326e565b919050565b6000604051905090565b600067ffffffffffffffff821115613034576130336133a6565b5b61303d826133d5565b9050602081019050919050565b600067ffffffffffffffff821115613065576130646133a6565b5b61306e826133d5565b9050602081019050919050565b600081519050919050565b600081519050919050565b600082825260208201905092915050565b600082825260208201905092915050565b600081905092915050565b60006130c9826131e3565b91506130d4836131e3565b9250827fffffffffffffffffffffffffffffffffffffffffffffffffffffffffffffffff0382111561310957613108613319565b5b828201905092915050565b600061311f826131e3565b915061312a836131e3565b92508261313a57613139613348565b5b828204905092915050565b6000613150826131e3565b915061315b836131e3565b92508282101561316e5761316d613319565b5b828203905092915050565b6000613184826131c3565b9050919050565b60008115159050919050565b60007fffffffff0000000000000000000000000000000000000000000000000000000082169050919050565b600073ffffffffffffffffffffffffffffffffffffffff82169050919050565b6000819050919050565b600060ff82169050919050565b82818337600083830152505050565b60005b8381101561322757808201518184015260208101905061320c565b83811115613236576000848401525b50505050565b6000600282049050600182168061325457607f821691505b6020821081141561326857613267613377565b5b50919050565b613277826133d5565b810181811067ffffffffffffffff82111715613296576132956133a6565b5b80604052505050565b60006132aa826131e3565b91507fffffffffffffffffffffffffffffffffffffffffffffffffffffffffffffffff8214156132dd576132dc613319565b5b600182019050919050565b60006132f3826131e3565b91506132fe836131e3565b92508261330e5761330d613348565b5b828206905092915050565b7f4e487b7100000000000000000000000000000000000000000000000000000000600052601160045260246000fd5b7f4e487b7100000000000000000000000000000000000000000000000000000000600052601260045260246000fd5b7f4e487b7100000000000000000000000000000000000000000000000000000000600052602260045260246000fd5b7f4e487b7100000000000000000000000000000000000000000000000000000000600052604160045260246000fd5b6000601f19601f8301169050919050565b7f4552433732313a207472616e7366657220746f206e6f6e20455243373231526560008201527f63656976657220696d706c656d656e7465720000000000000000000000000000602082015250565b7f4f776e61626c653a206e6577206f776e657220697320746865207a65726f206160008201527f6464726573730000000000000000000000000000000000000000000000000000602082015250565b7f4552433732313a20746f6b656e20616c7265616479206d696e74656400000000600082015250565b7f2e706e6700000000000000000000000000000000000000000000000000000000600082015250565b7f4552433732313a207472616e7366657220746f20746865207a65726f2061646460008201527f7265737300000000000000000000000000000000000000000000000000000000602082015250565b7f4552433732313a20617070726f766520746f2063616c6c657200000000000000600082015250565b7f4552433732313a206f70657261746f7220717565727920666f72206e6f6e657860008201527f697374656e7420746f6b656e0000000000000000000000000000000000000000602082015250565b7f4552433732313a20617070726f76652063616c6c6572206973206e6f74206f7760008201527f6e6572206e6f7220617070726f76656420666f7220616c6c0000000000000000602082015250565b7f4552433732313a2062616c616e636520717565727920666f7220746865207a6560008201527f726f206164647265737300000000000000000000000000000000000000000000602082015250565b7f4552433732313a206f776e657220717565727920666f72206e6f6e657869737460008201527f656e7420746f6b656e0000000000000000000000000000000000000000000000602082015250565b7f45524337323155524953746f726167653a2055524920736574206f66206e6f6e60008201527f6578697374656e7420746f6b656e000000000000000000000000000000000000602082015250565b7f4552433732313a206d696e7420746f20746865207a65726f2061646472657373600082015250565b7f45524337323155524953746f726167653a2055524920717565727920666f722060008201527f6e6f6e6578697374656e7420746f6b656e000000000000000000000000000000602082015250565b7f4552433732313a20617070726f76656420717565727920666f72206e6f6e657860008201527f697374656e7420746f6b656e0000000000000000000000000000000000000000602082015250565b7f4f776e61626c653a2063616c6c6572206973206e6f7420746865206f776e6572600082015250565b7f4552433732313a207472616e73666572206f6620746f6b656e2074686174206960008201527f73206e6f74206f776e0000000000000000000000000000000000000000000000602082015250565b7f4552433732314d657461646174613a2055524920717565727920666f72206e6f60008201527f6e6578697374656e7420746f6b656e0000000000000000000000000000000000602082015250565b7f4552433732313a20617070726f76616c20746f2063757272656e74206f776e6560008201527f7200000000000000000000000000000000000000000000000000000000000000602082015250565b7f4552433732313a207472616e736665722063616c6c6572206973206e6f74206f60008201527f776e6572206e6f7220617070726f766564000000000000000000000000000000602082015250565b7f4e465420616c7265616479206d696e7465642100000000000000000000000000600082015250565b7f4552433732314275726e61626c653a2063616c6c6572206973206e6f74206f7760008201527f6e6572206e6f7220617070726f76656400000000000000000000000000000000602082015250565b7f2f00000000000000000000000000000000000000000000000000000000000000600082015250565b7f4e65656420746f20706179207570000000000000000000000000000000000000600082015250565b6139d881613179565b81146139e357600080fd5b50565b6139ef8161318b565b81146139fa57600080fd5b50565b613a0681613197565b8114613a1157600080fd5b50565b613a1d816131e3565b8114613a2857600080fd5b5056fe697066733a2f2f516d5868665a334263426466775437745078784853635947355a7a44627133364e55646a4b46596d367754455a4aa26469706673582212201255b8a51a8811dd621c6c2e2281629ead01afe665460b426e5e7d77a707faff64736f6c63430008040033",
  "linkReferences": {},
  "deployedLinkReferences": {}
}