{
  "_format": "hh-sol-artifact-1",
  "contractName": "Minter",
  "sourceName": "contracts/Minter.sol",
  "abi": [
    {
      "inputs": [],
      "stateMutability": "nonpayable",
      "type": "constructor"
    },
    {
      "anonymous": false,
      "inputs": [
        {
          "indexed": true,
          "internalType": "address",
          "name": "owner",
          "type": "address"
        },
        {
          "indexed": true,
          "internalType": "address",
          "name": "approved",
          "type": "address"
        },
        {
          "indexed": true,
          "internalType": "uint256",
          "name": "tokenId",
          "type": "uint256"
        }
      ],
      "name": "Approval",
      "type": "event"
    },
    {
      "anonymous": false,
      "inputs": [
        {
          "indexed": true,
          "internalType": "address",
          "name": "owner",
          "type": "address"
        },
        {
          "indexed": true,
          "internalType": "address",
          "name": "operator",
          "type": "address"
        },
        {
          "indexed": false,
          "internalType": "bool",
          "name": "approved",
          "type": "bool"
        }
      ],
      "name": "ApprovalForAll",
      "type": "event"
    },
    {
      "anonymous": false,
      "inputs": [
        {
          "indexed": true,
          "internalType": "address",
          "name": "previousOwner",
          "type": "address"
        },
        {
          "indexed": true,
          "internalType": "address",
          "name": "newOwner",
          "type": "address"
        }
      ],
      "name": "OwnershipTransferred",
      "type": "event"
    },
    {
      "anonymous": false,
      "inputs": [
        {
          "indexed": true,
          "internalType": "address",
          "name": "from",
          "type": "address"
        },
        {
          "indexed": true,
          "internalType": "address",
          "name": "to",
          "type": "address"
        },
        {
          "indexed": true,
          "internalType": "uint256",
          "name": "tokenId",
          "type": "uint256"
        }
      ],
      "name": "Transfer",
      "type": "event"
    },
    {
      "inputs": [
        {
          "internalType": "address",
          "name": "to",
          "type": "address"
        },
        {
          "internalType": "uint256",
          "name": "tokenId",
          "type": "uint256"
        }
      ],
      "name": "approve",
      "outputs": [],
      "stateMutability": "nonpayable",
      "type": "function"
    },
    {
      "inputs": [
        {
          "internalType": "address",
          "name": "owner",
          "type": "address"
        }
      ],
      "name": "balanceOf",
      "outputs": [
        {
          "internalType": "uint256",
          "name": "",
          "type": "uint256"
        }
      ],
      "stateMutability": "view",
      "type": "function"
    },
    {
      "inputs": [
        {
          "internalType": "uint256",
          "name": "tokenId",
          "type": "uint256"
        }
      ],
      "name": "burn",
      "outputs": [],
      "stateMutability": "nonpayable",
      "type": "function"
    },
    {
      "inputs": [],
      "name": "count",
      "outputs": [
        {
          "internalType": "uint256",
          "name": "",
          "type": "uint256"
        }
      ],
      "stateMutability": "view",
      "type": "function"
    },
    {
      "inputs": [
        {
          "internalType": "string",
          "name": "",
          "type": "string"
        }
      ],
      "name": "existingURIs",
      "outputs": [
        {
          "internalType": "uint8",
          "name": "",
          "type": "uint8"
        }
      ],
      "stateMutability": "view",
      "type": "function"
    },
    {
      "inputs": [
        {
          "internalType": "uint256",
          "name": "tokenId",
          "type": "uint256"
        }
      ],
      "name": "getApproved",
      "outputs": [
        {
          "internalType": "address",
          "name": "",
          "type": "address"
        }
      ],
      "stateMutability": "view",
      "type": "function"
    },
    {
      "inputs": [
        {
          "internalType": "address",
          "name": "owner",
          "type": "address"
        },
        {
          "internalType": "address",
          "name": "operator",
          "type": "address"
        }
      ],
      "name": "isApprovedForAll",
      "outputs": [
        {
          "internalType": "bool",
          "name": "",
          "type": "bool"
        }
      ],
      "stateMutability": "view",
      "type": "function"
    },
    {
      "inputs": [
        {
          "internalType": "string",
          "name": "uri",
          "type": "string"
        }
      ],
      "name": "isContentOwned",
      "outputs": [
        {
          "internalType": "bool",
          "name": "",
          "type": "bool"
        }
      ],
      "stateMutability": "view",
      "type": "function"
    },
    {
      "inputs": [],
      "name": "mintValue",
      "outputs": [
        {
          "internalType": "uint256",
          "name": "",
          "type": "uint256"
        }
      ],
      "stateMutability": "view",
      "type": "function"
    },
    {
      "inputs": [],
      "name": "name",
      "outputs": [
        {
          "internalType": "string",
          "name": "",
          "type": "string"
        }
      ],
      "stateMutability": "view",
      "type": "function"
    },
    {
      "inputs": [],
      "name": "owner",
      "outputs": [
        {
          "internalType": "address",
          "name": "",
          "type": "address"
        }
      ],
      "stateMutability": "view",
      "type": "function"
    },
    {
      "inputs": [
        {
          "internalType": "uint256",
          "name": "tokenId",
          "type": "uint256"
        }
      ],
      "name": "ownerOf",
      "outputs": [
        {
          "internalType": "address",
          "name": "",
          "type": "address"
        }
      ],
      "stateMutability": "view",
      "type": "function"
    },
    {
      "inputs": [
        {
          "internalType": "address",
          "name": "to",
          "type": "address"
        },
        {
          "internalType": "string",
          "name": "uri",
          "type": "string"
        }
      ],
      "name": "payToMint",
      "outputs": [
        {
          "internalType": "uint256",
          "name": "",
          "type": "uint256"
        }
      ],
      "stateMutability": "payable",
      "type": "function"
    },
    {
      "inputs": [],
      "name": "renounceOwnership",
      "outputs": [],
      "stateMutability": "nonpayable",
      "type": "function"
    },
    {
      "inputs": [
        {
          "internalType": "address",
          "name": "to",
          "type": "address"
        },
        {
          "internalType": "string",
          "name": "uri",
          "type": "string"
        }
      ],
      "name": "safeMint",
      "outputs": [],
      "stateMutability": "nonpayable",
      "type": "function"
    },
    {
      "inputs": [
        {
          "internalType": "address",
          "name": "from",
          "type": "address"
        },
        {
          "internalType": "address",
          "name": "to",
          "type": "address"
        },
        {
          "internalType": "uint256",
          "name": "tokenId",
          "type": "uint256"
        }
      ],
      "name": "safeTransferFrom",
      "outputs": [],
      "stateMutability": "nonpayable",
      "type": "function"
    },
    {
      "inputs": [
        {
          "internalType": "address",
          "name": "from",
          "type": "address"
        },
        {
          "internalType": "address",
          "name": "to",
          "type": "address"
        },
        {
          "internalType": "uint256",
          "name": "tokenId",
          "type": "uint256"
        },
        {
          "internalType": "bytes",
          "name": "_data",
          "type": "bytes"
        }
      ],
      "name": "safeTransferFrom",
      "outputs": [],
      "stateMutability": "nonpayable",
      "type": "function"
    },
    {
      "inputs": [
        {
          "internalType": "address",
          "name": "operator",
          "type": "address"
        },
        {
          "internalType": "bool",
          "name": "approved",
          "type": "bool"
        }
      ],
      "name": "setApprovalForAll",
      "outputs": [],
      "stateMutability": "nonpayable",
      "type": "function"
    },
    {
      "inputs": [
        {
          "internalType": "uint256",
          "name": "_mintValue",
          "type": "uint256"
        }
      ],
      "name": "setMintValue",
      "outputs": [],
      "stateMutability": "nonpayable",
      "type": "function"
    },
    {
      "inputs": [
        {
          "internalType": "bytes4",
          "name": "interfaceId",
          "type": "bytes4"
        }
      ],
      "name": "supportsInterface",
      "outputs": [
        {
          "internalType": "bool",
          "name": "",
          "type": "bool"
        }
      ],
      "stateMutability": "view",
      "type": "function"
    },
    {
      "inputs": [],
      "name": "symbol",
      "outputs": [
        {
          "internalType": "string",
          "name": "",
          "type": "string"
        }
      ],
      "stateMutability": "view",
      "type": "function"
    },
    {
      "inputs": [
        {
          "internalType": "uint256",
          "name": "tokenId",
          "type": "uint256"
        }
      ],
      "name": "tokenURI",
      "outputs": [
        {
          "internalType": "string",
          "name": "",
          "type": "string"
        }
      ],
      "stateMutability": "view",
      "type": "function"
    },
    {
      "inputs": [
        {
          "internalType": "address",
          "name": "from",
          "type": "address"
        },
        {
          "internalType": "address",
          "name": "to",
          "type": "address"
        },
        {
          "internalType": "uint256",
          "name": "tokenId",
          "type": "uint256"
        }
      ],
      "name": "transferFrom",
      "outputs": [],
      "stateMutability": "nonpayable",
      "type": "function"
    },
    {
      "inputs": [
        {
          "internalType": "address",
          "name": "newOwner",
          "type": "address"
        }
      ],
      "name": "transferOwnership",
      "outputs": [],
      "stateMutability": "nonpayable",
      "type": "function"
    },
    {
      "inputs": [],
      "name": "withdraw",
      "outputs": [],
      "stateMutability": "nonpayable",
      "type": "function"
    }
  ],
  "bytecode": "0x60806040523480156200001157600080fd5b506040518060400160405280600681526020017f4d696e74657200000000000000000000000000000000000000000000000000008152506040518060400160405280600381526020017f4d494e0000000000000000000000000000000000000000000000000000000000815250816000908051906020019062000096929190620001b4565b508060019080519060200190620000af929190620001b4565b505050620000d2620000c6620000e660201b60201c565b620000ee60201b60201c565b66b1a2bc2ec50000600981905550620002c9565b600033905090565b6000600760009054906101000a900473ffffffffffffffffffffffffffffffffffffffff16905081600760006101000a81548173ffffffffffffffffffffffffffffffffffffffff021916908373ffffffffffffffffffffffffffffffffffffffff1602179055508173ffffffffffffffffffffffffffffffffffffffff168173ffffffffffffffffffffffffffffffffffffffff167f8be0079c531659141344cd1fd0a4f28419497f9722a3daafe3b4186f6b6457e060405160405180910390a35050565b828054620001c29062000264565b90600052602060002090601f016020900481019282620001e6576000855562000232565b82601f106200020157805160ff191683800117855562000232565b8280016001018555821562000232579182015b828111156200023157825182559160200191906001019062000214565b5b50905062000241919062000245565b5090565b5b808211156200026057600081600090555060010162000246565b5090565b600060028204905060018216806200027d57607f821691505b602082108114156200029457620002936200029a565b5b50919050565b7f4e487b7100000000000000000000000000000000000000000000000000000000600052602260045260246000fd5b6139e580620002d96000396000f3fe6080604052600436106101665760003560e01c8063715018a6116100d1578063b88d4fde1161008a578063d204c45e11610064578063d204c45e1461052d578063e985e9c514610556578063f2fde38b14610593578063f37971df146105bc57610166565b8063b88d4fde1461049e578063c01031c0146104c7578063c87b56dd146104f057610166565b8063715018a6146103a057806389c77dfe146103b75780638da5cb5b146103e257806395d89b411461040d5780639f1cabc614610438578063a22cb4651461047557610166565b80633ccfd60b116101235780633ccfd60b1461028d57806342842e0e146102a457806342966c68146102cd578063615fd9e2146102f65780636352211e1461032657806370a082311461036357610166565b806301ffc9a71461016b57806306661abd146101a857806306fdde03146101d3578063081812fc146101fe578063095ea7b31461023b57806323b872dd14610264575b600080fd5b34801561017757600080fd5b50610192600480360381019061018d919061279b565b6105f9565b60405161019f9190612cb7565b60405180910390f35b3480156101b457600080fd5b506101bd6106db565b6040516101ca9190612f94565b60405180910390f35b3480156101df57600080fd5b506101e86106ec565b6040516101f59190612cd2565b60405180910390f35b34801561020a57600080fd5b506102256004803603810190610220919061282e565b61077e565b6040516102329190612c50565b60405180910390f35b34801561024757600080fd5b50610262600480360381019061025d919061275f565b610803565b005b34801561027057600080fd5b5061028b60048036038101906102869190612605565b61091b565b005b34801561029957600080fd5b506102a261097b565b005b3480156102b057600080fd5b506102cb60048036038101906102c69190612605565b610a40565b005b3480156102d957600080fd5b506102f460048036038101906102ef919061282e565b610a60565b005b610310600480360381019061030b919061270b565b610abc565b60405161031d9190612f94565b60405180910390f35b34801561033257600080fd5b5061034d6004803603810190610348919061282e565b610b15565b60405161035a9190612c50565b60405180910390f35b34801561036f57600080fd5b5061038a600480360381019061038591906125a0565b610bc7565b6040516103979190612f94565b60405180910390f35b3480156103ac57600080fd5b506103b5610c7f565b005b3480156103c357600080fd5b506103cc610d07565b6040516103d99190612f94565b60405180910390f35b3480156103ee57600080fd5b506103f7610d0d565b6040516104049190612c50565b60405180910390f35b34801561041957600080fd5b50610422610d37565b60405161042f9190612cd2565b60405180910390f35b34801561044457600080fd5b5061045f600480360381019061045a91906127ed565b610dc9565b60405161046c9190612cb7565b60405180910390f35b34801561048157600080fd5b5061049c600480360381019061049791906126cf565b610e04565b005b3480156104aa57600080fd5b506104c560048036038101906104c09190612654565b610e1a565b005b3480156104d357600080fd5b506104ee60048036038101906104e9919061282e565b610e7c565b005b3480156104fc57600080fd5b506105176004803603810190610512919061282e565b610f02565b6040516105249190612cd2565b60405180910390f35b34801561053957600080fd5b50610554600480360381019061054f919061270b565b610f14565b005b34801561056257600080fd5b5061057d600480360381019061057891906125c9565b610f9f565b60405161058a9190612cb7565b60405180910390f35b34801561059f57600080fd5b506105ba60048036038101906105b591906125a0565b611033565b005b3480156105c857600080fd5b506105e360048036038101906105de91906127ed565b61112b565b6040516105f09190612faf565b60405180910390f35b60007f80ac58cd000000000000000000000000000000000000000000000000000000007bffffffffffffffffffffffffffffffffffffffffffffffffffffffff1916827bffffffffffffffffffffffffffffffffffffffffffffffffffffffff191614806106c457507f5b5e139f000000000000000000000000000000000000000000000000000000007bffffffffffffffffffffffffffffffffffffffffffffffffffffffff1916827bffffffffffffffffffffffffffffffffffffffffffffffffffffffff1916145b806106d457506106d382611161565b5b9050919050565b60006106e760086111cb565b905090565b6060600080546106fb90613212565b80601f016020809104026020016040519081016040528092919081815260200182805461072790613212565b80156107745780601f1061074957610100808354040283529160200191610774565b820191906000526020600020905b81548152906001019060200180831161075757829003601f168201915b5050505050905090565b6000610789826111d9565b6107c8576040517f08c379a00000000000000000000000000000000000000000000000000000000081526004016107bf90612e74565b60405180910390fd5b6004600083815260200190815260200160002060009054906101000a900473ffffffffffffffffffffffffffffffffffffffff169050919050565b600061080e82610b15565b90508073ffffffffffffffffffffffffffffffffffffffff168373ffffffffffffffffffffffffffffffffffffffff16141561087f576040517f08c379a000000000000000000000000000000000000000000000000000000000815260040161087690612ef4565b60405180910390fd5b8073ffffffffffffffffffffffffffffffffffffffff1661089e611245565b73ffffffffffffffffffffffffffffffffffffffff1614806108cd57506108cc816108c7611245565b610f9f565b5b61090c576040517f08c379a000000000000000000000000000000000000000000000000000000000815260040161090390612db4565b60405180910390fd5b610916838361124d565b505050565b61092c610926611245565b82611306565b61096b576040517f08c379a000000000000000000000000000000000000000000000000000000000815260040161096290612f14565b60405180910390fd5b6109768383836113e4565b505050565b610983611245565b73ffffffffffffffffffffffffffffffffffffffff166109a1610d0d565b73ffffffffffffffffffffffffffffffffffffffff16146109f7576040517f08c379a00000000000000000000000000000000000000000000000000000000081526004016109ee90612e94565b60405180910390fd5b3073ffffffffffffffffffffffffffffffffffffffff166108fc479081150290604051600060405180830381858888f19350505050158015610a3d573d6000803e3d6000fd5b50565b610a5b83838360405180602001604052806000815250610e1a565b505050565b610a71610a6b611245565b82611306565b610ab0576040517f08c379a0000000000000000000000000000000000000000000000000000000008152600401610aa790612f54565b60405180910390fd5b610ab981611640565b50565b6000600954341015610b03576040517f08c379a0000000000000000000000000000000000000000000000000000000008152600401610afa90612f74565b60405180910390fd5b610b0d838361164c565b905092915050565b6000806002600084815260200190815260200160002060009054906101000a900473ffffffffffffffffffffffffffffffffffffffff169050600073ffffffffffffffffffffffffffffffffffffffff168173ffffffffffffffffffffffffffffffffffffffff161415610bbe576040517f08c379a0000000000000000000000000000000000000000000000000000000008152600401610bb590612df4565b60405180910390fd5b80915050919050565b60008073ffffffffffffffffffffffffffffffffffffffff168273ffffffffffffffffffffffffffffffffffffffff161415610c38576040517f08c379a0000000000000000000000000000000000000000000000000000000008152600401610c2f90612dd4565b60405180910390fd5b600360008373ffffffffffffffffffffffffffffffffffffffff1673ffffffffffffffffffffffffffffffffffffffff168152602001908152602001600020549050919050565b610c87611245565b73ffffffffffffffffffffffffffffffffffffffff16610ca5610d0d565b73ffffffffffffffffffffffffffffffffffffffff1614610cfb576040517f08c379a0000000000000000000000000000000000000000000000000000000008152600401610cf290612e94565b60405180910390fd5b610d05600061172e565b565b60095481565b6000600760009054906101000a900473ffffffffffffffffffffffffffffffffffffffff16905090565b606060018054610d4690613212565b80601f0160208091040260200160405190810160405280929190818152602001828054610d7290613212565b8015610dbf5780601f10610d9457610100808354040283529160200191610dbf565b820191906000526020600020905b815481529060010190602001808311610da257829003601f168201915b5050505050905090565b60006001600a83604051610ddd9190612c15565b908152602001604051809103902060009054906101000a900460ff1660ff16149050919050565b610e16610e0f611245565b83836117f4565b5050565b610e2b610e25611245565b83611306565b610e6a576040517f08c379a0000000000000000000000000000000000000000000000000000000008152600401610e6190612f14565b60405180910390fd5b610e7684848484611961565b50505050565b610e84611245565b73ffffffffffffffffffffffffffffffffffffffff16610ea2610d0d565b73ffffffffffffffffffffffffffffffffffffffff1614610ef8576040517f08c379a0000000000000000000000000000000000000000000000000000000008152600401610eef90612e94565b60405180910390fd5b8060098190555050565b6060610f0d826119bd565b9050919050565b610f1c611245565b73ffffffffffffffffffffffffffffffffffffffff16610f3a610d0d565b73ffffffffffffffffffffffffffffffffffffffff1614610f90576040517f08c379a0000000000000000000000000000000000000000000000000000000008152600401610f8790612e94565b60405180910390fd5b610f9a828261164c565b505050565b6000600560008473ffffffffffffffffffffffffffffffffffffffff1673ffffffffffffffffffffffffffffffffffffffff16815260200190815260200160002060008373ffffffffffffffffffffffffffffffffffffffff1673ffffffffffffffffffffffffffffffffffffffff16815260200190815260200160002060009054906101000a900460ff16905092915050565b61103b611245565b73ffffffffffffffffffffffffffffffffffffffff16611059610d0d565b73ffffffffffffffffffffffffffffffffffffffff16146110af576040517f08c379a00000000000000000000000000000000000000000000000000000000081526004016110a690612e94565b60405180910390fd5b600073ffffffffffffffffffffffffffffffffffffffff168173ffffffffffffffffffffffffffffffffffffffff16141561111f576040517f08c379a000000000000000000000000000000000000000000000000000000000815260040161111690612d14565b60405180910390fd5b6111288161172e565b50565b600a818051602081018201805184825260208301602085012081835280955050505050506000915054906101000a900460ff1681565b60007f01ffc9a7000000000000000000000000000000000000000000000000000000007bffffffffffffffffffffffffffffffffffffffffffffffffffffffff1916827bffffffffffffffffffffffffffffffffffffffffffffffffffffffff1916149050919050565b600081600001549050919050565b60008073ffffffffffffffffffffffffffffffffffffffff166002600084815260200190815260200160002060009054906101000a900473ffffffffffffffffffffffffffffffffffffffff1673ffffffffffffffffffffffffffffffffffffffff1614159050919050565b600033905090565b816004600083815260200190815260200160002060006101000a81548173ffffffffffffffffffffffffffffffffffffffff021916908373ffffffffffffffffffffffffffffffffffffffff160217905550808273ffffffffffffffffffffffffffffffffffffffff166112c083610b15565b73ffffffffffffffffffffffffffffffffffffffff167f8c5be1e5ebec7d5bd14f71427d1e84f3dd0314c0f7b2291e5b200ac8c7c3b92560405160405180910390a45050565b6000611311826111d9565b611350576040517f08c379a000000000000000000000000000000000000000000000000000000000815260040161134790612d94565b60405180910390fd5b600061135b83610b15565b90508073ffffffffffffffffffffffffffffffffffffffff168473ffffffffffffffffffffffffffffffffffffffff1614806113ca57508373ffffffffffffffffffffffffffffffffffffffff166113b28461077e565b73ffffffffffffffffffffffffffffffffffffffff16145b806113db57506113da8185610f9f565b5b91505092915050565b8273ffffffffffffffffffffffffffffffffffffffff1661140482610b15565b73ffffffffffffffffffffffffffffffffffffffff161461145a576040517f08c379a000000000000000000000000000000000000000000000000000000000815260040161145190612eb4565b60405180910390fd5b600073ffffffffffffffffffffffffffffffffffffffff168273ffffffffffffffffffffffffffffffffffffffff1614156114ca576040517f08c379a00000000000000000000000000000000000000000000000000000000081526004016114c190612d54565b60405180910390fd5b6114d5838383611b0f565b6114e060008261124d565b6001600360008573ffffffffffffffffffffffffffffffffffffffff1673ffffffffffffffffffffffffffffffffffffffff1681526020019081526020016000206000828254611530919061311b565b925050819055506001600360008473ffffffffffffffffffffffffffffffffffffffff1673ffffffffffffffffffffffffffffffffffffffff16815260200190815260200160002060008282546115879190613094565b92505081905550816002600083815260200190815260200160002060006101000a81548173ffffffffffffffffffffffffffffffffffffffff021916908373ffffffffffffffffffffffffffffffffffffffff160217905550808273ffffffffffffffffffffffffffffffffffffffff168473ffffffffffffffffffffffffffffffffffffffff167fddf252ad1be2c89b69c2b068fc378daa952ba7f163c4a11628f55a4df523b3ef60405160405180910390a4505050565b61164981611b14565b50565b60006001600a836040516116609190612c15565b908152602001604051809103902060009054906101000a900460ff1660ff1614156116c0576040517f08c379a00000000000000000000000000000000000000000000000000000000081526004016116b790612f34565b60405180910390fd5b60006116cc60086111cb565b90506116d86008611b67565b6001600a846040516116ea9190612c15565b908152602001604051809103902060006101000a81548160ff021916908360ff16021790555061171a8482611b7d565b6117248184611b9b565b8091505092915050565b6000600760009054906101000a900473ffffffffffffffffffffffffffffffffffffffff16905081600760006101000a81548173ffffffffffffffffffffffffffffffffffffffff021916908373ffffffffffffffffffffffffffffffffffffffff1602179055508173ffffffffffffffffffffffffffffffffffffffff168173ffffffffffffffffffffffffffffffffffffffff167f8be0079c531659141344cd1fd0a4f28419497f9722a3daafe3b4186f6b6457e060405160405180910390a35050565b8173ffffffffffffffffffffffffffffffffffffffff168373ffffffffffffffffffffffffffffffffffffffff161415611863576040517f08c379a000000000000000000000000000000000000000000000000000000000815260040161185a90612d74565b60405180910390fd5b80600560008573ffffffffffffffffffffffffffffffffffffffff1673ffffffffffffffffffffffffffffffffffffffff16815260200190815260200160002060008473ffffffffffffffffffffffffffffffffffffffff1673ffffffffffffffffffffffffffffffffffffffff16815260200190815260200160002060006101000a81548160ff0219169083151502179055508173ffffffffffffffffffffffffffffffffffffffff168373ffffffffffffffffffffffffffffffffffffffff167f17307eab39ab6107e8899845ad3d59bd9653f200f220920489ca2b5937696c31836040516119549190612cb7565b60405180910390a3505050565b61196c8484846113e4565b61197884848484611c0f565b6119b7576040517f08c379a00000000000000000000000000000000000000000000000000000000081526004016119ae90612cf4565b60405180910390fd5b50505050565b60606119c8826111d9565b611a07576040517f08c379a00000000000000000000000000000000000000000000000000000000081526004016119fe90612e54565b60405180910390fd5b6000600660008481526020019081526020016000208054611a2790613212565b80601f0160208091040260200160405190810160405280929190818152602001828054611a5390613212565b8015611aa05780601f10611a7557610100808354040283529160200191611aa0565b820191906000526020600020905b815481529060010190602001808311611a8357829003601f168201915b505050505090506000611ab1611da6565b9050600081511415611ac7578192505050611b0a565b600082511115611afc578082604051602001611ae4929190612c2c565b60405160208183030381529060405292505050611b0a565b611b0584611de3565b925050505b919050565b505050565b611b1d81611e8a565b6000600660008381526020019081526020016000208054611b3d90613212565b905014611b6457600660008281526020019081526020016000206000611b639190612384565b5b50565b6001816000016000828254019250508190555050565b611b97828260405180602001604052806000815250611f9b565b5050565b611ba4826111d9565b611be3576040517f08c379a0000000000000000000000000000000000000000000000000000000008152600401611bda90612e14565b60405180910390fd5b80600660008481526020019081526020016000209080519060200190611c0a9291906123c4565b505050565b6000611c308473ffffffffffffffffffffffffffffffffffffffff16611ff6565b15611d99578373ffffffffffffffffffffffffffffffffffffffff1663150b7a02611c59611245565b8786866040518563ffffffff1660e01b8152600401611c7b9493929190612c6b565b602060405180830381600087803b158015611c9557600080fd5b505af1925050508015611cc657506040513d601f19601f82011682018060405250810190611cc391906127c4565b60015b611d49573d8060008114611cf6576040519150601f19603f3d011682016040523d82523d6000602084013e611cfb565b606091505b50600081511415611d41576040517f08c379a0000000000000000000000000000000000000000000000000000000008152600401611d3890612cf4565b60405180910390fd5b805181602001fd5b63150b7a0260e01b7bffffffffffffffffffffffffffffffffffffffffffffffffffffffff1916817bffffffffffffffffffffffffffffffffffffffffffffffffffffffff191614915050611d9e565b600190505b949350505050565b60606040518060400160405280600781526020017f697066733a2f2f00000000000000000000000000000000000000000000000000815250905090565b6060611dee826111d9565b611e2d576040517f08c379a0000000000000000000000000000000000000000000000000000000008152600401611e2490612ed4565b60405180910390fd5b6000611e37611da6565b90506000815111611e575760405180602001604052806000815250611e82565b80611e6184612009565b604051602001611e72929190612c2c565b6040516020818303038152906040525b915050919050565b6000611e9582610b15565b9050611ea381600084611b0f565b611eae60008361124d565b6001600360008373ffffffffffffffffffffffffffffffffffffffff1673ffffffffffffffffffffffffffffffffffffffff1681526020019081526020016000206000828254611efe919061311b565b925050819055506002600083815260200190815260200160002060006101000a81549073ffffffffffffffffffffffffffffffffffffffff021916905581600073ffffffffffffffffffffffffffffffffffffffff168273ffffffffffffffffffffffffffffffffffffffff167fddf252ad1be2c89b69c2b068fc378daa952ba7f163c4a11628f55a4df523b3ef60405160405180910390a45050565b611fa583836121b6565b611fb26000848484611c0f565b611ff1576040517f08c379a0000000000000000000000000000000000000000000000000000000008152600401611fe890612cf4565b60405180910390fd5b505050565b600080823b905060008111915050919050565b60606000821415612051576040518060400160405280600181526020017f300000000000000000000000000000000000000000000000000000000000000081525090506121b1565b600082905060005b6000821461208357808061206c90613275565b915050600a8261207c91906130ea565b9150612059565b60008167ffffffffffffffff8111156120c5577f4e487b7100000000000000000000000000000000000000000000000000000000600052604160045260246000fd5b6040519080825280601f01601f1916602001820160405280156120f75781602001600182028036833780820191505090505b5090505b600085146121aa57600182612110919061311b565b9150600a8561211f91906132be565b603061212b9190613094565b60f81b818381518110612167577f4e487b7100000000000000000000000000000000000000000000000000000000600052603260045260246000fd5b60200101907effffffffffffffffffffffffffffffffffffffffffffffffffffffffffffff1916908160001a905350600a856121a391906130ea565b94506120fb565b8093505050505b919050565b600073ffffffffffffffffffffffffffffffffffffffff168273ffffffffffffffffffffffffffffffffffffffff161415612226576040517f08c379a000000000000000000000000000000000000000000000000000000000815260040161221d90612e34565b60405180910390fd5b61222f816111d9565b1561226f576040517f08c379a000000000000000000000000000000000000000000000000000000000815260040161226690612d34565b60405180910390fd5b61227b60008383611b0f565b6001600360008473ffffffffffffffffffffffffffffffffffffffff1673ffffffffffffffffffffffffffffffffffffffff16815260200190815260200160002060008282546122cb9190613094565b92505081905550816002600083815260200190815260200160002060006101000a81548173ffffffffffffffffffffffffffffffffffffffff021916908373ffffffffffffffffffffffffffffffffffffffff160217905550808273ffffffffffffffffffffffffffffffffffffffff16600073ffffffffffffffffffffffffffffffffffffffff167fddf252ad1be2c89b69c2b068fc378daa952ba7f163c4a11628f55a4df523b3ef60405160405180910390a45050565b50805461239090613212565b6000825580601f106123a257506123c1565b601f0160209004906000526020600020908101906123c0919061244a565b5b50565b8280546123d090613212565b90600052602060002090601f0160209004810192826123f25760008555612439565b82601f1061240b57805160ff1916838001178555612439565b82800160010185558215612439579182015b8281111561243857825182559160200191906001019061241d565b5b509050612446919061244a565b5090565b5b8082111561246357600081600090555060010161244b565b5090565b600061247a61247584612fef565b612fca565b90508281526020810184848401111561249257600080fd5b61249d8482856131d0565b509392505050565b60006124b86124b384613020565b612fca565b9050828152602081018484840111156124d057600080fd5b6124db8482856131d0565b509392505050565b6000813590506124f281613953565b92915050565b6000813590506125078161396a565b92915050565b60008135905061251c81613981565b92915050565b60008151905061253181613981565b92915050565b600082601f83011261254857600080fd5b8135612558848260208601612467565b91505092915050565b600082601f83011261257257600080fd5b81356125828482602086016124a5565b91505092915050565b60008135905061259a81613998565b92915050565b6000602082840312156125b257600080fd5b60006125c0848285016124e3565b91505092915050565b600080604083850312156125dc57600080fd5b60006125ea858286016124e3565b92505060206125fb858286016124e3565b9150509250929050565b60008060006060848603121561261a57600080fd5b6000612628868287016124e3565b9350506020612639868287016124e3565b925050604061264a8682870161258b565b9150509250925092565b6000806000806080858703121561266a57600080fd5b6000612678878288016124e3565b9450506020612689878288016124e3565b935050604061269a8782880161258b565b925050606085013567ffffffffffffffff8111156126b757600080fd5b6126c387828801612537565b91505092959194509250565b600080604083850312156126e257600080fd5b60006126f0858286016124e3565b9250506020612701858286016124f8565b9150509250929050565b6000806040838503121561271e57600080fd5b600061272c858286016124e3565b925050602083013567ffffffffffffffff81111561274957600080fd5b61275585828601612561565b9150509250929050565b6000806040838503121561277257600080fd5b6000612780858286016124e3565b92505060206127918582860161258b565b9150509250929050565b6000602082840312156127ad57600080fd5b60006127bb8482850161250d565b91505092915050565b6000602082840312156127d657600080fd5b60006127e484828501612522565b91505092915050565b6000602082840312156127ff57600080fd5b600082013567ffffffffffffffff81111561281957600080fd5b61282584828501612561565b91505092915050565b60006020828403121561284057600080fd5b600061284e8482850161258b565b91505092915050565b6128608161314f565b82525050565b61286f81613161565b82525050565b600061288082613051565b61288a8185613067565b935061289a8185602086016131df565b6128a3816133ab565b840191505092915050565b60006128b98261305c565b6128c38185613078565b93506128d38185602086016131df565b6128dc816133ab565b840191505092915050565b60006128f28261305c565b6128fc8185613089565b935061290c8185602086016131df565b80840191505092915050565b6000612925603283613078565b9150612930826133bc565b604082019050919050565b6000612948602683613078565b91506129538261340b565b604082019050919050565b600061296b601c83613078565b91506129768261345a565b602082019050919050565b600061298e602483613078565b915061299982613483565b604082019050919050565b60006129b1601983613078565b91506129bc826134d2565b602082019050919050565b60006129d4602c83613078565b91506129df826134fb565b604082019050919050565b60006129f7603883613078565b9150612a028261354a565b604082019050919050565b6000612a1a602a83613078565b9150612a2582613599565b604082019050919050565b6000612a3d602983613078565b9150612a48826135e8565b604082019050919050565b6000612a60602e83613078565b9150612a6b82613637565b604082019050919050565b6000612a83602083613078565b9150612a8e82613686565b602082019050919050565b6000612aa6603183613078565b9150612ab1826136af565b604082019050919050565b6000612ac9602c83613078565b9150612ad4826136fe565b604082019050919050565b6000612aec602083613078565b9150612af78261374d565b602082019050919050565b6000612b0f602983613078565b9150612b1a82613776565b604082019050919050565b6000612b32602f83613078565b9150612b3d826137c5565b604082019050919050565b6000612b55602183613078565b9150612b6082613814565b604082019050919050565b6000612b78603183613078565b9150612b8382613863565b604082019050919050565b6000612b9b601383613078565b9150612ba6826138b2565b602082019050919050565b6000612bbe603083613078565b9150612bc9826138db565b604082019050919050565b6000612be1600e83613078565b9150612bec8261392a565b602082019050919050565b612c00816131b9565b82525050565b612c0f816131c3565b82525050565b6000612c2182846128e7565b915081905092915050565b6000612c3882856128e7565b9150612c4482846128e7565b91508190509392505050565b6000602082019050612c656000830184612857565b92915050565b6000608082019050612c806000830187612857565b612c8d6020830186612857565b612c9a6040830185612bf7565b8181036060830152612cac8184612875565b905095945050505050565b6000602082019050612ccc6000830184612866565b92915050565b60006020820190508181036000830152612cec81846128ae565b905092915050565b60006020820190508181036000830152612d0d81612918565b9050919050565b60006020820190508181036000830152612d2d8161293b565b9050919050565b60006020820190508181036000830152612d4d8161295e565b9050919050565b60006020820190508181036000830152612d6d81612981565b9050919050565b60006020820190508181036000830152612d8d816129a4565b9050919050565b60006020820190508181036000830152612dad816129c7565b9050919050565b60006020820190508181036000830152612dcd816129ea565b9050919050565b60006020820190508181036000830152612ded81612a0d565b9050919050565b60006020820190508181036000830152612e0d81612a30565b9050919050565b60006020820190508181036000830152612e2d81612a53565b9050919050565b60006020820190508181036000830152612e4d81612a76565b9050919050565b60006020820190508181036000830152612e6d81612a99565b9050919050565b60006020820190508181036000830152612e8d81612abc565b9050919050565b60006020820190508181036000830152612ead81612adf565b9050919050565b60006020820190508181036000830152612ecd81612b02565b9050919050565b60006020820190508181036000830152612eed81612b25565b9050919050565b60006020820190508181036000830152612f0d81612b48565b9050919050565b60006020820190508181036000830152612f2d81612b6b565b9050919050565b60006020820190508181036000830152612f4d81612b8e565b9050919050565b60006020820190508181036000830152612f6d81612bb1565b9050919050565b60006020820190508181036000830152612f8d81612bd4565b9050919050565b6000602082019050612fa96000830184612bf7565b92915050565b6000602082019050612fc46000830184612c06565b92915050565b6000612fd4612fe5565b9050612fe08282613244565b919050565b6000604051905090565b600067ffffffffffffffff82111561300a5761300961337c565b5b613013826133ab565b9050602081019050919050565b600067ffffffffffffffff82111561303b5761303a61337c565b5b613044826133ab565b9050602081019050919050565b600081519050919050565b600081519050919050565b600082825260208201905092915050565b600082825260208201905092915050565b600081905092915050565b600061309f826131b9565b91506130aa836131b9565b9250827fffffffffffffffffffffffffffffffffffffffffffffffffffffffffffffffff038211156130df576130de6132ef565b5b828201905092915050565b60006130f5826131b9565b9150613100836131b9565b9250826131105761310f61331e565b5b828204905092915050565b6000613126826131b9565b9150613131836131b9565b925082821015613144576131436132ef565b5b828203905092915050565b600061315a82613199565b9050919050565b60008115159050919050565b60007fffffffff0000000000000000000000000000000000000000000000000000000082169050919050565b600073ffffffffffffffffffffffffffffffffffffffff82169050919050565b6000819050919050565b600060ff82169050919050565b82818337600083830152505050565b60005b838110156131fd5780820151818401526020810190506131e2565b8381111561320c576000848401525b50505050565b6000600282049050600182168061322a57607f821691505b6020821081141561323e5761323d61334d565b5b50919050565b61324d826133ab565b810181811067ffffffffffffffff8211171561326c5761326b61337c565b5b80604052505050565b6000613280826131b9565b91507fffffffffffffffffffffffffffffffffffffffffffffffffffffffffffffffff8214156132b3576132b26132ef565b5b600182019050919050565b60006132c9826131b9565b91506132d4836131b9565b9250826132e4576132e361331e565b5b828206905092915050565b7f4e487b7100000000000000000000000000000000000000000000000000000000600052601160045260246000fd5b7f4e487b7100000000000000000000000000000000000000000000000000000000600052601260045260246000fd5b7f4e487b7100000000000000000000000000000000000000000000000000000000600052602260045260246000fd5b7f4e487b7100000000000000000000000000000000000000000000000000000000600052604160045260246000fd5b6000601f19601f8301169050919050565b7f4552433732313a207472616e7366657220746f206e6f6e20455243373231526560008201527f63656976657220696d706c656d656e7465720000000000000000000000000000602082015250565b7f4f776e61626c653a206e6577206f776e657220697320746865207a65726f206160008201527f6464726573730000000000000000000000000000000000000000000000000000602082015250565b7f4552433732313a20746f6b656e20616c7265616479206d696e74656400000000600082015250565b7f4552433732313a207472616e7366657220746f20746865207a65726f2061646460008201527f7265737300000000000000000000000000000000000000000000000000000000602082015250565b7f4552433732313a20617070726f766520746f2063616c6c657200000000000000600082015250565b7f4552433732313a206f70657261746f7220717565727920666f72206e6f6e657860008201527f697374656e7420746f6b656e0000000000000000000000000000000000000000602082015250565b7f4552433732313a20617070726f76652063616c6c6572206973206e6f74206f7760008201527f6e6572206e6f7220617070726f76656420666f7220616c6c0000000000000000602082015250565b7f4552433732313a2062616c616e636520717565727920666f7220746865207a6560008201527f726f206164647265737300000000000000000000000000000000000000000000602082015250565b7f4552433732313a206f776e657220717565727920666f72206e6f6e657869737460008201527f656e7420746f6b656e0000000000000000000000000000000000000000000000602082015250565b7f45524337323155524953746f726167653a2055524920736574206f66206e6f6e60008201527f6578697374656e7420746f6b656e000000000000000000000000000000000000602082015250565b7f4552433732313a206d696e7420746f20746865207a65726f2061646472657373600082015250565b7f45524337323155524953746f726167653a2055524920717565727920666f722060008201527f6e6f6e6578697374656e7420746f6b656e000000000000000000000000000000602082015250565b7f4552433732313a20617070726f76656420717565727920666f72206e6f6e657860008201527f697374656e7420746f6b656e0000000000000000000000000000000000000000602082015250565b7f4f776e61626c653a2063616c6c6572206973206e6f7420746865206f776e6572600082015250565b7f4552433732313a207472616e73666572206f6620746f6b656e2074686174206960008201527f73206e6f74206f776e0000000000000000000000000000000000000000000000602082015250565b7f4552433732314d657461646174613a2055524920717565727920666f72206e6f60008201527f6e6578697374656e7420746f6b656e0000000000000000000000000000000000602082015250565b7f4552433732313a20617070726f76616c20746f2063757272656e74206f776e6560008201527f7200000000000000000000000000000000000000000000000000000000000000602082015250565b7f4552433732313a207472616e736665722063616c6c6572206973206e6f74206f60008201527f776e6572206e6f7220617070726f766564000000000000000000000000000000602082015250565b7f4e465420616c7265616479206d696e7465642100000000000000000000000000600082015250565b7f4552433732314275726e61626c653a2063616c6c6572206973206e6f74206f7760008201527f6e6572206e6f7220617070726f76656400000000000000000000000000000000602082015250565b7f4e65656420746f20706179207570000000000000000000000000000000000000600082015250565b61395c8161314f565b811461396757600080fd5b50565b61397381613161565b811461397e57600080fd5b50565b61398a8161316d565b811461399557600080fd5b50565b6139a1816131b9565b81146139ac57600080fd5b5056fea2646970667358221220c5783093590f47bc9267403a559362b19f06e1d4c4828c9242e9e88eef6d91f164736f6c63430008040033",
  "linkReferences": {},
  "deployedLinkReferences": {}
}