{
  "_format": "hh-sol-artifact-1",
  "contractName": "Minter",
  "sourceName": "contracts/Minter.sol",
  "abi": [
    {
      "inputs": [],
      "stateMutability": "nonpayable",
      "type": "constructor"
    },
    {
      "anonymous": false,
      "inputs": [
        {
          "indexed": true,
          "internalType": "address",
          "name": "owner",
          "type": "address"
        },
        {
          "indexed": true,
          "internalType": "address",
          "name": "approved",
          "type": "address"
        },
        {
          "indexed": true,
          "internalType": "uint256",
          "name": "tokenId",
          "type": "uint256"
        }
      ],
      "name": "Approval",
      "type": "event"
    },
    {
      "anonymous": false,
      "inputs": [
        {
          "indexed": true,
          "internalType": "address",
          "name": "owner",
          "type": "address"
        },
        {
          "indexed": true,
          "internalType": "address",
          "name": "operator",
          "type": "address"
        },
        {
          "indexed": false,
          "internalType": "bool",
          "name": "approved",
          "type": "bool"
        }
      ],
      "name": "ApprovalForAll",
      "type": "event"
    },
    {
      "anonymous": false,
      "inputs": [
        {
          "indexed": true,
          "internalType": "address",
          "name": "previousOwner",
          "type": "address"
        },
        {
          "indexed": true,
          "internalType": "address",
          "name": "newOwner",
          "type": "address"
        }
      ],
      "name": "OwnershipTransferred",
      "type": "event"
    },
    {
      "anonymous": false,
      "inputs": [
        {
          "indexed": true,
          "internalType": "address",
          "name": "from",
          "type": "address"
        },
        {
          "indexed": true,
          "internalType": "address",
          "name": "to",
          "type": "address"
        },
        {
          "indexed": true,
          "internalType": "uint256",
          "name": "tokenId",
          "type": "uint256"
        }
      ],
      "name": "Transfer",
      "type": "event"
    },
    {
      "inputs": [
        {
          "internalType": "address",
          "name": "to",
          "type": "address"
        },
        {
          "internalType": "uint256",
          "name": "tokenId",
          "type": "uint256"
        }
      ],
      "name": "approve",
      "outputs": [],
      "stateMutability": "nonpayable",
      "type": "function"
    },
    {
      "inputs": [
        {
          "internalType": "address",
          "name": "owner",
          "type": "address"
        }
      ],
      "name": "balanceOf",
      "outputs": [
        {
          "internalType": "uint256",
          "name": "",
          "type": "uint256"
        }
      ],
      "stateMutability": "view",
      "type": "function"
    },
    {
      "inputs": [
        {
          "internalType": "uint256",
          "name": "tokenId",
          "type": "uint256"
        }
      ],
      "name": "burn",
      "outputs": [],
      "stateMutability": "nonpayable",
      "type": "function"
    },
    {
      "inputs": [],
      "name": "count",
      "outputs": [
        {
          "internalType": "uint256",
          "name": "",
          "type": "uint256"
        }
      ],
      "stateMutability": "view",
      "type": "function"
    },
    {
      "inputs": [
        {
          "internalType": "string",
          "name": "",
          "type": "string"
        }
      ],
      "name": "existingURIs",
      "outputs": [
        {
          "internalType": "uint8",
          "name": "",
          "type": "uint8"
        }
      ],
      "stateMutability": "view",
      "type": "function"
    },
    {
      "inputs": [
        {
          "internalType": "uint256",
          "name": "tokenId",
          "type": "uint256"
        }
      ],
      "name": "getApproved",
      "outputs": [
        {
          "internalType": "address",
          "name": "",
          "type": "address"
        }
      ],
      "stateMutability": "view",
      "type": "function"
    },
    {
      "inputs": [
        {
          "internalType": "address",
          "name": "owner",
          "type": "address"
        },
        {
          "internalType": "address",
          "name": "operator",
          "type": "address"
        }
      ],
      "name": "isApprovedForAll",
      "outputs": [
        {
          "internalType": "bool",
          "name": "",
          "type": "bool"
        }
      ],
      "stateMutability": "view",
      "type": "function"
    },
    {
      "inputs": [
        {
          "internalType": "string",
          "name": "uri",
          "type": "string"
        }
      ],
      "name": "isContentOwned",
      "outputs": [
        {
          "internalType": "bool",
          "name": "",
          "type": "bool"
        }
      ],
      "stateMutability": "view",
      "type": "function"
    },
    {
      "inputs": [],
      "name": "mintValue",
      "outputs": [
        {
          "internalType": "uint256",
          "name": "",
          "type": "uint256"
        }
      ],
      "stateMutability": "view",
      "type": "function"
    },
    {
      "inputs": [],
      "name": "name",
      "outputs": [
        {
          "internalType": "string",
          "name": "",
          "type": "string"
        }
      ],
      "stateMutability": "view",
      "type": "function"
    },
    {
      "inputs": [],
      "name": "owner",
      "outputs": [
        {
          "internalType": "address",
          "name": "",
          "type": "address"
        }
      ],
      "stateMutability": "view",
      "type": "function"
    },
    {
      "inputs": [
        {
          "internalType": "uint256",
          "name": "tokenId",
          "type": "uint256"
        }
      ],
      "name": "ownerOf",
      "outputs": [
        {
          "internalType": "address",
          "name": "",
          "type": "address"
        }
      ],
      "stateMutability": "view",
      "type": "function"
    },
    {
      "inputs": [
        {
          "internalType": "address",
          "name": "to",
          "type": "address"
        }
      ],
      "name": "payToMint",
      "outputs": [
        {
          "internalType": "uint256",
          "name": "",
          "type": "uint256"
        }
      ],
      "stateMutability": "payable",
      "type": "function"
    },
    {
      "inputs": [],
      "name": "renounceOwnership",
      "outputs": [],
      "stateMutability": "nonpayable",
      "type": "function"
    },
    {
      "inputs": [
        {
          "internalType": "address",
          "name": "to",
          "type": "address"
        }
      ],
      "name": "safeMint",
      "outputs": [],
      "stateMutability": "nonpayable",
      "type": "function"
    },
    {
      "inputs": [
        {
          "internalType": "address",
          "name": "from",
          "type": "address"
        },
        {
          "internalType": "address",
          "name": "to",
          "type": "address"
        },
        {
          "internalType": "uint256",
          "name": "tokenId",
          "type": "uint256"
        }
      ],
      "name": "safeTransferFrom",
      "outputs": [],
      "stateMutability": "nonpayable",
      "type": "function"
    },
    {
      "inputs": [
        {
          "internalType": "address",
          "name": "from",
          "type": "address"
        },
        {
          "internalType": "address",
          "name": "to",
          "type": "address"
        },
        {
          "internalType": "uint256",
          "name": "tokenId",
          "type": "uint256"
        },
        {
          "internalType": "bytes",
          "name": "_data",
          "type": "bytes"
        }
      ],
      "name": "safeTransferFrom",
      "outputs": [],
      "stateMutability": "nonpayable",
      "type": "function"
    },
    {
      "inputs": [
        {
          "internalType": "address",
          "name": "operator",
          "type": "address"
        },
        {
          "internalType": "bool",
          "name": "approved",
          "type": "bool"
        }
      ],
      "name": "setApprovalForAll",
      "outputs": [],
      "stateMutability": "nonpayable",
      "type": "function"
    },
    {
      "inputs": [
        {
          "internalType": "uint256",
          "name": "_mintValue",
          "type": "uint256"
        }
      ],
      "name": "setMintValue",
      "outputs": [],
      "stateMutability": "nonpayable",
      "type": "function"
    },
    {
      "inputs": [
        {
          "internalType": "bytes4",
          "name": "interfaceId",
          "type": "bytes4"
        }
      ],
      "name": "supportsInterface",
      "outputs": [
        {
          "internalType": "bool",
          "name": "",
          "type": "bool"
        }
      ],
      "stateMutability": "view",
      "type": "function"
    },
    {
      "inputs": [],
      "name": "symbol",
      "outputs": [
        {
          "internalType": "string",
          "name": "",
          "type": "string"
        }
      ],
      "stateMutability": "view",
      "type": "function"
    },
    {
      "inputs": [
        {
          "internalType": "uint256",
          "name": "tokenId",
          "type": "uint256"
        }
      ],
      "name": "tokenURI",
      "outputs": [
        {
          "internalType": "string",
          "name": "",
          "type": "string"
        }
      ],
      "stateMutability": "view",
      "type": "function"
    },
    {
      "inputs": [
        {
          "internalType": "address",
          "name": "from",
          "type": "address"
        },
        {
          "internalType": "address",
          "name": "to",
          "type": "address"
        },
        {
          "internalType": "uint256",
          "name": "tokenId",
          "type": "uint256"
        }
      ],
      "name": "transferFrom",
      "outputs": [],
      "stateMutability": "nonpayable",
      "type": "function"
    },
    {
      "inputs": [
        {
          "internalType": "address",
          "name": "newOwner",
          "type": "address"
        }
      ],
      "name": "transferOwnership",
      "outputs": [],
      "stateMutability": "nonpayable",
      "type": "function"
    },
    {
      "inputs": [],
      "name": "withdraw",
      "outputs": [],
      "stateMutability": "nonpayable",
      "type": "function"
    }
  ],
  "bytecode": "0x60806040523480156200001157600080fd5b506040518060400160405280600681526020017f4d696e74657200000000000000000000000000000000000000000000000000008152506040518060400160405280600381526020017f4d494e0000000000000000000000000000000000000000000000000000000000815250816000908051906020019062000096929190620001b4565b508060019080519060200190620000af929190620001b4565b505050620000d2620000c6620000e660201b60201c565b620000ee60201b60201c565b66b1a2bc2ec50000600981905550620002c9565b600033905090565b6000600760009054906101000a900473ffffffffffffffffffffffffffffffffffffffff16905081600760006101000a81548173ffffffffffffffffffffffffffffffffffffffff021916908373ffffffffffffffffffffffffffffffffffffffff1602179055508173ffffffffffffffffffffffffffffffffffffffff168173ffffffffffffffffffffffffffffffffffffffff167f8be0079c531659141344cd1fd0a4f28419497f9722a3daafe3b4186f6b6457e060405160405180910390a35050565b828054620001c29062000264565b90600052602060002090601f016020900481019282620001e6576000855562000232565b82601f106200020157805160ff191683800117855562000232565b8280016001018555821562000232579182015b828111156200023157825182559160200191906001019062000214565b5b50905062000241919062000245565b5090565b5b808211156200026057600081600090555060010162000246565b5090565b600060028204905060018216806200027d57607f821691505b602082108114156200029457620002936200029a565b5b50919050565b7f4e487b7100000000000000000000000000000000000000000000000000000000600052602260045260246000fd5b613cdc80620002d96000396000f3fe6080604052600436106101665760003560e01c806370a08231116100d1578063a22cb4651161008a578063c87b56dd11610064578063c87b56dd14610519578063e985e9c514610556578063f2fde38b14610593578063f37971df146105bc57610166565b8063a22cb4651461049e578063b88d4fde146104c7578063c01031c0146104f057610166565b806370a082311461038c578063715018a6146103c957806389c77dfe146103e05780638da5cb5b1461040b57806395d89b41146104365780639f1cabc61461046157610166565b80633ccfd60b116101235780633ccfd60b1461028d57806340d097c3146102a457806342842e0e146102cd57806342966c68146102f6578063585b32821461031f5780636352211e1461034f57610166565b806301ffc9a71461016b57806306661abd146101a857806306fdde03146101d3578063081812fc146101fe578063095ea7b31461023b57806323b872dd14610264575b600080fd5b34801561017757600080fd5b50610192600480360381019061018d9190612931565b6105f9565b60405161019f9190612ec0565b60405180910390f35b3480156101b457600080fd5b506101bd6106db565b6040516101ca9190613204565b60405180910390f35b3480156101df57600080fd5b506101e86106ec565b6040516101f59190612edb565b60405180910390f35b34801561020a57600080fd5b50610225600480360381019061022091906129c4565b61077e565b6040516102329190612e59565b60405180910390f35b34801561024757600080fd5b50610262600480360381019061025d91906128f5565b610803565b005b34801561027057600080fd5b5061028b600480360381019061028691906127ef565b61091b565b005b34801561029957600080fd5b506102a261097b565b005b3480156102b057600080fd5b506102cb60048036038101906102c6919061278a565b610a40565b005b3480156102d957600080fd5b506102f460048036038101906102ef91906127ef565b610ac9565b005b34801561030257600080fd5b5061031d600480360381019061031891906129c4565b610ae9565b005b6103396004803603810190610334919061278a565b610b45565b6040516103469190613204565b60405180910390f35b34801561035b57600080fd5b50610376600480360381019061037191906129c4565b610b9c565b6040516103839190612e59565b60405180910390f35b34801561039857600080fd5b506103b360048036038101906103ae919061278a565b610c4e565b6040516103c09190613204565b60405180910390f35b3480156103d557600080fd5b506103de610d06565b005b3480156103ec57600080fd5b506103f5610d8e565b6040516104029190613204565b60405180910390f35b34801561041757600080fd5b50610420610d94565b60405161042d9190612e59565b60405180910390f35b34801561044257600080fd5b5061044b610dbe565b6040516104589190612edb565b60405180910390f35b34801561046d57600080fd5b5061048860048036038101906104839190612983565b610e50565b6040516104959190612ec0565b60405180910390f35b3480156104aa57600080fd5b506104c560048036038101906104c091906128b9565b610e8b565b005b3480156104d357600080fd5b506104ee60048036038101906104e9919061283e565b610ea1565b005b3480156104fc57600080fd5b50610517600480360381019061051291906129c4565b610f03565b005b34801561052557600080fd5b50610540600480360381019061053b91906129c4565b610f89565b60405161054d9190612edb565b60405180910390f35b34801561056257600080fd5b5061057d600480360381019061057891906127b3565b610f9b565b60405161058a9190612ec0565b60405180910390f35b34801561059f57600080fd5b506105ba60048036038101906105b5919061278a565b61102f565b005b3480156105c857600080fd5b506105e360048036038101906105de9190612983565b611127565b6040516105f0919061321f565b60405180910390f35b60007f80ac58cd000000000000000000000000000000000000000000000000000000007bffffffffffffffffffffffffffffffffffffffffffffffffffffffff1916827bffffffffffffffffffffffffffffffffffffffffffffffffffffffff191614806106c457507f5b5e139f000000000000000000000000000000000000000000000000000000007bffffffffffffffffffffffffffffffffffffffffffffffffffffffff1916827bffffffffffffffffffffffffffffffffffffffffffffffffffffffff1916145b806106d457506106d38261115d565b5b9050919050565b60006106e760086111c7565b905090565b6060600080546106fb90613482565b80601f016020809104026020016040519081016040528092919081815260200182805461072790613482565b80156107745780601f1061074957610100808354040283529160200191610774565b820191906000526020600020905b81548152906001019060200180831161075757829003601f168201915b5050505050905090565b6000610789826111d5565b6107c8576040517f08c379a00000000000000000000000000000000000000000000000000000000081526004016107bf906130e4565b60405180910390fd5b6004600083815260200190815260200160002060009054906101000a900473ffffffffffffffffffffffffffffffffffffffff169050919050565b600061080e82610b9c565b90508073ffffffffffffffffffffffffffffffffffffffff168373ffffffffffffffffffffffffffffffffffffffff16141561087f576040517f08c379a000000000000000000000000000000000000000000000000000000000815260040161087690613164565b60405180910390fd5b8073ffffffffffffffffffffffffffffffffffffffff1661089e611241565b73ffffffffffffffffffffffffffffffffffffffff1614806108cd57506108cc816108c7611241565b610f9b565b5b61090c576040517f08c379a000000000000000000000000000000000000000000000000000000000815260040161090390613024565b60405180910390fd5b6109168383611249565b505050565b61092c610926611241565b82611302565b61096b576040517f08c379a000000000000000000000000000000000000000000000000000000000815260040161096290613184565b60405180910390fd5b6109768383836113e0565b505050565b610983611241565b73ffffffffffffffffffffffffffffffffffffffff166109a1610d94565b73ffffffffffffffffffffffffffffffffffffffff16146109f7576040517f08c379a00000000000000000000000000000000000000000000000000000000081526004016109ee90613104565b60405180910390fd5b3073ffffffffffffffffffffffffffffffffffffffff166108fc479081150290604051600060405180830381858888f19350505050158015610a3d573d6000803e3d6000fd5b50565b610a48611241565b73ffffffffffffffffffffffffffffffffffffffff16610a66610d94565b73ffffffffffffffffffffffffffffffffffffffff1614610abc576040517f08c379a0000000000000000000000000000000000000000000000000000000008152600401610ab390613104565b60405180910390fd5b610ac58161163c565b5050565b610ae483838360405180602001604052806000815250610ea1565b505050565b610afa610af4611241565b82611302565b610b39576040517f08c379a0000000000000000000000000000000000000000000000000000000008152600401610b30906131c4565b60405180910390fd5b610b42816117c8565b50565b6000600954341015610b8c576040517f08c379a0000000000000000000000000000000000000000000000000000000008152600401610b83906131e4565b60405180910390fd5b610b958261163c565b9050919050565b6000806002600084815260200190815260200160002060009054906101000a900473ffffffffffffffffffffffffffffffffffffffff169050600073ffffffffffffffffffffffffffffffffffffffff168173ffffffffffffffffffffffffffffffffffffffff161415610c45576040517f08c379a0000000000000000000000000000000000000000000000000000000008152600401610c3c90613064565b60405180910390fd5b80915050919050565b60008073ffffffffffffffffffffffffffffffffffffffff168273ffffffffffffffffffffffffffffffffffffffff161415610cbf576040517f08c379a0000000000000000000000000000000000000000000000000000000008152600401610cb690613044565b60405180910390fd5b600360008373ffffffffffffffffffffffffffffffffffffffff1673ffffffffffffffffffffffffffffffffffffffff168152602001908152602001600020549050919050565b610d0e611241565b73ffffffffffffffffffffffffffffffffffffffff16610d2c610d94565b73ffffffffffffffffffffffffffffffffffffffff1614610d82576040517f08c379a0000000000000000000000000000000000000000000000000000000008152600401610d7990613104565b60405180910390fd5b610d8c60006117d4565b565b60095481565b6000600760009054906101000a900473ffffffffffffffffffffffffffffffffffffffff16905090565b606060018054610dcd90613482565b80601f0160208091040260200160405190810160405280929190818152602001828054610df990613482565b8015610e465780601f10610e1b57610100808354040283529160200191610e46565b820191906000526020600020905b815481529060010190602001808311610e2957829003601f168201915b5050505050905090565b60006001600a83604051610e649190612df1565b908152602001604051809103902060009054906101000a900460ff1660ff16149050919050565b610e9d610e96611241565b838361189a565b5050565b610eb2610eac611241565b83611302565b610ef1576040517f08c379a0000000000000000000000000000000000000000000000000000000008152600401610ee890613184565b60405180910390fd5b610efd84848484611a07565b50505050565b610f0b611241565b73ffffffffffffffffffffffffffffffffffffffff16610f29610d94565b73ffffffffffffffffffffffffffffffffffffffff1614610f7f576040517f08c379a0000000000000000000000000000000000000000000000000000000008152600401610f7690613104565b60405180910390fd5b8060098190555050565b6060610f9482611a63565b9050919050565b6000600560008473ffffffffffffffffffffffffffffffffffffffff1673ffffffffffffffffffffffffffffffffffffffff16815260200190815260200160002060008373ffffffffffffffffffffffffffffffffffffffff1673ffffffffffffffffffffffffffffffffffffffff16815260200190815260200160002060009054906101000a900460ff16905092915050565b611037611241565b73ffffffffffffffffffffffffffffffffffffffff16611055610d94565b73ffffffffffffffffffffffffffffffffffffffff16146110ab576040517f08c379a00000000000000000000000000000000000000000000000000000000081526004016110a290613104565b60405180910390fd5b600073ffffffffffffffffffffffffffffffffffffffff168173ffffffffffffffffffffffffffffffffffffffff16141561111b576040517f08c379a000000000000000000000000000000000000000000000000000000000815260040161111290612f84565b60405180910390fd5b611124816117d4565b50565b600a818051602081018201805184825260208301602085012081835280955050505050506000915054906101000a900460ff1681565b60007f01ffc9a7000000000000000000000000000000000000000000000000000000007bffffffffffffffffffffffffffffffffffffffffffffffffffffffff1916827bffffffffffffffffffffffffffffffffffffffffffffffffffffffff1916149050919050565b600081600001549050919050565b60008073ffffffffffffffffffffffffffffffffffffffff166002600084815260200190815260200160002060009054906101000a900473ffffffffffffffffffffffffffffffffffffffff1673ffffffffffffffffffffffffffffffffffffffff1614159050919050565b600033905090565b816004600083815260200190815260200160002060006101000a81548173ffffffffffffffffffffffffffffffffffffffff021916908373ffffffffffffffffffffffffffffffffffffffff160217905550808273ffffffffffffffffffffffffffffffffffffffff166112bc83610b9c565b73ffffffffffffffffffffffffffffffffffffffff167f8c5be1e5ebec7d5bd14f71427d1e84f3dd0314c0f7b2291e5b200ac8c7c3b92560405160405180910390a45050565b600061130d826111d5565b61134c576040517f08c379a000000000000000000000000000000000000000000000000000000000815260040161134390613004565b60405180910390fd5b600061135783610b9c565b90508073ffffffffffffffffffffffffffffffffffffffff168473ffffffffffffffffffffffffffffffffffffffff1614806113c657508373ffffffffffffffffffffffffffffffffffffffff166113ae8461077e565b73ffffffffffffffffffffffffffffffffffffffff16145b806113d757506113d68185610f9b565b5b91505092915050565b8273ffffffffffffffffffffffffffffffffffffffff1661140082610b9c565b73ffffffffffffffffffffffffffffffffffffffff1614611456576040517f08c379a000000000000000000000000000000000000000000000000000000000815260040161144d90613124565b60405180910390fd5b600073ffffffffffffffffffffffffffffffffffffffff168273ffffffffffffffffffffffffffffffffffffffff1614156114c6576040517f08c379a00000000000000000000000000000000000000000000000000000000081526004016114bd90612fc4565b60405180910390fd5b6114d1838383611bb5565b6114dc600082611249565b6001600360008573ffffffffffffffffffffffffffffffffffffffff1673ffffffffffffffffffffffffffffffffffffffff168152602001908152602001600020600082825461152c919061338b565b925050819055506001600360008473ffffffffffffffffffffffffffffffffffffffff1673ffffffffffffffffffffffffffffffffffffffff16815260200190815260200160002060008282546115839190613304565b92505081905550816002600083815260200190815260200160002060006101000a81548173ffffffffffffffffffffffffffffffffffffffff021916908373ffffffffffffffffffffffffffffffffffffffff160217905550808273ffffffffffffffffffffffffffffffffffffffff168473ffffffffffffffffffffffffffffffffffffffff167fddf252ad1be2c89b69c2b068fc378daa952ba7f163c4a11628f55a4df523b3ef60405160405180910390a4505050565b60006116486008611bba565b600061165460086111c7565b90506116956040518060400160405280600781526020017f746f6b656e49640000000000000000000000000000000000000000000000000081525082611bd0565b60006116a082611c6c565b6040516020016116b09190612e2c565b60405160208183030381529060405290506117006040518060400160405280600381526020017f757269000000000000000000000000000000000000000000000000000000000081525082611e19565b6001600a826040516117129190612df1565b908152602001604051809103902060009054906101000a900460ff1660ff161415611772576040517f08c379a0000000000000000000000000000000000000000000000000000000008152600401611769906131a4565b60405180910390fd5b6001600a826040516117849190612df1565b908152602001604051809103902060006101000a81548160ff021916908360ff1602179055506117b48483611eb5565b6117be8282611ed3565b8192505050919050565b6117d181611f47565b50565b6000600760009054906101000a900473ffffffffffffffffffffffffffffffffffffffff16905081600760006101000a81548173ffffffffffffffffffffffffffffffffffffffff021916908373ffffffffffffffffffffffffffffffffffffffff1602179055508173ffffffffffffffffffffffffffffffffffffffff168173ffffffffffffffffffffffffffffffffffffffff167f8be0079c531659141344cd1fd0a4f28419497f9722a3daafe3b4186f6b6457e060405160405180910390a35050565b8173ffffffffffffffffffffffffffffffffffffffff168373ffffffffffffffffffffffffffffffffffffffff161415611909576040517f08c379a000000000000000000000000000000000000000000000000000000000815260040161190090612fe4565b60405180910390fd5b80600560008573ffffffffffffffffffffffffffffffffffffffff1673ffffffffffffffffffffffffffffffffffffffff16815260200190815260200160002060008473ffffffffffffffffffffffffffffffffffffffff1673ffffffffffffffffffffffffffffffffffffffff16815260200190815260200160002060006101000a81548160ff0219169083151502179055508173ffffffffffffffffffffffffffffffffffffffff168373ffffffffffffffffffffffffffffffffffffffff167f17307eab39ab6107e8899845ad3d59bd9653f200f220920489ca2b5937696c31836040516119fa9190612ec0565b60405180910390a3505050565b611a128484846113e0565b611a1e84848484611f9a565b611a5d576040517f08c379a0000000000000000000000000000000000000000000000000000000008152600401611a5490612f64565b60405180910390fd5b50505050565b6060611a6e826111d5565b611aad576040517f08c379a0000000000000000000000000000000000000000000000000000000008152600401611aa4906130c4565b60405180910390fd5b6000600660008481526020019081526020016000208054611acd90613482565b80601f0160208091040260200160405190810160405280929190818152602001828054611af990613482565b8015611b465780601f10611b1b57610100808354040283529160200191611b46565b820191906000526020600020905b815481529060010190602001808311611b2957829003601f168201915b505050505090506000611b57612131565b9050600081511415611b6d578192505050611bb0565b600082511115611ba2578082604051602001611b8a929190612e08565b60405160208183030381529060405292505050611bb0565b611bab84612151565b925050505b919050565b505050565b6001816000016000828254019250508190555050565b611c688282604051602401611be6929190612f34565b6040516020818303038152906040527f9710a9d0000000000000000000000000000000000000000000000000000000007bffffffffffffffffffffffffffffffffffffffffffffffffffffffff19166020820180517bffffffffffffffffffffffffffffffffffffffffffffffffffffffff83818316178352505050506121f8565b5050565b60606000821415611cb4576040518060400160405280600181526020017f30000000000000000000000000000000000000000000000000000000000000008152509050611e14565b600082905060005b60008214611ce6578080611ccf906134e5565b915050600a82611cdf919061335a565b9150611cbc565b60008167ffffffffffffffff811115611d28577f4e487b7100000000000000000000000000000000000000000000000000000000600052604160045260246000fd5b6040519080825280601f01601f191660200182016040528015611d5a5781602001600182028036833780820191505090505b5090505b60008514611e0d57600182611d73919061338b565b9150600a85611d82919061352e565b6030611d8e9190613304565b60f81b818381518110611dca577f4e487b7100000000000000000000000000000000000000000000000000000000600052603260045260246000fd5b60200101907effffffffffffffffffffffffffffffffffffffffffffffffffffffffffffff1916908160001a905350600a85611e06919061335a565b9450611d5e565b8093505050505b919050565b611eb18282604051602401611e2f929190612efd565b6040516020818303038152906040527f4b5c4277000000000000000000000000000000000000000000000000000000007bffffffffffffffffffffffffffffffffffffffffffffffffffffffff19166020820180517bffffffffffffffffffffffffffffffffffffffffffffffffffffffff83818316178352505050506121f8565b5050565b611ecf828260405180602001604052806000815250612221565b5050565b611edc826111d5565b611f1b576040517f08c379a0000000000000000000000000000000000000000000000000000000008152600401611f1290613084565b60405180910390fd5b80600660008481526020019081526020016000209080519060200190611f4292919061256e565b505050565b611f508161227c565b6000600660008381526020019081526020016000208054611f7090613482565b905014611f9757600660008281526020019081526020016000206000611f9691906125f4565b5b50565b6000611fbb8473ffffffffffffffffffffffffffffffffffffffff1661238d565b15612124578373ffffffffffffffffffffffffffffffffffffffff1663150b7a02611fe4611241565b8786866040518563ffffffff1660e01b81526004016120069493929190612e74565b602060405180830381600087803b15801561202057600080fd5b505af192505050801561205157506040513d601f19601f8201168201806040525081019061204e919061295a565b60015b6120d4573d8060008114612081576040519150601f19603f3d011682016040523d82523d6000602084013e612086565b606091505b506000815114156120cc576040517f08c379a00000000000000000000000000000000000000000000000000000000081526004016120c390612f64565b60405180910390fd5b805181602001fd5b63150b7a0260e01b7bffffffffffffffffffffffffffffffffffffffffffffffffffffffff1916817bffffffffffffffffffffffffffffffffffffffffffffffffffffffff191614915050612129565b600190505b949350505050565b6060604051806060016040528060358152602001613c7260359139905090565b606061215c826111d5565b61219b576040517f08c379a000000000000000000000000000000000000000000000000000000000815260040161219290613144565b60405180910390fd5b60006121a5612131565b905060008151116121c557604051806020016040528060008152506121f0565b806121cf84611c6c565b6040516020016121e0929190612e08565b6040516020818303038152906040525b915050919050565b60008151905060006a636f6e736f6c652e6c6f679050602083016000808483855afa5050505050565b61222b83836123a0565b6122386000848484611f9a565b612277576040517f08c379a000000000000000000000000000000000000000000000000000000000815260040161226e90612f64565b60405180910390fd5b505050565b600061228782610b9c565b905061229581600084611bb5565b6122a0600083611249565b6001600360008373ffffffffffffffffffffffffffffffffffffffff1673ffffffffffffffffffffffffffffffffffffffff16815260200190815260200160002060008282546122f0919061338b565b925050819055506002600083815260200190815260200160002060006101000a81549073ffffffffffffffffffffffffffffffffffffffff021916905581600073ffffffffffffffffffffffffffffffffffffffff168273ffffffffffffffffffffffffffffffffffffffff167fddf252ad1be2c89b69c2b068fc378daa952ba7f163c4a11628f55a4df523b3ef60405160405180910390a45050565b600080823b905060008111915050919050565b600073ffffffffffffffffffffffffffffffffffffffff168273ffffffffffffffffffffffffffffffffffffffff161415612410576040517f08c379a0000000000000000000000000000000000000000000000000000000008152600401612407906130a4565b60405180910390fd5b612419816111d5565b15612459576040517f08c379a000000000000000000000000000000000000000000000000000000000815260040161245090612fa4565b60405180910390fd5b61246560008383611bb5565b6001600360008473ffffffffffffffffffffffffffffffffffffffff1673ffffffffffffffffffffffffffffffffffffffff16815260200190815260200160002060008282546124b59190613304565b92505081905550816002600083815260200190815260200160002060006101000a81548173ffffffffffffffffffffffffffffffffffffffff021916908373ffffffffffffffffffffffffffffffffffffffff160217905550808273ffffffffffffffffffffffffffffffffffffffff16600073ffffffffffffffffffffffffffffffffffffffff167fddf252ad1be2c89b69c2b068fc378daa952ba7f163c4a11628f55a4df523b3ef60405160405180910390a45050565b82805461257a90613482565b90600052602060002090601f01602090048101928261259c57600085556125e3565b82601f106125b557805160ff19168380011785556125e3565b828001600101855582156125e3579182015b828111156125e25782518255916020019190600101906125c7565b5b5090506125f09190612634565b5090565b50805461260090613482565b6000825580601f106126125750612631565b601f0160209004906000526020600020908101906126309190612634565b5b50565b5b8082111561264d576000816000905550600101612635565b5090565b600061266461265f8461325f565b61323a565b90508281526020810184848401111561267c57600080fd5b612687848285613440565b509392505050565b60006126a261269d84613290565b61323a565b9050828152602081018484840111156126ba57600080fd5b6126c5848285613440565b509392505050565b6000813590506126dc81613c15565b92915050565b6000813590506126f181613c2c565b92915050565b60008135905061270681613c43565b92915050565b60008151905061271b81613c43565b92915050565b600082601f83011261273257600080fd5b8135612742848260208601612651565b91505092915050565b600082601f83011261275c57600080fd5b813561276c84826020860161268f565b91505092915050565b60008135905061278481613c5a565b92915050565b60006020828403121561279c57600080fd5b60006127aa848285016126cd565b91505092915050565b600080604083850312156127c657600080fd5b60006127d4858286016126cd565b92505060206127e5858286016126cd565b9150509250929050565b60008060006060848603121561280457600080fd5b6000612812868287016126cd565b9350506020612823868287016126cd565b925050604061283486828701612775565b9150509250925092565b6000806000806080858703121561285457600080fd5b6000612862878288016126cd565b9450506020612873878288016126cd565b935050604061288487828801612775565b925050606085013567ffffffffffffffff8111156128a157600080fd5b6128ad87828801612721565b91505092959194509250565b600080604083850312156128cc57600080fd5b60006128da858286016126cd565b92505060206128eb858286016126e2565b9150509250929050565b6000806040838503121561290857600080fd5b6000612916858286016126cd565b925050602061292785828601612775565b9150509250929050565b60006020828403121561294357600080fd5b6000612951848285016126f7565b91505092915050565b60006020828403121561296c57600080fd5b600061297a8482850161270c565b91505092915050565b60006020828403121561299557600080fd5b600082013567ffffffffffffffff8111156129af57600080fd5b6129bb8482850161274b565b91505092915050565b6000602082840312156129d657600080fd5b60006129e484828501612775565b91505092915050565b6129f6816133bf565b82525050565b612a05816133d1565b82525050565b6000612a16826132c1565b612a2081856132d7565b9350612a3081856020860161344f565b612a398161361b565b840191505092915050565b6000612a4f826132cc565b612a5981856132e8565b9350612a6981856020860161344f565b612a728161361b565b840191505092915050565b6000612a88826132cc565b612a9281856132f9565b9350612aa281856020860161344f565b80840191505092915050565b6000612abb6032836132e8565b9150612ac68261362c565b604082019050919050565b6000612ade6026836132e8565b9150612ae98261367b565b604082019050919050565b6000612b01601c836132e8565b9150612b0c826136ca565b602082019050919050565b6000612b246004836132f9565b9150612b2f826136f3565b600482019050919050565b6000612b476024836132e8565b9150612b528261371c565b604082019050919050565b6000612b6a6019836132e8565b9150612b758261376b565b602082019050919050565b6000612b8d602c836132e8565b9150612b9882613794565b604082019050919050565b6000612bb06038836132e8565b9150612bbb826137e3565b604082019050919050565b6000612bd3602a836132e8565b9150612bde82613832565b604082019050919050565b6000612bf66029836132e8565b9150612c0182613881565b604082019050919050565b6000612c19602e836132e8565b9150612c24826138d0565b604082019050919050565b6000612c3c6020836132e8565b9150612c478261391f565b602082019050919050565b6000612c5f6031836132e8565b9150612c6a82613948565b604082019050919050565b6000612c82602c836132e8565b9150612c8d82613997565b604082019050919050565b6000612ca56020836132e8565b9150612cb0826139e6565b602082019050919050565b6000612cc86029836132e8565b9150612cd382613a0f565b604082019050919050565b6000612ceb602f836132e8565b9150612cf682613a5e565b604082019050919050565b6000612d0e6021836132e8565b9150612d1982613aad565b604082019050919050565b6000612d316031836132e8565b9150612d3c82613afc565b604082019050919050565b6000612d546013836132e8565b9150612d5f82613b4b565b602082019050919050565b6000612d776030836132e8565b9150612d8282613b74565b604082019050919050565b6000612d9a6001836132f9565b9150612da582613bc3565b600182019050919050565b6000612dbd600e836132e8565b9150612dc882613bec565b602082019050919050565b612ddc81613429565b82525050565b612deb81613433565b82525050565b6000612dfd8284612a7d565b915081905092915050565b6000612e148285612a7d565b9150612e208284612a7d565b91508190509392505050565b6000612e3782612d8d565b9150612e438284612a7d565b9150612e4e82612b17565b915081905092915050565b6000602082019050612e6e60008301846129ed565b92915050565b6000608082019050612e8960008301876129ed565b612e9660208301866129ed565b612ea36040830185612dd3565b8181036060830152612eb58184612a0b565b905095945050505050565b6000602082019050612ed560008301846129fc565b92915050565b60006020820190508181036000830152612ef58184612a44565b905092915050565b60006040820190508181036000830152612f178185612a44565b90508181036020830152612f2b8184612a44565b90509392505050565b60006040820190508181036000830152612f4e8185612a44565b9050612f5d6020830184612dd3565b9392505050565b60006020820190508181036000830152612f7d81612aae565b9050919050565b60006020820190508181036000830152612f9d81612ad1565b9050919050565b60006020820190508181036000830152612fbd81612af4565b9050919050565b60006020820190508181036000830152612fdd81612b3a565b9050919050565b60006020820190508181036000830152612ffd81612b5d565b9050919050565b6000602082019050818103600083015261301d81612b80565b9050919050565b6000602082019050818103600083015261303d81612ba3565b9050919050565b6000602082019050818103600083015261305d81612bc6565b9050919050565b6000602082019050818103600083015261307d81612be9565b9050919050565b6000602082019050818103600083015261309d81612c0c565b9050919050565b600060208201905081810360008301526130bd81612c2f565b9050919050565b600060208201905081810360008301526130dd81612c52565b9050919050565b600060208201905081810360008301526130fd81612c75565b9050919050565b6000602082019050818103600083015261311d81612c98565b9050919050565b6000602082019050818103600083015261313d81612cbb565b9050919050565b6000602082019050818103600083015261315d81612cde565b9050919050565b6000602082019050818103600083015261317d81612d01565b9050919050565b6000602082019050818103600083015261319d81612d24565b9050919050565b600060208201905081810360008301526131bd81612d47565b9050919050565b600060208201905081810360008301526131dd81612d6a565b9050919050565b600060208201905081810360008301526131fd81612db0565b9050919050565b60006020820190506132196000830184612dd3565b92915050565b60006020820190506132346000830184612de2565b92915050565b6000613244613255565b905061325082826134b4565b919050565b6000604051905090565b600067ffffffffffffffff82111561327a576132796135ec565b5b6132838261361b565b9050602081019050919050565b600067ffffffffffffffff8211156132ab576132aa6135ec565b5b6132b48261361b565b9050602081019050919050565b600081519050919050565b600081519050919050565b600082825260208201905092915050565b600082825260208201905092915050565b600081905092915050565b600061330f82613429565b915061331a83613429565b9250827fffffffffffffffffffffffffffffffffffffffffffffffffffffffffffffffff0382111561334f5761334e61355f565b5b828201905092915050565b600061336582613429565b915061337083613429565b9250826133805761337f61358e565b5b828204905092915050565b600061339682613429565b91506133a183613429565b9250828210156133b4576133b361355f565b5b828203905092915050565b60006133ca82613409565b9050919050565b60008115159050919050565b60007fffffffff0000000000000000000000000000000000000000000000000000000082169050919050565b600073ffffffffffffffffffffffffffffffffffffffff82169050919050565b6000819050919050565b600060ff82169050919050565b82818337600083830152505050565b60005b8381101561346d578082015181840152602081019050613452565b8381111561347c576000848401525b50505050565b6000600282049050600182168061349a57607f821691505b602082108114156134ae576134ad6135bd565b5b50919050565b6134bd8261361b565b810181811067ffffffffffffffff821117156134dc576134db6135ec565b5b80604052505050565b60006134f082613429565b91507fffffffffffffffffffffffffffffffffffffffffffffffffffffffffffffffff8214156135235761352261355f565b5b600182019050919050565b600061353982613429565b915061354483613429565b9250826135545761355361358e565b5b828206905092915050565b7f4e487b7100000000000000000000000000000000000000000000000000000000600052601160045260246000fd5b7f4e487b7100000000000000000000000000000000000000000000000000000000600052601260045260246000fd5b7f4e487b7100000000000000000000000000000000000000000000000000000000600052602260045260246000fd5b7f4e487b7100000000000000000000000000000000000000000000000000000000600052604160045260246000fd5b6000601f19601f8301169050919050565b7f4552433732313a207472616e7366657220746f206e6f6e20455243373231526560008201527f63656976657220696d706c656d656e7465720000000000000000000000000000602082015250565b7f4f776e61626c653a206e6577206f776e657220697320746865207a65726f206160008201527f6464726573730000000000000000000000000000000000000000000000000000602082015250565b7f4552433732313a20746f6b656e20616c7265616479206d696e74656400000000600082015250565b7f2e706e6700000000000000000000000000000000000000000000000000000000600082015250565b7f4552433732313a207472616e7366657220746f20746865207a65726f2061646460008201527f7265737300000000000000000000000000000000000000000000000000000000602082015250565b7f4552433732313a20617070726f766520746f2063616c6c657200000000000000600082015250565b7f4552433732313a206f70657261746f7220717565727920666f72206e6f6e657860008201527f697374656e7420746f6b656e0000000000000000000000000000000000000000602082015250565b7f4552433732313a20617070726f76652063616c6c6572206973206e6f74206f7760008201527f6e6572206e6f7220617070726f76656420666f7220616c6c0000000000000000602082015250565b7f4552433732313a2062616c616e636520717565727920666f7220746865207a6560008201527f726f206164647265737300000000000000000000000000000000000000000000602082015250565b7f4552433732313a206f776e657220717565727920666f72206e6f6e657869737460008201527f656e7420746f6b656e0000000000000000000000000000000000000000000000602082015250565b7f45524337323155524953746f726167653a2055524920736574206f66206e6f6e60008201527f6578697374656e7420746f6b656e000000000000000000000000000000000000602082015250565b7f4552433732313a206d696e7420746f20746865207a65726f2061646472657373600082015250565b7f45524337323155524953746f726167653a2055524920717565727920666f722060008201527f6e6f6e6578697374656e7420746f6b656e000000000000000000000000000000602082015250565b7f4552433732313a20617070726f76656420717565727920666f72206e6f6e657860008201527f697374656e7420746f6b656e0000000000000000000000000000000000000000602082015250565b7f4f776e61626c653a2063616c6c6572206973206e6f7420746865206f776e6572600082015250565b7f4552433732313a207472616e73666572206f6620746f6b656e2074686174206960008201527f73206e6f74206f776e0000000000000000000000000000000000000000000000602082015250565b7f4552433732314d657461646174613a2055524920717565727920666f72206e6f60008201527f6e6578697374656e7420746f6b656e0000000000000000000000000000000000602082015250565b7f4552433732313a20617070726f76616c20746f2063757272656e74206f776e6560008201527f7200000000000000000000000000000000000000000000000000000000000000602082015250565b7f4552433732313a207472616e736665722063616c6c6572206973206e6f74206f60008201527f776e6572206e6f7220617070726f766564000000000000000000000000000000602082015250565b7f4e465420616c7265616479206d696e7465642100000000000000000000000000600082015250565b7f4552433732314275726e61626c653a2063616c6c6572206973206e6f74206f7760008201527f6e6572206e6f7220617070726f76656400000000000000000000000000000000602082015250565b7f2f00000000000000000000000000000000000000000000000000000000000000600082015250565b7f4e65656420746f20706179207570000000000000000000000000000000000000600082015250565b613c1e816133bf565b8114613c2957600080fd5b50565b613c35816133d1565b8114613c4057600080fd5b50565b613c4c816133dd565b8114613c5757600080fd5b50565b613c6381613429565b8114613c6e57600080fd5b5056fe697066733a2f2f516d5868665a334263426466775437745078784853635947355a7a44627133364e55646a4b46596d367754455a4aa264697066735822122063371dda8b1eeeca0dd3830f808d2d3ece61d401f41228e0545ff28a74cbc55a64736f6c63430008040033",
  "linkReferences": {},
  "deployedLinkReferences": {}
}