{
  "_format": "hh-sol-artifact-1",
  "contractName": "Minter",
  "sourceName": "contracts/Minter.sol",
  "abi": [
    {
      "inputs": [],
      "stateMutability": "nonpayable",
      "type": "constructor"
    },
    {
      "anonymous": false,
      "inputs": [
        {
          "indexed": true,
          "internalType": "address",
          "name": "owner",
          "type": "address"
        },
        {
          "indexed": true,
          "internalType": "address",
          "name": "approved",
          "type": "address"
        },
        {
          "indexed": true,
          "internalType": "uint256",
          "name": "tokenId",
          "type": "uint256"
        }
      ],
      "name": "Approval",
      "type": "event"
    },
    {
      "anonymous": false,
      "inputs": [
        {
          "indexed": true,
          "internalType": "address",
          "name": "owner",
          "type": "address"
        },
        {
          "indexed": true,
          "internalType": "address",
          "name": "operator",
          "type": "address"
        },
        {
          "indexed": false,
          "internalType": "bool",
          "name": "approved",
          "type": "bool"
        }
      ],
      "name": "ApprovalForAll",
      "type": "event"
    },
    {
      "anonymous": false,
      "inputs": [
        {
          "indexed": true,
          "internalType": "address",
          "name": "previousOwner",
          "type": "address"
        },
        {
          "indexed": true,
          "internalType": "address",
          "name": "newOwner",
          "type": "address"
        }
      ],
      "name": "OwnershipTransferred",
      "type": "event"
    },
    {
      "anonymous": false,
      "inputs": [
        {
          "indexed": true,
          "internalType": "address",
          "name": "from",
          "type": "address"
        },
        {
          "indexed": true,
          "internalType": "address",
          "name": "to",
          "type": "address"
        },
        {
          "indexed": true,
          "internalType": "uint256",
          "name": "tokenId",
          "type": "uint256"
        }
      ],
      "name": "Transfer",
      "type": "event"
    },
    {
      "inputs": [],
      "name": "MAX_SUPPLY",
      "outputs": [
        {
          "internalType": "uint256",
          "name": "",
          "type": "uint256"
        }
      ],
      "stateMutability": "view",
      "type": "function"
    },
    {
      "inputs": [
        {
          "internalType": "address",
          "name": "to",
          "type": "address"
        },
        {
          "internalType": "uint256",
          "name": "tokenId",
          "type": "uint256"
        }
      ],
      "name": "approve",
      "outputs": [],
      "stateMutability": "nonpayable",
      "type": "function"
    },
    {
      "inputs": [
        {
          "internalType": "address",
          "name": "owner",
          "type": "address"
        }
      ],
      "name": "balanceOf",
      "outputs": [
        {
          "internalType": "uint256",
          "name": "",
          "type": "uint256"
        }
      ],
      "stateMutability": "view",
      "type": "function"
    },
    {
      "inputs": [],
      "name": "count",
      "outputs": [
        {
          "internalType": "uint256",
          "name": "",
          "type": "uint256"
        }
      ],
      "stateMutability": "view",
      "type": "function"
    },
    {
      "inputs": [
        {
          "internalType": "uint256",
          "name": "tokenId",
          "type": "uint256"
        }
      ],
      "name": "getApproved",
      "outputs": [
        {
          "internalType": "address",
          "name": "",
          "type": "address"
        }
      ],
      "stateMutability": "view",
      "type": "function"
    },
    {
      "inputs": [
        {
          "internalType": "address",
          "name": "owner",
          "type": "address"
        },
        {
          "internalType": "address",
          "name": "operator",
          "type": "address"
        }
      ],
      "name": "isApprovedForAll",
      "outputs": [
        {
          "internalType": "bool",
          "name": "",
          "type": "bool"
        }
      ],
      "stateMutability": "view",
      "type": "function"
    },
    {
      "inputs": [
        {
          "internalType": "string",
          "name": "uri",
          "type": "string"
        }
      ],
      "name": "mintNFT",
      "outputs": [
        {
          "internalType": "uint256",
          "name": "",
          "type": "uint256"
        }
      ],
      "stateMutability": "nonpayable",
      "type": "function"
    },
    {
      "inputs": [
        {
          "internalType": "string",
          "name": "",
          "type": "string"
        }
      ],
      "name": "mintedURIs",
      "outputs": [
        {
          "internalType": "bool",
          "name": "",
          "type": "bool"
        }
      ],
      "stateMutability": "view",
      "type": "function"
    },
    {
      "inputs": [
        {
          "internalType": "address",
          "name": "",
          "type": "address"
        }
      ],
      "name": "minterAddresses",
      "outputs": [
        {
          "internalType": "bool",
          "name": "",
          "type": "bool"
        }
      ],
      "stateMutability": "view",
      "type": "function"
    },
    {
      "inputs": [],
      "name": "name",
      "outputs": [
        {
          "internalType": "string",
          "name": "",
          "type": "string"
        }
      ],
      "stateMutability": "view",
      "type": "function"
    },
    {
      "inputs": [],
      "name": "owner",
      "outputs": [
        {
          "internalType": "address",
          "name": "",
          "type": "address"
        }
      ],
      "stateMutability": "view",
      "type": "function"
    },
    {
      "inputs": [
        {
          "internalType": "uint256",
          "name": "tokenId",
          "type": "uint256"
        }
      ],
      "name": "ownerOf",
      "outputs": [
        {
          "internalType": "address",
          "name": "",
          "type": "address"
        }
      ],
      "stateMutability": "view",
      "type": "function"
    },
    {
      "inputs": [],
      "name": "renounceOwnership",
      "outputs": [],
      "stateMutability": "nonpayable",
      "type": "function"
    },
    {
      "inputs": [
        {
          "internalType": "address",
          "name": "from",
          "type": "address"
        },
        {
          "internalType": "address",
          "name": "to",
          "type": "address"
        },
        {
          "internalType": "uint256",
          "name": "tokenId",
          "type": "uint256"
        }
      ],
      "name": "safeTransferFrom",
      "outputs": [],
      "stateMutability": "nonpayable",
      "type": "function"
    },
    {
      "inputs": [
        {
          "internalType": "address",
          "name": "from",
          "type": "address"
        },
        {
          "internalType": "address",
          "name": "to",
          "type": "address"
        },
        {
          "internalType": "uint256",
          "name": "tokenId",
          "type": "uint256"
        },
        {
          "internalType": "bytes",
          "name": "_data",
          "type": "bytes"
        }
      ],
      "name": "safeTransferFrom",
      "outputs": [],
      "stateMutability": "nonpayable",
      "type": "function"
    },
    {
      "inputs": [
        {
          "internalType": "address",
          "name": "operator",
          "type": "address"
        },
        {
          "internalType": "bool",
          "name": "approved",
          "type": "bool"
        }
      ],
      "name": "setApprovalForAll",
      "outputs": [],
      "stateMutability": "nonpayable",
      "type": "function"
    },
    {
      "inputs": [
        {
          "internalType": "bytes4",
          "name": "interfaceId",
          "type": "bytes4"
        }
      ],
      "name": "supportsInterface",
      "outputs": [
        {
          "internalType": "bool",
          "name": "",
          "type": "bool"
        }
      ],
      "stateMutability": "view",
      "type": "function"
    },
    {
      "inputs": [],
      "name": "symbol",
      "outputs": [
        {
          "internalType": "string",
          "name": "",
          "type": "string"
        }
      ],
      "stateMutability": "view",
      "type": "function"
    },
    {
      "inputs": [
        {
          "internalType": "uint256",
          "name": "tokenId",
          "type": "uint256"
        }
      ],
      "name": "tokenURI",
      "outputs": [
        {
          "internalType": "string",
          "name": "",
          "type": "string"
        }
      ],
      "stateMutability": "view",
      "type": "function"
    },
    {
      "inputs": [
        {
          "internalType": "address",
          "name": "from",
          "type": "address"
        },
        {
          "internalType": "address",
          "name": "to",
          "type": "address"
        },
        {
          "internalType": "uint256",
          "name": "tokenId",
          "type": "uint256"
        }
      ],
      "name": "transferFrom",
      "outputs": [],
      "stateMutability": "nonpayable",
      "type": "function"
    },
    {
      "inputs": [
        {
          "internalType": "address",
          "name": "newOwner",
          "type": "address"
        }
      ],
      "name": "transferOwnership",
      "outputs": [],
      "stateMutability": "nonpayable",
      "type": "function"
    }
  ],
  "bytecode": "0x60806040523480156200001157600080fd5b506040518060400160405280600d81526020017f43727970746f4368616e676f73000000000000000000000000000000000000008152506040518060400160405280600281526020017f4343000000000000000000000000000000000000000000000000000000000000815250816000908051906020019062000096929190620001a6565b508060019080519060200190620000af929190620001a6565b505050620000d2620000c6620000d860201b60201c565b620000e060201b60201c565b620002bb565b600033905090565b6000600760009054906101000a900473ffffffffffffffffffffffffffffffffffffffff16905081600760006101000a81548173ffffffffffffffffffffffffffffffffffffffff021916908373ffffffffffffffffffffffffffffffffffffffff1602179055508173ffffffffffffffffffffffffffffffffffffffff168173ffffffffffffffffffffffffffffffffffffffff167f8be0079c531659141344cd1fd0a4f28419497f9722a3daafe3b4186f6b6457e060405160405180910390a35050565b828054620001b49062000256565b90600052602060002090601f016020900481019282620001d8576000855562000224565b82601f10620001f357805160ff191683800117855562000224565b8280016001018555821562000224579182015b828111156200022357825182559160200191906001019062000206565b5b50905062000233919062000237565b5090565b5b808211156200025257600081600090555060010162000238565b5090565b600060028204905060018216806200026f57607f821691505b602082108114156200028657620002856200028c565b5b50919050565b7f4e487b7100000000000000000000000000000000000000000000000000000000600052602260045260246000fd5b6133b080620002cb6000396000f3fe608060405234801561001057600080fd5b50600436106101375760003560e01c806370a08231116100b8578063b88d4fde1161007c578063b88d4fde1461033c578063c87b56dd14610358578063e8732afc14610388578063e985e9c5146103b8578063f2fde38b146103e8578063fb37e8831461040457610137565b806370a08231146102aa578063715018a6146102da5780638da5cb5b146102e457806395d89b4114610302578063a22cb4651461032057610137565b8063232ee760116100ff578063232ee760146101f457806323b872dd1461022457806332cb6b0c1461024057806342842e0e1461025e5780636352211e1461027a57610137565b806301ffc9a71461013c57806306661abd1461016c57806306fdde031461018a578063081812fc146101a8578063095ea7b3146101d8575b600080fd5b6101566004803603810190610151919061222f565b610434565b6040516101639190612719565b60405180910390f35b610174610516565b60405161018191906129d6565b60405180910390f35b610192610527565b60405161019f9190612734565b60405180910390f35b6101c260048036038101906101bd91906122c2565b6105b9565b6040516101cf91906126b2565b60405180910390f35b6101f260048036038101906101ed91906121f3565b61063e565b005b61020e60048036038101906102099190612088565b610756565b60405161021b9190612719565b60405180910390f35b61023e600480360381019061023991906120ed565b610776565b005b6102486107d6565b60405161025591906129d6565b60405180910390f35b610278600480360381019061027391906120ed565b6107dc565b005b610294600480360381019061028f91906122c2565b6107fc565b6040516102a191906126b2565b60405180910390f35b6102c460048036038101906102bf9190612088565b6108ae565b6040516102d191906129d6565b60405180910390f35b6102e2610966565b005b6102ec6109ee565b6040516102f991906126b2565b60405180910390f35b61030a610a18565b6040516103179190612734565b60405180910390f35b61033a600480360381019061033591906121b7565b610aaa565b005b6103566004803603810190610351919061213c565b610ac0565b005b610372600480360381019061036d91906122c2565b610b22565b60405161037f9190612734565b60405180910390f35b6103a2600480360381019061039d9190612281565b610b34565b6040516103af9190612719565b60405180910390f35b6103d260048036038101906103cd91906120b1565b610b6a565b6040516103df9190612719565b60405180910390f35b61040260048036038101906103fd9190612088565b610bfe565b005b61041e60048036038101906104199190612281565b610cf6565b60405161042b91906129d6565b60405180910390f35b60007f80ac58cd000000000000000000000000000000000000000000000000000000007bffffffffffffffffffffffffffffffffffffffffffffffffffffffff1916827bffffffffffffffffffffffffffffffffffffffffffffffffffffffff191614806104ff57507f5b5e139f000000000000000000000000000000000000000000000000000000007bffffffffffffffffffffffffffffffffffffffffffffffffffffffff1916827bffffffffffffffffffffffffffffffffffffffffffffffffffffffff1916145b8061050f575061050e82610f01565b5b9050919050565b60006105226008610f6b565b905090565b60606000805461053690612c2c565b80601f016020809104026020016040519081016040528092919081815260200182805461056290612c2c565b80156105af5780601f10610584576101008083540402835291602001916105af565b820191906000526020600020905b81548152906001019060200180831161059257829003601f168201915b5050505050905090565b60006105c482610f79565b610603576040517f08c379a00000000000000000000000000000000000000000000000000000000081526004016105fa906128f6565b60405180910390fd5b6004600083815260200190815260200160002060009054906101000a900473ffffffffffffffffffffffffffffffffffffffff169050919050565b6000610649826107fc565b90508073ffffffffffffffffffffffffffffffffffffffff168373ffffffffffffffffffffffffffffffffffffffff1614156106ba576040517f08c379a00000000000000000000000000000000000000000000000000000000081526004016106b190612976565b60405180910390fd5b8073ffffffffffffffffffffffffffffffffffffffff166106d9610fe5565b73ffffffffffffffffffffffffffffffffffffffff161480610708575061070781610702610fe5565b610b6a565b5b610747576040517f08c379a000000000000000000000000000000000000000000000000000000000815260040161073e90612816565b60405180910390fd5b6107518383610fed565b505050565b600a6020528060005260406000206000915054906101000a900460ff1681565b610787610781610fe5565b826110a6565b6107c6576040517f08c379a00000000000000000000000000000000000000000000000000000000081526004016107bd906129b6565b60405180910390fd5b6107d1838383611184565b505050565b61138881565b6107f783838360405180602001604052806000815250610ac0565b505050565b6000806002600084815260200190815260200160002060009054906101000a900473ffffffffffffffffffffffffffffffffffffffff169050600073ffffffffffffffffffffffffffffffffffffffff168173ffffffffffffffffffffffffffffffffffffffff1614156108a5576040517f08c379a000000000000000000000000000000000000000000000000000000000815260040161089c90612856565b60405180910390fd5b80915050919050565b60008073ffffffffffffffffffffffffffffffffffffffff168273ffffffffffffffffffffffffffffffffffffffff16141561091f576040517f08c379a000000000000000000000000000000000000000000000000000000000815260040161091690612836565b60405180910390fd5b600360008373ffffffffffffffffffffffffffffffffffffffff1673ffffffffffffffffffffffffffffffffffffffff168152602001908152602001600020549050919050565b61096e610fe5565b73ffffffffffffffffffffffffffffffffffffffff1661098c6109ee565b73ffffffffffffffffffffffffffffffffffffffff16146109e2576040517f08c379a00000000000000000000000000000000000000000000000000000000081526004016109d990612916565b60405180910390fd5b6109ec60006113e0565b565b6000600760009054906101000a900473ffffffffffffffffffffffffffffffffffffffff16905090565b606060018054610a2790612c2c565b80601f0160208091040260200160405190810160405280929190818152602001828054610a5390612c2c565b8015610aa05780601f10610a7557610100808354040283529160200191610aa0565b820191906000526020600020905b815481529060010190602001808311610a8357829003601f168201915b5050505050905090565b610abc610ab5610fe5565b83836114a6565b5050565b610ad1610acb610fe5565b836110a6565b610b10576040517f08c379a0000000000000000000000000000000000000000000000000000000008152600401610b07906129b6565b60405180910390fd5b610b1c84848484611613565b50505050565b6060610b2d8261166f565b9050919050565b6009818051602081018201805184825260208301602085012081835280955050505050506000915054906101000a900460ff1681565b6000600560008473ffffffffffffffffffffffffffffffffffffffff1673ffffffffffffffffffffffffffffffffffffffff16815260200190815260200160002060008373ffffffffffffffffffffffffffffffffffffffff1673ffffffffffffffffffffffffffffffffffffffff16815260200190815260200160002060009054906101000a900460ff16905092915050565b610c06610fe5565b73ffffffffffffffffffffffffffffffffffffffff16610c246109ee565b73ffffffffffffffffffffffffffffffffffffffff1614610c7a576040517f08c379a0000000000000000000000000000000000000000000000000000000008152600401610c7190612916565b60405180910390fd5b600073ffffffffffffffffffffffffffffffffffffffff168173ffffffffffffffffffffffffffffffffffffffff161415610cea576040517f08c379a0000000000000000000000000000000000000000000000000000000008152600401610ce190612776565b60405180910390fd5b610cf3816113e0565b50565b60008033905060001515600984604051610d109190612677565b908152602001604051809103902060009054906101000a900460ff16151514610d6e576040517f08c379a0000000000000000000000000000000000000000000000000000000008152600401610d6590612996565b60405180910390fd5b610d766109ee565b73ffffffffffffffffffffffffffffffffffffffff168173ffffffffffffffffffffffffffffffffffffffff1614610e3c5760001515600a60008373ffffffffffffffffffffffffffffffffffffffff1673ffffffffffffffffffffffffffffffffffffffff16815260200190815260200160002060009054906101000a900460ff16151514610e3b576040517f08c379a0000000000000000000000000000000000000000000000000000000008152600401610e32906128d6565b60405180910390fd5b5b6001600984604051610e4e9190612677565b908152602001604051809103902060006101000a81548160ff0219169083151502179055506001600a60008373ffffffffffffffffffffffffffffffffffffffff1673ffffffffffffffffffffffffffffffffffffffff16815260200190815260200160002060006101000a81548160ff021916908315150217905550610ed560086117c1565b6000610ee16008610f6b565b9050610eed82826117d7565b610ef781856117f5565b8092505050919050565b60007f01ffc9a7000000000000000000000000000000000000000000000000000000007bffffffffffffffffffffffffffffffffffffffffffffffffffffffff1916827bffffffffffffffffffffffffffffffffffffffffffffffffffffffff1916149050919050565b600081600001549050919050565b60008073ffffffffffffffffffffffffffffffffffffffff166002600084815260200190815260200160002060009054906101000a900473ffffffffffffffffffffffffffffffffffffffff1673ffffffffffffffffffffffffffffffffffffffff1614159050919050565b600033905090565b816004600083815260200190815260200160002060006101000a81548173ffffffffffffffffffffffffffffffffffffffff021916908373ffffffffffffffffffffffffffffffffffffffff160217905550808273ffffffffffffffffffffffffffffffffffffffff16611060836107fc565b73ffffffffffffffffffffffffffffffffffffffff167f8c5be1e5ebec7d5bd14f71427d1e84f3dd0314c0f7b2291e5b200ac8c7c3b92560405160405180910390a45050565b60006110b182610f79565b6110f0576040517f08c379a00000000000000000000000000000000000000000000000000000000081526004016110e7906127f6565b60405180910390fd5b60006110fb836107fc565b90508073ffffffffffffffffffffffffffffffffffffffff168473ffffffffffffffffffffffffffffffffffffffff16148061116a57508373ffffffffffffffffffffffffffffffffffffffff16611152846105b9565b73ffffffffffffffffffffffffffffffffffffffff16145b8061117b575061117a8185610b6a565b5b91505092915050565b8273ffffffffffffffffffffffffffffffffffffffff166111a4826107fc565b73ffffffffffffffffffffffffffffffffffffffff16146111fa576040517f08c379a00000000000000000000000000000000000000000000000000000000081526004016111f190612936565b60405180910390fd5b600073ffffffffffffffffffffffffffffffffffffffff168273ffffffffffffffffffffffffffffffffffffffff16141561126a576040517f08c379a0000000000000000000000000000000000000000000000000000000008152600401611261906127b6565b60405180910390fd5b611275838383611869565b611280600082610fed565b6001600360008573ffffffffffffffffffffffffffffffffffffffff1673ffffffffffffffffffffffffffffffffffffffff16815260200190815260200160002060008282546112d09190612b42565b925050819055506001600360008473ffffffffffffffffffffffffffffffffffffffff1673ffffffffffffffffffffffffffffffffffffffff16815260200190815260200160002060008282546113279190612abb565b92505081905550816002600083815260200190815260200160002060006101000a81548173ffffffffffffffffffffffffffffffffffffffff021916908373ffffffffffffffffffffffffffffffffffffffff160217905550808273ffffffffffffffffffffffffffffffffffffffff168473ffffffffffffffffffffffffffffffffffffffff167fddf252ad1be2c89b69c2b068fc378daa952ba7f163c4a11628f55a4df523b3ef60405160405180910390a4505050565b6000600760009054906101000a900473ffffffffffffffffffffffffffffffffffffffff16905081600760006101000a81548173ffffffffffffffffffffffffffffffffffffffff021916908373ffffffffffffffffffffffffffffffffffffffff1602179055508173ffffffffffffffffffffffffffffffffffffffff168173ffffffffffffffffffffffffffffffffffffffff167f8be0079c531659141344cd1fd0a4f28419497f9722a3daafe3b4186f6b6457e060405160405180910390a35050565b8173ffffffffffffffffffffffffffffffffffffffff168373ffffffffffffffffffffffffffffffffffffffff161415611515576040517f08c379a000000000000000000000000000000000000000000000000000000000815260040161150c906127d6565b60405180910390fd5b80600560008573ffffffffffffffffffffffffffffffffffffffff1673ffffffffffffffffffffffffffffffffffffffff16815260200190815260200160002060008473ffffffffffffffffffffffffffffffffffffffff1673ffffffffffffffffffffffffffffffffffffffff16815260200190815260200160002060006101000a81548160ff0219169083151502179055508173ffffffffffffffffffffffffffffffffffffffff168373ffffffffffffffffffffffffffffffffffffffff167f17307eab39ab6107e8899845ad3d59bd9653f200f220920489ca2b5937696c31836040516116069190612719565b60405180910390a3505050565b61161e848484611184565b61162a8484848461186e565b611669576040517f08c379a000000000000000000000000000000000000000000000000000000000815260040161166090612756565b60405180910390fd5b50505050565b606061167a82610f79565b6116b9576040517f08c379a00000000000000000000000000000000000000000000000000000000081526004016116b0906128b6565b60405180910390fd5b60006006600084815260200190815260200160002080546116d990612c2c565b80601f016020809104026020016040519081016040528092919081815260200182805461170590612c2c565b80156117525780601f1061172757610100808354040283529160200191611752565b820191906000526020600020905b81548152906001019060200180831161173557829003601f168201915b505050505090506000611763611a05565b90506000815114156117795781925050506117bc565b6000825111156117ae57808260405160200161179692919061268e565b604051602081830303815290604052925050506117bc565b6117b784611a1c565b925050505b919050565b6001816000016000828254019250508190555050565b6117f1828260405180602001604052806000815250611ac3565b5050565b6117fe82610f79565b61183d576040517f08c379a000000000000000000000000000000000000000000000000000000000815260040161183490612876565b60405180910390fd5b80600660008481526020019081526020016000209080519060200190611864929190611eac565b505050565b505050565b600061188f8473ffffffffffffffffffffffffffffffffffffffff16611b1e565b156119f8578373ffffffffffffffffffffffffffffffffffffffff1663150b7a026118b8610fe5565b8786866040518563ffffffff1660e01b81526004016118da94939291906126cd565b602060405180830381600087803b1580156118f457600080fd5b505af192505050801561192557506040513d601f19601f820116820180604052508101906119229190612258565b60015b6119a8573d8060008114611955576040519150601f19603f3d011682016040523d82523d6000602084013e61195a565b606091505b506000815114156119a0576040517f08c379a000000000000000000000000000000000000000000000000000000000815260040161199790612756565b60405180910390fd5b805181602001fd5b63150b7a0260e01b7bffffffffffffffffffffffffffffffffffffffffffffffffffffffff1916817bffffffffffffffffffffffffffffffffffffffffffffffffffffffff1916149150506119fd565b600190505b949350505050565b606060405180602001604052806000815250905090565b6060611a2782610f79565b611a66576040517f08c379a0000000000000000000000000000000000000000000000000000000008152600401611a5d90612956565b60405180910390fd5b6000611a70611a05565b90506000815111611a905760405180602001604052806000815250611abb565b80611a9a84611b31565b604051602001611aab92919061268e565b6040516020818303038152906040525b915050919050565b611acd8383611cde565b611ada600084848461186e565b611b19576040517f08c379a0000000000000000000000000000000000000000000000000000000008152600401611b1090612756565b60405180910390fd5b505050565b600080823b905060008111915050919050565b60606000821415611b79576040518060400160405280600181526020017f30000000000000000000000000000000000000000000000000000000000000008152509050611cd9565b600082905060005b60008214611bab578080611b9490612c8f565b915050600a82611ba49190612b11565b9150611b81565b60008167ffffffffffffffff811115611bed577f4e487b7100000000000000000000000000000000000000000000000000000000600052604160045260246000fd5b6040519080825280601f01601f191660200182016040528015611c1f5781602001600182028036833780820191505090505b5090505b60008514611cd257600182611c389190612b42565b9150600a85611c479190612cd8565b6030611c539190612abb565b60f81b818381518110611c8f577f4e487b7100000000000000000000000000000000000000000000000000000000600052603260045260246000fd5b60200101907effffffffffffffffffffffffffffffffffffffffffffffffffffffffffffff1916908160001a905350600a85611ccb9190612b11565b9450611c23565b8093505050505b919050565b600073ffffffffffffffffffffffffffffffffffffffff168273ffffffffffffffffffffffffffffffffffffffff161415611d4e576040517f08c379a0000000000000000000000000000000000000000000000000000000008152600401611d4590612896565b60405180910390fd5b611d5781610f79565b15611d97576040517f08c379a0000000000000000000000000000000000000000000000000000000008152600401611d8e90612796565b60405180910390fd5b611da360008383611869565b6001600360008473ffffffffffffffffffffffffffffffffffffffff1673ffffffffffffffffffffffffffffffffffffffff1681526020019081526020016000206000828254611df39190612abb565b92505081905550816002600083815260200190815260200160002060006101000a81548173ffffffffffffffffffffffffffffffffffffffff021916908373ffffffffffffffffffffffffffffffffffffffff160217905550808273ffffffffffffffffffffffffffffffffffffffff16600073ffffffffffffffffffffffffffffffffffffffff167fddf252ad1be2c89b69c2b068fc378daa952ba7f163c4a11628f55a4df523b3ef60405160405180910390a45050565b828054611eb890612c2c565b90600052602060002090601f016020900481019282611eda5760008555611f21565b82601f10611ef357805160ff1916838001178555611f21565b82800160010185558215611f21579182015b82811115611f20578251825591602001919060010190611f05565b5b509050611f2e9190611f32565b5090565b5b80821115611f4b576000816000905550600101611f33565b5090565b6000611f62611f5d84612a16565b6129f1565b905082815260208101848484011115611f7a57600080fd5b611f85848285612bea565b509392505050565b6000611fa0611f9b84612a47565b6129f1565b905082815260208101848484011115611fb857600080fd5b611fc3848285612bea565b509392505050565b600081359050611fda8161331e565b92915050565b600081359050611fef81613335565b92915050565b6000813590506120048161334c565b92915050565b6000815190506120198161334c565b92915050565b600082601f83011261203057600080fd5b8135612040848260208601611f4f565b91505092915050565b600082601f83011261205a57600080fd5b813561206a848260208601611f8d565b91505092915050565b60008135905061208281613363565b92915050565b60006020828403121561209a57600080fd5b60006120a884828501611fcb565b91505092915050565b600080604083850312156120c457600080fd5b60006120d285828601611fcb565b92505060206120e385828601611fcb565b9150509250929050565b60008060006060848603121561210257600080fd5b600061211086828701611fcb565b935050602061212186828701611fcb565b925050604061213286828701612073565b9150509250925092565b6000806000806080858703121561215257600080fd5b600061216087828801611fcb565b945050602061217187828801611fcb565b935050604061218287828801612073565b925050606085013567ffffffffffffffff81111561219f57600080fd5b6121ab8782880161201f565b91505092959194509250565b600080604083850312156121ca57600080fd5b60006121d885828601611fcb565b92505060206121e985828601611fe0565b9150509250929050565b6000806040838503121561220657600080fd5b600061221485828601611fcb565b925050602061222585828601612073565b9150509250929050565b60006020828403121561224157600080fd5b600061224f84828501611ff5565b91505092915050565b60006020828403121561226a57600080fd5b60006122788482850161200a565b91505092915050565b60006020828403121561229357600080fd5b600082013567ffffffffffffffff8111156122ad57600080fd5b6122b984828501612049565b91505092915050565b6000602082840312156122d457600080fd5b60006122e284828501612073565b91505092915050565b6122f481612b76565b82525050565b61230381612b88565b82525050565b600061231482612a78565b61231e8185612a8e565b935061232e818560208601612bf9565b61233781612dc5565b840191505092915050565b600061234d82612a83565b6123578185612a9f565b9350612367818560208601612bf9565b61237081612dc5565b840191505092915050565b600061238682612a83565b6123908185612ab0565b93506123a0818560208601612bf9565b80840191505092915050565b60006123b9603283612a9f565b91506123c482612dd6565b604082019050919050565b60006123dc602683612a9f565b91506123e782612e25565b604082019050919050565b60006123ff601c83612a9f565b915061240a82612e74565b602082019050919050565b6000612422602483612a9f565b915061242d82612e9d565b604082019050919050565b6000612445601983612a9f565b915061245082612eec565b602082019050919050565b6000612468602c83612a9f565b915061247382612f15565b604082019050919050565b600061248b603883612a9f565b915061249682612f64565b604082019050919050565b60006124ae602a83612a9f565b91506124b982612fb3565b604082019050919050565b60006124d1602983612a9f565b91506124dc82613002565b604082019050919050565b60006124f4602e83612a9f565b91506124ff82613051565b604082019050919050565b6000612517602083612a9f565b9150612522826130a0565b602082019050919050565b600061253a603183612a9f565b9150612545826130c9565b604082019050919050565b600061255d601d83612a9f565b915061256882613118565b602082019050919050565b6000612580602c83612a9f565b915061258b82613141565b604082019050919050565b60006125a3602083612a9f565b91506125ae82613190565b602082019050919050565b60006125c6602983612a9f565b91506125d1826131b9565b604082019050919050565b60006125e9602f83612a9f565b91506125f482613208565b604082019050919050565b600061260c602183612a9f565b915061261782613257565b604082019050919050565b600061262f601b83612a9f565b915061263a826132a6565b602082019050919050565b6000612652603183612a9f565b915061265d826132cf565b604082019050919050565b61267181612be0565b82525050565b6000612683828461237b565b915081905092915050565b600061269a828561237b565b91506126a6828461237b565b91508190509392505050565b60006020820190506126c760008301846122eb565b92915050565b60006080820190506126e260008301876122eb565b6126ef60208301866122eb565b6126fc6040830185612668565b818103606083015261270e8184612309565b905095945050505050565b600060208201905061272e60008301846122fa565b92915050565b6000602082019050818103600083015261274e8184612342565b905092915050565b6000602082019050818103600083015261276f816123ac565b9050919050565b6000602082019050818103600083015261278f816123cf565b9050919050565b600060208201905081810360008301526127af816123f2565b9050919050565b600060208201905081810360008301526127cf81612415565b9050919050565b600060208201905081810360008301526127ef81612438565b9050919050565b6000602082019050818103600083015261280f8161245b565b9050919050565b6000602082019050818103600083015261282f8161247e565b9050919050565b6000602082019050818103600083015261284f816124a1565b9050919050565b6000602082019050818103600083015261286f816124c4565b9050919050565b6000602082019050818103600083015261288f816124e7565b9050919050565b600060208201905081810360008301526128af8161250a565b9050919050565b600060208201905081810360008301526128cf8161252d565b9050919050565b600060208201905081810360008301526128ef81612550565b9050919050565b6000602082019050818103600083015261290f81612573565b9050919050565b6000602082019050818103600083015261292f81612596565b9050919050565b6000602082019050818103600083015261294f816125b9565b9050919050565b6000602082019050818103600083015261296f816125dc565b9050919050565b6000602082019050818103600083015261298f816125ff565b9050919050565b600060208201905081810360008301526129af81612622565b9050919050565b600060208201905081810360008301526129cf81612645565b9050919050565b60006020820190506129eb6000830184612668565b92915050565b60006129fb612a0c565b9050612a078282612c5e565b919050565b6000604051905090565b600067ffffffffffffffff821115612a3157612a30612d96565b5b612a3a82612dc5565b9050602081019050919050565b600067ffffffffffffffff821115612a6257612a61612d96565b5b612a6b82612dc5565b9050602081019050919050565b600081519050919050565b600081519050919050565b600082825260208201905092915050565b600082825260208201905092915050565b600081905092915050565b6000612ac682612be0565b9150612ad183612be0565b9250827fffffffffffffffffffffffffffffffffffffffffffffffffffffffffffffffff03821115612b0657612b05612d09565b5b828201905092915050565b6000612b1c82612be0565b9150612b2783612be0565b925082612b3757612b36612d38565b5b828204905092915050565b6000612b4d82612be0565b9150612b5883612be0565b925082821015612b6b57612b6a612d09565b5b828203905092915050565b6000612b8182612bc0565b9050919050565b60008115159050919050565b60007fffffffff0000000000000000000000000000000000000000000000000000000082169050919050565b600073ffffffffffffffffffffffffffffffffffffffff82169050919050565b6000819050919050565b82818337600083830152505050565b60005b83811015612c17578082015181840152602081019050612bfc565b83811115612c26576000848401525b50505050565b60006002820490506001821680612c4457607f821691505b60208210811415612c5857612c57612d67565b5b50919050565b612c6782612dc5565b810181811067ffffffffffffffff82111715612c8657612c85612d96565b5b80604052505050565b6000612c9a82612be0565b91507fffffffffffffffffffffffffffffffffffffffffffffffffffffffffffffffff821415612ccd57612ccc612d09565b5b600182019050919050565b6000612ce382612be0565b9150612cee83612be0565b925082612cfe57612cfd612d38565b5b828206905092915050565b7f4e487b7100000000000000000000000000000000000000000000000000000000600052601160045260246000fd5b7f4e487b7100000000000000000000000000000000000000000000000000000000600052601260045260246000fd5b7f4e487b7100000000000000000000000000000000000000000000000000000000600052602260045260246000fd5b7f4e487b7100000000000000000000000000000000000000000000000000000000600052604160045260246000fd5b6000601f19601f8301169050919050565b7f4552433732313a207472616e7366657220746f206e6f6e20455243373231526560008201527f63656976657220696d706c656d656e7465720000000000000000000000000000602082015250565b7f4f776e61626c653a206e6577206f776e657220697320746865207a65726f206160008201527f6464726573730000000000000000000000000000000000000000000000000000602082015250565b7f4552433732313a20746f6b656e20616c7265616479206d696e74656400000000600082015250565b7f4552433732313a207472616e7366657220746f20746865207a65726f2061646460008201527f7265737300000000000000000000000000000000000000000000000000000000602082015250565b7f4552433732313a20617070726f766520746f2063616c6c657200000000000000600082015250565b7f4552433732313a206f70657261746f7220717565727920666f72206e6f6e657860008201527f697374656e7420746f6b656e0000000000000000000000000000000000000000602082015250565b7f4552433732313a20617070726f76652063616c6c6572206973206e6f74206f7760008201527f6e6572206e6f7220617070726f76656420666f7220616c6c0000000000000000602082015250565b7f4552433732313a2062616c616e636520717565727920666f7220746865207a6560008201527f726f206164647265737300000000000000000000000000000000000000000000602082015250565b7f4552433732313a206f776e657220717565727920666f72206e6f6e657869737460008201527f656e7420746f6b656e0000000000000000000000000000000000000000000000602082015250565b7f45524337323155524953746f726167653a2055524920736574206f66206e6f6e60008201527f6578697374656e7420746f6b656e000000000000000000000000000000000000602082015250565b7f4552433732313a206d696e7420746f20746865207a65726f2061646472657373600082015250565b7f45524337323155524953746f726167653a2055524920717565727920666f722060008201527f6e6f6e6578697374656e7420746f6b656e000000000000000000000000000000602082015250565b7f4d696e7465723a206164647265737320616c7265616479207573656421000000600082015250565b7f4552433732313a20617070726f76656420717565727920666f72206e6f6e657860008201527f697374656e7420746f6b656e0000000000000000000000000000000000000000602082015250565b7f4f776e61626c653a2063616c6c6572206973206e6f7420746865206f776e6572600082015250565b7f4552433732313a207472616e73666572206f6620746f6b656e2074686174206960008201527f73206e6f74206f776e0000000000000000000000000000000000000000000000602082015250565b7f4552433732314d657461646174613a2055524920717565727920666f72206e6f60008201527f6e6578697374656e7420746f6b656e0000000000000000000000000000000000602082015250565b7f4552433732313a20617070726f76616c20746f2063757272656e74206f776e6560008201527f7200000000000000000000000000000000000000000000000000000000000000602082015250565b7f4d696e7465723a204e465420616c7265616479206d696e746564210000000000600082015250565b7f4552433732313a207472616e736665722063616c6c6572206973206e6f74206f60008201527f776e6572206e6f7220617070726f766564000000000000000000000000000000602082015250565b61332781612b76565b811461333257600080fd5b50565b61333e81612b88565b811461334957600080fd5b50565b61335581612b94565b811461336057600080fd5b50565b61336c81612be0565b811461337757600080fd5b5056fea2646970667358221220b3a0bdff190e1d835d709578d17c81214c0428bb7717f8237dd19fda6b9a46b764736f6c63430008040033",
  "linkReferences": {},
  "deployedLinkReferences": {}
}