{
  "_format": "hh-sol-artifact-1",
  "contractName": "Minter",
  "sourceName": "contracts/Minter.sol",
  "abi": [
    {
      "inputs": [],
      "stateMutability": "nonpayable",
      "type": "constructor"
    },
    {
      "anonymous": false,
      "inputs": [
        {
          "indexed": true,
          "internalType": "address",
          "name": "owner",
          "type": "address"
        },
        {
          "indexed": true,
          "internalType": "address",
          "name": "approved",
          "type": "address"
        },
        {
          "indexed": true,
          "internalType": "uint256",
          "name": "tokenId",
          "type": "uint256"
        }
      ],
      "name": "Approval",
      "type": "event"
    },
    {
      "anonymous": false,
      "inputs": [
        {
          "indexed": true,
          "internalType": "address",
          "name": "owner",
          "type": "address"
        },
        {
          "indexed": true,
          "internalType": "address",
          "name": "operator",
          "type": "address"
        },
        {
          "indexed": false,
          "internalType": "bool",
          "name": "approved",
          "type": "bool"
        }
      ],
      "name": "ApprovalForAll",
      "type": "event"
    },
    {
      "anonymous": false,
      "inputs": [
        {
          "indexed": true,
          "internalType": "address",
          "name": "previousOwner",
          "type": "address"
        },
        {
          "indexed": true,
          "internalType": "address",
          "name": "newOwner",
          "type": "address"
        }
      ],
      "name": "OwnershipTransferred",
      "type": "event"
    },
    {
      "anonymous": false,
      "inputs": [
        {
          "indexed": true,
          "internalType": "address",
          "name": "from",
          "type": "address"
        },
        {
          "indexed": true,
          "internalType": "address",
          "name": "to",
          "type": "address"
        },
        {
          "indexed": true,
          "internalType": "uint256",
          "name": "tokenId",
          "type": "uint256"
        }
      ],
      "name": "Transfer",
      "type": "event"
    },
    {
      "inputs": [],
      "name": "MAX_SUPPLY",
      "outputs": [
        {
          "internalType": "uint256",
          "name": "",
          "type": "uint256"
        }
      ],
      "stateMutability": "view",
      "type": "function"
    },
    {
      "inputs": [
        {
          "internalType": "address",
          "name": "to",
          "type": "address"
        },
        {
          "internalType": "uint256",
          "name": "tokenId",
          "type": "uint256"
        }
      ],
      "name": "approve",
      "outputs": [],
      "stateMutability": "nonpayable",
      "type": "function"
    },
    {
      "inputs": [
        {
          "internalType": "address",
          "name": "owner",
          "type": "address"
        }
      ],
      "name": "balanceOf",
      "outputs": [
        {
          "internalType": "uint256",
          "name": "",
          "type": "uint256"
        }
      ],
      "stateMutability": "view",
      "type": "function"
    },
    {
      "inputs": [],
      "name": "count",
      "outputs": [
        {
          "internalType": "uint256",
          "name": "",
          "type": "uint256"
        }
      ],
      "stateMutability": "view",
      "type": "function"
    },
    {
      "inputs": [
        {
          "internalType": "uint256",
          "name": "tokenId",
          "type": "uint256"
        }
      ],
      "name": "getApproved",
      "outputs": [
        {
          "internalType": "address",
          "name": "",
          "type": "address"
        }
      ],
      "stateMutability": "view",
      "type": "function"
    },
    {
      "inputs": [
        {
          "internalType": "address",
          "name": "owner",
          "type": "address"
        },
        {
          "internalType": "address",
          "name": "operator",
          "type": "address"
        }
      ],
      "name": "isApprovedForAll",
      "outputs": [
        {
          "internalType": "bool",
          "name": "",
          "type": "bool"
        }
      ],
      "stateMutability": "view",
      "type": "function"
    },
    {
      "inputs": [
        {
          "internalType": "string",
          "name": "uri",
          "type": "string"
        }
      ],
      "name": "mintNFT",
      "outputs": [
        {
          "internalType": "uint256",
          "name": "",
          "type": "uint256"
        }
      ],
      "stateMutability": "nonpayable",
      "type": "function"
    },
    {
      "inputs": [
        {
          "internalType": "string",
          "name": "",
          "type": "string"
        }
      ],
      "name": "mintedURIs",
      "outputs": [
        {
          "internalType": "bool",
          "name": "",
          "type": "bool"
        }
      ],
      "stateMutability": "view",
      "type": "function"
    },
    {
      "inputs": [
        {
          "internalType": "address",
          "name": "",
          "type": "address"
        }
      ],
      "name": "minterAddresses",
      "outputs": [
        {
          "internalType": "bool",
          "name": "",
          "type": "bool"
        }
      ],
      "stateMutability": "view",
      "type": "function"
    },
    {
      "inputs": [],
      "name": "name",
      "outputs": [
        {
          "internalType": "string",
          "name": "",
          "type": "string"
        }
      ],
      "stateMutability": "view",
      "type": "function"
    },
    {
      "inputs": [],
      "name": "owner",
      "outputs": [
        {
          "internalType": "address",
          "name": "",
          "type": "address"
        }
      ],
      "stateMutability": "view",
      "type": "function"
    },
    {
      "inputs": [
        {
          "internalType": "uint256",
          "name": "tokenId",
          "type": "uint256"
        }
      ],
      "name": "ownerOf",
      "outputs": [
        {
          "internalType": "address",
          "name": "",
          "type": "address"
        }
      ],
      "stateMutability": "view",
      "type": "function"
    },
    {
      "inputs": [],
      "name": "renounceOwnership",
      "outputs": [],
      "stateMutability": "nonpayable",
      "type": "function"
    },
    {
      "inputs": [
        {
          "internalType": "address",
          "name": "from",
          "type": "address"
        },
        {
          "internalType": "address",
          "name": "to",
          "type": "address"
        },
        {
          "internalType": "uint256",
          "name": "tokenId",
          "type": "uint256"
        }
      ],
      "name": "safeTransferFrom",
      "outputs": [],
      "stateMutability": "nonpayable",
      "type": "function"
    },
    {
      "inputs": [
        {
          "internalType": "address",
          "name": "from",
          "type": "address"
        },
        {
          "internalType": "address",
          "name": "to",
          "type": "address"
        },
        {
          "internalType": "uint256",
          "name": "tokenId",
          "type": "uint256"
        },
        {
          "internalType": "bytes",
          "name": "_data",
          "type": "bytes"
        }
      ],
      "name": "safeTransferFrom",
      "outputs": [],
      "stateMutability": "nonpayable",
      "type": "function"
    },
    {
      "inputs": [
        {
          "internalType": "address",
          "name": "operator",
          "type": "address"
        },
        {
          "internalType": "bool",
          "name": "approved",
          "type": "bool"
        }
      ],
      "name": "setApprovalForAll",
      "outputs": [],
      "stateMutability": "nonpayable",
      "type": "function"
    },
    {
      "inputs": [
        {
          "internalType": "bytes4",
          "name": "interfaceId",
          "type": "bytes4"
        }
      ],
      "name": "supportsInterface",
      "outputs": [
        {
          "internalType": "bool",
          "name": "",
          "type": "bool"
        }
      ],
      "stateMutability": "view",
      "type": "function"
    },
    {
      "inputs": [],
      "name": "symbol",
      "outputs": [
        {
          "internalType": "string",
          "name": "",
          "type": "string"
        }
      ],
      "stateMutability": "view",
      "type": "function"
    },
    {
      "inputs": [
        {
          "internalType": "uint256",
          "name": "index",
          "type": "uint256"
        }
      ],
      "name": "tokenByIndex",
      "outputs": [
        {
          "internalType": "uint256",
          "name": "",
          "type": "uint256"
        }
      ],
      "stateMutability": "view",
      "type": "function"
    },
    {
      "inputs": [
        {
          "internalType": "address",
          "name": "owner",
          "type": "address"
        },
        {
          "internalType": "uint256",
          "name": "index",
          "type": "uint256"
        }
      ],
      "name": "tokenOfOwnerByIndex",
      "outputs": [
        {
          "internalType": "uint256",
          "name": "",
          "type": "uint256"
        }
      ],
      "stateMutability": "view",
      "type": "function"
    },
    {
      "inputs": [
        {
          "internalType": "uint256",
          "name": "tokenId",
          "type": "uint256"
        }
      ],
      "name": "tokenURI",
      "outputs": [
        {
          "internalType": "string",
          "name": "",
          "type": "string"
        }
      ],
      "stateMutability": "view",
      "type": "function"
    },
    {
      "inputs": [
        {
          "internalType": "address",
          "name": "addr",
          "type": "address"
        }
      ],
      "name": "tokensOfOwner",
      "outputs": [
        {
          "internalType": "uint256[]",
          "name": "",
          "type": "uint256[]"
        }
      ],
      "stateMutability": "view",
      "type": "function"
    },
    {
      "inputs": [],
      "name": "totalSupply",
      "outputs": [
        {
          "internalType": "uint256",
          "name": "",
          "type": "uint256"
        }
      ],
      "stateMutability": "view",
      "type": "function"
    },
    {
      "inputs": [
        {
          "internalType": "address",
          "name": "from",
          "type": "address"
        },
        {
          "internalType": "address",
          "name": "to",
          "type": "address"
        },
        {
          "internalType": "uint256",
          "name": "tokenId",
          "type": "uint256"
        }
      ],
      "name": "transferFrom",
      "outputs": [],
      "stateMutability": "nonpayable",
      "type": "function"
    },
    {
      "inputs": [
        {
          "internalType": "address",
          "name": "newOwner",
          "type": "address"
        }
      ],
      "name": "transferOwnership",
      "outputs": [],
      "stateMutability": "nonpayable",
      "type": "function"
    }
  ],
  "bytecode": "0x60806040523480156200001157600080fd5b506040518060400160405280600d81526020017f43727970746f4368616e676f73000000000000000000000000000000000000008152506040518060400160405280600281526020017f4343000000000000000000000000000000000000000000000000000000000000815250816000908051906020019062000096929190620001a6565b508060019080519060200190620000af929190620001a6565b505050620000d2620000c6620000d860201b60201c565b620000e060201b60201c565b620002bb565b600033905090565b6000600b60009054906101000a900473ffffffffffffffffffffffffffffffffffffffff16905081600b60006101000a81548173ffffffffffffffffffffffffffffffffffffffff021916908373ffffffffffffffffffffffffffffffffffffffff1602179055508173ffffffffffffffffffffffffffffffffffffffff168173ffffffffffffffffffffffffffffffffffffffff167f8be0079c531659141344cd1fd0a4f28419497f9722a3daafe3b4186f6b6457e060405160405180910390a35050565b828054620001b49062000256565b90600052602060002090601f016020900481019282620001d8576000855562000224565b82601f10620001f357805160ff191683800117855562000224565b8280016001018555821562000224579182015b828111156200022357825182559160200191906001019062000206565b5b50905062000233919062000237565b5090565b5b808211156200025257600081600090555060010162000238565b5090565b600060028204905060018216806200026f57607f821691505b602082108114156200028657620002856200028c565b5b50919050565b7f4e487b7100000000000000000000000000000000000000000000000000000000600052602260045260246000fd5b613e0980620002cb6000396000f3fe608060405234801561001057600080fd5b50600436106101735760003560e01c80636352211e116100de578063a22cb46511610097578063e8732afc11610071578063e8732afc14610472578063e985e9c5146104a2578063f2fde38b146104d2578063fb37e883146104ee57610173565b8063a22cb4651461040a578063b88d4fde14610426578063c87b56dd1461044257610173565b80636352211e1461033457806370a0823114610364578063715018a6146103945780638462151c1461039e5780638da5cb5b146103ce57806395d89b41146103ec57610173565b8063232ee76011610130578063232ee7601461024e57806323b872dd1461027e5780632f745c591461029a57806332cb6b0c146102ca57806342842e0e146102e85780634f6ccce71461030457610173565b806301ffc9a71461017857806306661abd146101a857806306fdde03146101c6578063081812fc146101e4578063095ea7b31461021457806318160ddd14610230575b600080fd5b610192600480360381019061018d9190612a84565b61051e565b60405161019f919061305b565b60405180910390f35b6101b0610530565b6040516101bd9190613358565b60405180910390f35b6101ce610541565b6040516101db9190613076565b60405180910390f35b6101fe60048036038101906101f99190612b17565b6105d3565b60405161020b9190612fd2565b60405180910390f35b61022e60048036038101906102299190612a48565b610658565b005b610238610770565b6040516102459190613358565b60405180910390f35b610268600480360381019061026391906128dd565b61077d565b604051610275919061305b565b60405180910390f35b61029860048036038101906102939190612942565b61079d565b005b6102b460048036038101906102af9190612a48565b6107fd565b6040516102c19190613358565b60405180910390f35b6102d26108a2565b6040516102df9190613358565b60405180910390f35b61030260048036038101906102fd9190612942565b6108a8565b005b61031e60048036038101906103199190612b17565b6108c8565b60405161032b9190613358565b60405180910390f35b61034e60048036038101906103499190612b17565b61095f565b60405161035b9190612fd2565b60405180910390f35b61037e600480360381019061037991906128dd565b610a11565b60405161038b9190613358565b60405180910390f35b61039c610ac9565b005b6103b860048036038101906103b391906128dd565b610b51565b6040516103c59190613039565b60405180910390f35b6103d6610c4b565b6040516103e39190612fd2565b60405180910390f35b6103f4610c75565b6040516104019190613076565b60405180910390f35b610424600480360381019061041f9190612a0c565b610d07565b005b610440600480360381019061043b9190612991565b610d1d565b005b61045c60048036038101906104579190612b17565b610d7f565b6040516104699190613076565b60405180910390f35b61048c60048036038101906104879190612ad6565b610d91565b604051610499919061305b565b60405180910390f35b6104bc60048036038101906104b79190612906565b610dc7565b6040516104c9919061305b565b60405180910390f35b6104ec60048036038101906104e791906128dd565b610e5b565b005b61050860048036038101906105039190612ad6565b610f53565b6040516105159190613358565b60405180910390f35b60006105298261115e565b9050919050565b600061053c600c6111d8565b905090565b606060008054610550906135e7565b80601f016020809104026020016040519081016040528092919081815260200182805461057c906135e7565b80156105c95780601f1061059e576101008083540402835291602001916105c9565b820191906000526020600020905b8154815290600101906020018083116105ac57829003601f168201915b5050505050905090565b60006105de826111e6565b61061d576040517f08c379a000000000000000000000000000000000000000000000000000000000815260040161061490613258565b60405180910390fd5b6004600083815260200190815260200160002060009054906101000a900473ffffffffffffffffffffffffffffffffffffffff169050919050565b60006106638261095f565b90508073ffffffffffffffffffffffffffffffffffffffff168373ffffffffffffffffffffffffffffffffffffffff1614156106d4576040517f08c379a00000000000000000000000000000000000000000000000000000000081526004016106cb906132d8565b60405180910390fd5b8073ffffffffffffffffffffffffffffffffffffffff166106f3611252565b73ffffffffffffffffffffffffffffffffffffffff16148061072257506107218161071c611252565b610dc7565b5b610761576040517f08c379a000000000000000000000000000000000000000000000000000000000815260040161075890613178565b60405180910390fd5b61076b838361125a565b505050565b6000600880549050905090565b600e6020528060005260406000206000915054906101000a900460ff1681565b6107ae6107a8611252565b82611313565b6107ed576040517f08c379a00000000000000000000000000000000000000000000000000000000081526004016107e490613318565b60405180910390fd5b6107f88383836113f1565b505050565b600061080883610a11565b8210610849576040517f08c379a000000000000000000000000000000000000000000000000000000000815260040161084090613098565b60405180910390fd5b600660008473ffffffffffffffffffffffffffffffffffffffff1673ffffffffffffffffffffffffffffffffffffffff168152602001908152602001600020600083815260200190815260200160002054905092915050565b61138881565b6108c383838360405180602001604052806000815250610d1d565b505050565b60006108d2610770565b8210610913576040517f08c379a000000000000000000000000000000000000000000000000000000000815260040161090a90613338565b60405180910390fd5b6008828154811061094d577f4e487b7100000000000000000000000000000000000000000000000000000000600052603260045260246000fd5b90600052602060002001549050919050565b6000806002600084815260200190815260200160002060009054906101000a900473ffffffffffffffffffffffffffffffffffffffff169050600073ffffffffffffffffffffffffffffffffffffffff168173ffffffffffffffffffffffffffffffffffffffff161415610a08576040517f08c379a00000000000000000000000000000000000000000000000000000000081526004016109ff906131b8565b60405180910390fd5b80915050919050565b60008073ffffffffffffffffffffffffffffffffffffffff168273ffffffffffffffffffffffffffffffffffffffff161415610a82576040517f08c379a0000000000000000000000000000000000000000000000000000000008152600401610a7990613198565b60405180910390fd5b600360008373ffffffffffffffffffffffffffffffffffffffff1673ffffffffffffffffffffffffffffffffffffffff168152602001908152602001600020549050919050565b610ad1611252565b73ffffffffffffffffffffffffffffffffffffffff16610aef610c4b565b73ffffffffffffffffffffffffffffffffffffffff1614610b45576040517f08c379a0000000000000000000000000000000000000000000000000000000008152600401610b3c90613278565b60405180910390fd5b610b4f600061164d565b565b60606000610b5e83610a11565b905060008167ffffffffffffffff811115610ba2577f4e487b7100000000000000000000000000000000000000000000000000000000600052604160045260246000fd5b604051908082528060200260200182016040528015610bd05781602001602082028036833780820191505090505b50905060005b82811015610c4057610be885826107fd565b828281518110610c21577f4e487b7100000000000000000000000000000000000000000000000000000000600052603260045260246000fd5b6020026020010181815250508080610c389061364a565b915050610bd6565b508092505050919050565b6000600b60009054906101000a900473ffffffffffffffffffffffffffffffffffffffff16905090565b606060018054610c84906135e7565b80601f0160208091040260200160405190810160405280929190818152602001828054610cb0906135e7565b8015610cfd5780601f10610cd257610100808354040283529160200191610cfd565b820191906000526020600020905b815481529060010190602001808311610ce057829003601f168201915b5050505050905090565b610d19610d12611252565b8383611713565b5050565b610d2e610d28611252565b83611313565b610d6d576040517f08c379a0000000000000000000000000000000000000000000000000000000008152600401610d6490613318565b60405180910390fd5b610d7984848484611880565b50505050565b6060610d8a826118dc565b9050919050565b600d818051602081018201805184825260208301602085012081835280955050505050506000915054906101000a900460ff1681565b6000600560008473ffffffffffffffffffffffffffffffffffffffff1673ffffffffffffffffffffffffffffffffffffffff16815260200190815260200160002060008373ffffffffffffffffffffffffffffffffffffffff1673ffffffffffffffffffffffffffffffffffffffff16815260200190815260200160002060009054906101000a900460ff16905092915050565b610e63611252565b73ffffffffffffffffffffffffffffffffffffffff16610e81610c4b565b73ffffffffffffffffffffffffffffffffffffffff1614610ed7576040517f08c379a0000000000000000000000000000000000000000000000000000000008152600401610ece90613278565b60405180910390fd5b600073ffffffffffffffffffffffffffffffffffffffff168173ffffffffffffffffffffffffffffffffffffffff161415610f47576040517f08c379a0000000000000000000000000000000000000000000000000000000008152600401610f3e906130d8565b60405180910390fd5b610f508161164d565b50565b60008033905060001515600d84604051610f6d9190612f97565b908152602001604051809103902060009054906101000a900460ff16151514610fcb576040517f08c379a0000000000000000000000000000000000000000000000000000000008152600401610fc2906132f8565b60405180910390fd5b610fd3610c4b565b73ffffffffffffffffffffffffffffffffffffffff168173ffffffffffffffffffffffffffffffffffffffff16146110995760001515600e60008373ffffffffffffffffffffffffffffffffffffffff1673ffffffffffffffffffffffffffffffffffffffff16815260200190815260200160002060009054906101000a900460ff16151514611098576040517f08c379a000000000000000000000000000000000000000000000000000000000815260040161108f90613238565b60405180910390fd5b5b6001600d846040516110ab9190612f97565b908152602001604051809103902060006101000a81548160ff0219169083151502179055506001600e60008373ffffffffffffffffffffffffffffffffffffffff1673ffffffffffffffffffffffffffffffffffffffff16815260200190815260200160002060006101000a81548160ff021916908315150217905550611132600c611a2e565b600061113e600c6111d8565b905061114a8282611a44565b6111548185611a62565b8092505050919050565b60007f780e9d63000000000000000000000000000000000000000000000000000000007bffffffffffffffffffffffffffffffffffffffffffffffffffffffff1916827bffffffffffffffffffffffffffffffffffffffffffffffffffffffff191614806111d157506111d082611ad6565b5b9050919050565b600081600001549050919050565b60008073ffffffffffffffffffffffffffffffffffffffff166002600084815260200190815260200160002060009054906101000a900473ffffffffffffffffffffffffffffffffffffffff1673ffffffffffffffffffffffffffffffffffffffff1614159050919050565b600033905090565b816004600083815260200190815260200160002060006101000a81548173ffffffffffffffffffffffffffffffffffffffff021916908373ffffffffffffffffffffffffffffffffffffffff160217905550808273ffffffffffffffffffffffffffffffffffffffff166112cd8361095f565b73ffffffffffffffffffffffffffffffffffffffff167f8c5be1e5ebec7d5bd14f71427d1e84f3dd0314c0f7b2291e5b200ac8c7c3b92560405160405180910390a45050565b600061131e826111e6565b61135d576040517f08c379a000000000000000000000000000000000000000000000000000000000815260040161135490613158565b60405180910390fd5b60006113688361095f565b90508073ffffffffffffffffffffffffffffffffffffffff168473ffffffffffffffffffffffffffffffffffffffff1614806113d757508373ffffffffffffffffffffffffffffffffffffffff166113bf846105d3565b73ffffffffffffffffffffffffffffffffffffffff16145b806113e857506113e78185610dc7565b5b91505092915050565b8273ffffffffffffffffffffffffffffffffffffffff166114118261095f565b73ffffffffffffffffffffffffffffffffffffffff1614611467576040517f08c379a000000000000000000000000000000000000000000000000000000000815260040161145e90613298565b60405180910390fd5b600073ffffffffffffffffffffffffffffffffffffffff168273ffffffffffffffffffffffffffffffffffffffff1614156114d7576040517f08c379a00000000000000000000000000000000000000000000000000000000081526004016114ce90613118565b60405180910390fd5b6114e2838383611bb8565b6114ed60008261125a565b6001600360008573ffffffffffffffffffffffffffffffffffffffff1673ffffffffffffffffffffffffffffffffffffffff168152602001908152602001600020600082825461153d91906134fd565b925050819055506001600360008473ffffffffffffffffffffffffffffffffffffffff1673ffffffffffffffffffffffffffffffffffffffff16815260200190815260200160002060008282546115949190613476565b92505081905550816002600083815260200190815260200160002060006101000a81548173ffffffffffffffffffffffffffffffffffffffff021916908373ffffffffffffffffffffffffffffffffffffffff160217905550808273ffffffffffffffffffffffffffffffffffffffff168473ffffffffffffffffffffffffffffffffffffffff167fddf252ad1be2c89b69c2b068fc378daa952ba7f163c4a11628f55a4df523b3ef60405160405180910390a4505050565b6000600b60009054906101000a900473ffffffffffffffffffffffffffffffffffffffff16905081600b60006101000a81548173ffffffffffffffffffffffffffffffffffffffff021916908373ffffffffffffffffffffffffffffffffffffffff1602179055508173ffffffffffffffffffffffffffffffffffffffff168173ffffffffffffffffffffffffffffffffffffffff167f8be0079c531659141344cd1fd0a4f28419497f9722a3daafe3b4186f6b6457e060405160405180910390a35050565b8173ffffffffffffffffffffffffffffffffffffffff168373ffffffffffffffffffffffffffffffffffffffff161415611782576040517f08c379a000000000000000000000000000000000000000000000000000000000815260040161177990613138565b60405180910390fd5b80600560008573ffffffffffffffffffffffffffffffffffffffff1673ffffffffffffffffffffffffffffffffffffffff16815260200190815260200160002060008473ffffffffffffffffffffffffffffffffffffffff1673ffffffffffffffffffffffffffffffffffffffff16815260200190815260200160002060006101000a81548160ff0219169083151502179055508173ffffffffffffffffffffffffffffffffffffffff168373ffffffffffffffffffffffffffffffffffffffff167f17307eab39ab6107e8899845ad3d59bd9653f200f220920489ca2b5937696c3183604051611873919061305b565b60405180910390a3505050565b61188b8484846113f1565b61189784848484611bc8565b6118d6576040517f08c379a00000000000000000000000000000000000000000000000000000000081526004016118cd906130b8565b60405180910390fd5b50505050565b60606118e7826111e6565b611926576040517f08c379a000000000000000000000000000000000000000000000000000000000815260040161191d90613218565b60405180910390fd5b6000600a60008481526020019081526020016000208054611946906135e7565b80601f0160208091040260200160405190810160405280929190818152602001828054611972906135e7565b80156119bf5780601f10611994576101008083540402835291602001916119bf565b820191906000526020600020905b8154815290600101906020018083116119a257829003601f168201915b5050505050905060006119d0611d5f565b90506000815114156119e6578192505050611a29565b600082511115611a1b578082604051602001611a03929190612fae565b60405160208183030381529060405292505050611a29565b611a2484611d76565b925050505b919050565b6001816000016000828254019250508190555050565b611a5e828260405180602001604052806000815250611e1d565b5050565b611a6b826111e6565b611aaa576040517f08c379a0000000000000000000000000000000000000000000000000000000008152600401611aa1906131d8565b60405180910390fd5b80600a60008481526020019081526020016000209080519060200190611ad1929190612701565b505050565b60007f80ac58cd000000000000000000000000000000000000000000000000000000007bffffffffffffffffffffffffffffffffffffffffffffffffffffffff1916827bffffffffffffffffffffffffffffffffffffffffffffffffffffffff19161480611ba157507f5b5e139f000000000000000000000000000000000000000000000000000000007bffffffffffffffffffffffffffffffffffffffffffffffffffffffff1916827bffffffffffffffffffffffffffffffffffffffffffffffffffffffff1916145b80611bb15750611bb082611e78565b5b9050919050565b611bc3838383611ee2565b505050565b6000611be98473ffffffffffffffffffffffffffffffffffffffff16611ff6565b15611d52578373ffffffffffffffffffffffffffffffffffffffff1663150b7a02611c12611252565b8786866040518563ffffffff1660e01b8152600401611c349493929190612fed565b602060405180830381600087803b158015611c4e57600080fd5b505af1925050508015611c7f57506040513d601f19601f82011682018060405250810190611c7c9190612aad565b60015b611d02573d8060008114611caf576040519150601f19603f3d011682016040523d82523d6000602084013e611cb4565b606091505b50600081511415611cfa576040517f08c379a0000000000000000000000000000000000000000000000000000000008152600401611cf1906130b8565b60405180910390fd5b805181602001fd5b63150b7a0260e01b7bffffffffffffffffffffffffffffffffffffffffffffffffffffffff1916817bffffffffffffffffffffffffffffffffffffffffffffffffffffffff191614915050611d57565b600190505b949350505050565b606060405180602001604052806000815250905090565b6060611d81826111e6565b611dc0576040517f08c379a0000000000000000000000000000000000000000000000000000000008152600401611db7906132b8565b60405180910390fd5b6000611dca611d5f565b90506000815111611dea5760405180602001604052806000815250611e15565b80611df484612009565b604051602001611e05929190612fae565b6040516020818303038152906040525b915050919050565b611e2783836121b6565b611e346000848484611bc8565b611e73576040517f08c379a0000000000000000000000000000000000000000000000000000000008152600401611e6a906130b8565b60405180910390fd5b505050565b60007f01ffc9a7000000000000000000000000000000000000000000000000000000007bffffffffffffffffffffffffffffffffffffffffffffffffffffffff1916827bffffffffffffffffffffffffffffffffffffffffffffffffffffffff1916149050919050565b611eed838383612384565b600073ffffffffffffffffffffffffffffffffffffffff168373ffffffffffffffffffffffffffffffffffffffff161415611f3057611f2b81612389565b611f6f565b8173ffffffffffffffffffffffffffffffffffffffff168373ffffffffffffffffffffffffffffffffffffffff1614611f6e57611f6d83826123d2565b5b5b600073ffffffffffffffffffffffffffffffffffffffff168273ffffffffffffffffffffffffffffffffffffffff161415611fb257611fad8161253f565b611ff1565b8273ffffffffffffffffffffffffffffffffffffffff168273ffffffffffffffffffffffffffffffffffffffff1614611ff057611fef8282612682565b5b5b505050565b600080823b905060008111915050919050565b60606000821415612051576040518060400160405280600181526020017f300000000000000000000000000000000000000000000000000000000000000081525090506121b1565b600082905060005b6000821461208357808061206c9061364a565b915050600a8261207c91906134cc565b9150612059565b60008167ffffffffffffffff8111156120c5577f4e487b7100000000000000000000000000000000000000000000000000000000600052604160045260246000fd5b6040519080825280601f01601f1916602001820160405280156120f75781602001600182028036833780820191505090505b5090505b600085146121aa5760018261211091906134fd565b9150600a8561211f9190613693565b603061212b9190613476565b60f81b818381518110612167577f4e487b7100000000000000000000000000000000000000000000000000000000600052603260045260246000fd5b60200101907effffffffffffffffffffffffffffffffffffffffffffffffffffffffffffff1916908160001a905350600a856121a391906134cc565b94506120fb565b8093505050505b919050565b600073ffffffffffffffffffffffffffffffffffffffff168273ffffffffffffffffffffffffffffffffffffffff161415612226576040517f08c379a000000000000000000000000000000000000000000000000000000000815260040161221d906131f8565b60405180910390fd5b61222f816111e6565b1561226f576040517f08c379a0000000000000000000000000000000000000000000000000000000008152600401612266906130f8565b60405180910390fd5b61227b60008383611bb8565b6001600360008473ffffffffffffffffffffffffffffffffffffffff1673ffffffffffffffffffffffffffffffffffffffff16815260200190815260200160002060008282546122cb9190613476565b92505081905550816002600083815260200190815260200160002060006101000a81548173ffffffffffffffffffffffffffffffffffffffff021916908373ffffffffffffffffffffffffffffffffffffffff160217905550808273ffffffffffffffffffffffffffffffffffffffff16600073ffffffffffffffffffffffffffffffffffffffff167fddf252ad1be2c89b69c2b068fc378daa952ba7f163c4a11628f55a4df523b3ef60405160405180910390a45050565b505050565b6008805490506009600083815260200190815260200160002081905550600881908060018154018082558091505060019003906000526020600020016000909190919091505550565b600060016123df84610a11565b6123e991906134fd565b90506000600760008481526020019081526020016000205490508181146124ce576000600660008673ffffffffffffffffffffffffffffffffffffffff1673ffffffffffffffffffffffffffffffffffffffff168152602001908152602001600020600084815260200190815260200160002054905080600660008773ffffffffffffffffffffffffffffffffffffffff1673ffffffffffffffffffffffffffffffffffffffff168152602001908152602001600020600084815260200190815260200160002081905550816007600083815260200190815260200160002081905550505b6007600084815260200190815260200160002060009055600660008573ffffffffffffffffffffffffffffffffffffffff1673ffffffffffffffffffffffffffffffffffffffff16815260200190815260200160002060008381526020019081526020016000206000905550505050565b6000600160088054905061255391906134fd565b90506000600960008481526020019081526020016000205490506000600883815481106125a9577f4e487b7100000000000000000000000000000000000000000000000000000000600052603260045260246000fd5b9060005260206000200154905080600883815481106125f1577f4e487b7100000000000000000000000000000000000000000000000000000000600052603260045260246000fd5b906000526020600020018190555081600960008381526020019081526020016000208190555060096000858152602001908152602001600020600090556008805480612666577f4e487b7100000000000000000000000000000000000000000000000000000000600052603160045260246000fd5b6001900381819060005260206000200160009055905550505050565b600061268d83610a11565b905081600660008573ffffffffffffffffffffffffffffffffffffffff1673ffffffffffffffffffffffffffffffffffffffff168152602001908152602001600020600083815260200190815260200160002081905550806007600084815260200190815260200160002081905550505050565b82805461270d906135e7565b90600052602060002090601f01602090048101928261272f5760008555612776565b82601f1061274857805160ff1916838001178555612776565b82800160010185558215612776579182015b8281111561277557825182559160200191906001019061275a565b5b5090506127839190612787565b5090565b5b808211156127a0576000816000905550600101612788565b5090565b60006127b76127b284613398565b613373565b9050828152602081018484840111156127cf57600080fd5b6127da8482856135a5565b509392505050565b60006127f56127f0846133c9565b613373565b90508281526020810184848401111561280d57600080fd5b6128188482856135a5565b509392505050565b60008135905061282f81613d77565b92915050565b60008135905061284481613d8e565b92915050565b60008135905061285981613da5565b92915050565b60008151905061286e81613da5565b92915050565b600082601f83011261288557600080fd5b81356128958482602086016127a4565b91505092915050565b600082601f8301126128af57600080fd5b81356128bf8482602086016127e2565b91505092915050565b6000813590506128d781613dbc565b92915050565b6000602082840312156128ef57600080fd5b60006128fd84828501612820565b91505092915050565b6000806040838503121561291957600080fd5b600061292785828601612820565b925050602061293885828601612820565b9150509250929050565b60008060006060848603121561295757600080fd5b600061296586828701612820565b935050602061297686828701612820565b9250506040612987868287016128c8565b9150509250925092565b600080600080608085870312156129a757600080fd5b60006129b587828801612820565b94505060206129c687828801612820565b93505060406129d7878288016128c8565b925050606085013567ffffffffffffffff8111156129f457600080fd5b612a0087828801612874565b91505092959194509250565b60008060408385031215612a1f57600080fd5b6000612a2d85828601612820565b9250506020612a3e85828601612835565b9150509250929050565b60008060408385031215612a5b57600080fd5b6000612a6985828601612820565b9250506020612a7a858286016128c8565b9150509250929050565b600060208284031215612a9657600080fd5b6000612aa48482850161284a565b91505092915050565b600060208284031215612abf57600080fd5b6000612acd8482850161285f565b91505092915050565b600060208284031215612ae857600080fd5b600082013567ffffffffffffffff811115612b0257600080fd5b612b0e8482850161289e565b91505092915050565b600060208284031215612b2957600080fd5b6000612b37848285016128c8565b91505092915050565b6000612b4c8383612f79565b60208301905092915050565b612b6181613531565b82525050565b6000612b728261340a565b612b7c8185613438565b9350612b87836133fa565b8060005b83811015612bb8578151612b9f8882612b40565b9750612baa8361342b565b925050600181019050612b8b565b5085935050505092915050565b612bce81613543565b82525050565b6000612bdf82613415565b612be98185613449565b9350612bf98185602086016135b4565b612c0281613780565b840191505092915050565b6000612c1882613420565b612c22818561345a565b9350612c328185602086016135b4565b612c3b81613780565b840191505092915050565b6000612c5182613420565b612c5b818561346b565b9350612c6b8185602086016135b4565b80840191505092915050565b6000612c84602b8361345a565b9150612c8f82613791565b604082019050919050565b6000612ca760328361345a565b9150612cb2826137e0565b604082019050919050565b6000612cca60268361345a565b9150612cd58261382f565b604082019050919050565b6000612ced601c8361345a565b9150612cf88261387e565b602082019050919050565b6000612d1060248361345a565b9150612d1b826138a7565b604082019050919050565b6000612d3360198361345a565b9150612d3e826138f6565b602082019050919050565b6000612d56602c8361345a565b9150612d618261391f565b604082019050919050565b6000612d7960388361345a565b9150612d848261396e565b604082019050919050565b6000612d9c602a8361345a565b9150612da7826139bd565b604082019050919050565b6000612dbf60298361345a565b9150612dca82613a0c565b604082019050919050565b6000612de2602e8361345a565b9150612ded82613a5b565b604082019050919050565b6000612e0560208361345a565b9150612e1082613aaa565b602082019050919050565b6000612e2860318361345a565b9150612e3382613ad3565b604082019050919050565b6000612e4b601d8361345a565b9150612e5682613b22565b602082019050919050565b6000612e6e602c8361345a565b9150612e7982613b4b565b604082019050919050565b6000612e9160208361345a565b9150612e9c82613b9a565b602082019050919050565b6000612eb460298361345a565b9150612ebf82613bc3565b604082019050919050565b6000612ed7602f8361345a565b9150612ee282613c12565b604082019050919050565b6000612efa60218361345a565b9150612f0582613c61565b604082019050919050565b6000612f1d601b8361345a565b9150612f2882613cb0565b602082019050919050565b6000612f4060318361345a565b9150612f4b82613cd9565b604082019050919050565b6000612f63602c8361345a565b9150612f6e82613d28565b604082019050919050565b612f828161359b565b82525050565b612f918161359b565b82525050565b6000612fa38284612c46565b915081905092915050565b6000612fba8285612c46565b9150612fc68284612c46565b91508190509392505050565b6000602082019050612fe76000830184612b58565b92915050565b60006080820190506130026000830187612b58565b61300f6020830186612b58565b61301c6040830185612f88565b818103606083015261302e8184612bd4565b905095945050505050565b600060208201905081810360008301526130538184612b67565b905092915050565b60006020820190506130706000830184612bc5565b92915050565b600060208201905081810360008301526130908184612c0d565b905092915050565b600060208201905081810360008301526130b181612c77565b9050919050565b600060208201905081810360008301526130d181612c9a565b9050919050565b600060208201905081810360008301526130f181612cbd565b9050919050565b6000602082019050818103600083015261311181612ce0565b9050919050565b6000602082019050818103600083015261313181612d03565b9050919050565b6000602082019050818103600083015261315181612d26565b9050919050565b6000602082019050818103600083015261317181612d49565b9050919050565b6000602082019050818103600083015261319181612d6c565b9050919050565b600060208201905081810360008301526131b181612d8f565b9050919050565b600060208201905081810360008301526131d181612db2565b9050919050565b600060208201905081810360008301526131f181612dd5565b9050919050565b6000602082019050818103600083015261321181612df8565b9050919050565b6000602082019050818103600083015261323181612e1b565b9050919050565b6000602082019050818103600083015261325181612e3e565b9050919050565b6000602082019050818103600083015261327181612e61565b9050919050565b6000602082019050818103600083015261329181612e84565b9050919050565b600060208201905081810360008301526132b181612ea7565b9050919050565b600060208201905081810360008301526132d181612eca565b9050919050565b600060208201905081810360008301526132f181612eed565b9050919050565b6000602082019050818103600083015261331181612f10565b9050919050565b6000602082019050818103600083015261333181612f33565b9050919050565b6000602082019050818103600083015261335181612f56565b9050919050565b600060208201905061336d6000830184612f88565b92915050565b600061337d61338e565b90506133898282613619565b919050565b6000604051905090565b600067ffffffffffffffff8211156133b3576133b2613751565b5b6133bc82613780565b9050602081019050919050565b600067ffffffffffffffff8211156133e4576133e3613751565b5b6133ed82613780565b9050602081019050919050565b6000819050602082019050919050565b600081519050919050565b600081519050919050565b600081519050919050565b6000602082019050919050565b600082825260208201905092915050565b600082825260208201905092915050565b600082825260208201905092915050565b600081905092915050565b60006134818261359b565b915061348c8361359b565b9250827fffffffffffffffffffffffffffffffffffffffffffffffffffffffffffffffff038211156134c1576134c06136c4565b5b828201905092915050565b60006134d78261359b565b91506134e28361359b565b9250826134f2576134f16136f3565b5b828204905092915050565b60006135088261359b565b91506135138361359b565b925082821015613526576135256136c4565b5b828203905092915050565b600061353c8261357b565b9050919050565b60008115159050919050565b60007fffffffff0000000000000000000000000000000000000000000000000000000082169050919050565b600073ffffffffffffffffffffffffffffffffffffffff82169050919050565b6000819050919050565b82818337600083830152505050565b60005b838110156135d25780820151818401526020810190506135b7565b838111156135e1576000848401525b50505050565b600060028204905060018216806135ff57607f821691505b6020821081141561361357613612613722565b5b50919050565b61362282613780565b810181811067ffffffffffffffff8211171561364157613640613751565b5b80604052505050565b60006136558261359b565b91507fffffffffffffffffffffffffffffffffffffffffffffffffffffffffffffffff821415613688576136876136c4565b5b600182019050919050565b600061369e8261359b565b91506136a98361359b565b9250826136b9576136b86136f3565b5b828206905092915050565b7f4e487b7100000000000000000000000000000000000000000000000000000000600052601160045260246000fd5b7f4e487b7100000000000000000000000000000000000000000000000000000000600052601260045260246000fd5b7f4e487b7100000000000000000000000000000000000000000000000000000000600052602260045260246000fd5b7f4e487b7100000000000000000000000000000000000000000000000000000000600052604160045260246000fd5b6000601f19601f8301169050919050565b7f455243373231456e756d657261626c653a206f776e657220696e646578206f7560008201527f74206f6620626f756e6473000000000000000000000000000000000000000000602082015250565b7f4552433732313a207472616e7366657220746f206e6f6e20455243373231526560008201527f63656976657220696d706c656d656e7465720000000000000000000000000000602082015250565b7f4f776e61626c653a206e6577206f776e657220697320746865207a65726f206160008201527f6464726573730000000000000000000000000000000000000000000000000000602082015250565b7f4552433732313a20746f6b656e20616c7265616479206d696e74656400000000600082015250565b7f4552433732313a207472616e7366657220746f20746865207a65726f2061646460008201527f7265737300000000000000000000000000000000000000000000000000000000602082015250565b7f4552433732313a20617070726f766520746f2063616c6c657200000000000000600082015250565b7f4552433732313a206f70657261746f7220717565727920666f72206e6f6e657860008201527f697374656e7420746f6b656e0000000000000000000000000000000000000000602082015250565b7f4552433732313a20617070726f76652063616c6c6572206973206e6f74206f7760008201527f6e6572206e6f7220617070726f76656420666f7220616c6c0000000000000000602082015250565b7f4552433732313a2062616c616e636520717565727920666f7220746865207a6560008201527f726f206164647265737300000000000000000000000000000000000000000000602082015250565b7f4552433732313a206f776e657220717565727920666f72206e6f6e657869737460008201527f656e7420746f6b656e0000000000000000000000000000000000000000000000602082015250565b7f45524337323155524953746f726167653a2055524920736574206f66206e6f6e60008201527f6578697374656e7420746f6b656e000000000000000000000000000000000000602082015250565b7f4552433732313a206d696e7420746f20746865207a65726f2061646472657373600082015250565b7f45524337323155524953746f726167653a2055524920717565727920666f722060008201527f6e6f6e6578697374656e7420746f6b656e000000000000000000000000000000602082015250565b7f4d696e7465723a206164647265737320616c7265616479207573656421000000600082015250565b7f4552433732313a20617070726f76656420717565727920666f72206e6f6e657860008201527f697374656e7420746f6b656e0000000000000000000000000000000000000000602082015250565b7f4f776e61626c653a2063616c6c6572206973206e6f7420746865206f776e6572600082015250565b7f4552433732313a207472616e73666572206f6620746f6b656e2074686174206960008201527f73206e6f74206f776e0000000000000000000000000000000000000000000000602082015250565b7f4552433732314d657461646174613a2055524920717565727920666f72206e6f60008201527f6e6578697374656e7420746f6b656e0000000000000000000000000000000000602082015250565b7f4552433732313a20617070726f76616c20746f2063757272656e74206f776e6560008201527f7200000000000000000000000000000000000000000000000000000000000000602082015250565b7f4d696e7465723a204e465420616c7265616479206d696e746564210000000000600082015250565b7f4552433732313a207472616e736665722063616c6c6572206973206e6f74206f60008201527f776e6572206e6f7220617070726f766564000000000000000000000000000000602082015250565b7f455243373231456e756d657261626c653a20676c6f62616c20696e646578206f60008201527f7574206f6620626f756e64730000000000000000000000000000000000000000602082015250565b613d8081613531565b8114613d8b57600080fd5b50565b613d9781613543565b8114613da257600080fd5b50565b613dae8161354f565b8114613db957600080fd5b50565b613dc58161359b565b8114613dd057600080fd5b5056fea264697066735822122011e5339966a89270ac70ab000ec417c9628d91134449a6ccf116e7489f4e6b2964736f6c63430008040033",
  "linkReferences": {},
  "deployedLinkReferences": {}
}