{
  "_format": "hh-sol-artifact-1",
  "contractName": "Minter",
  "sourceName": "contracts/Minter.sol",
  "abi": [
    {
      "inputs": [],
      "stateMutability": "nonpayable",
      "type": "constructor"
    },
    {
      "anonymous": false,
      "inputs": [
        {
          "indexed": true,
          "internalType": "address",
          "name": "owner",
          "type": "address"
        },
        {
          "indexed": true,
          "internalType": "address",
          "name": "approved",
          "type": "address"
        },
        {
          "indexed": true,
          "internalType": "uint256",
          "name": "tokenId",
          "type": "uint256"
        }
      ],
      "name": "Approval",
      "type": "event"
    },
    {
      "anonymous": false,
      "inputs": [
        {
          "indexed": true,
          "internalType": "address",
          "name": "owner",
          "type": "address"
        },
        {
          "indexed": true,
          "internalType": "address",
          "name": "operator",
          "type": "address"
        },
        {
          "indexed": false,
          "internalType": "bool",
          "name": "approved",
          "type": "bool"
        }
      ],
      "name": "ApprovalForAll",
      "type": "event"
    },
    {
      "anonymous": false,
      "inputs": [
        {
          "indexed": true,
          "internalType": "address",
          "name": "previousOwner",
          "type": "address"
        },
        {
          "indexed": true,
          "internalType": "address",
          "name": "newOwner",
          "type": "address"
        }
      ],
      "name": "OwnershipTransferred",
      "type": "event"
    },
    {
      "anonymous": false,
      "inputs": [
        {
          "indexed": true,
          "internalType": "address",
          "name": "from",
          "type": "address"
        },
        {
          "indexed": true,
          "internalType": "address",
          "name": "to",
          "type": "address"
        },
        {
          "indexed": true,
          "internalType": "uint256",
          "name": "tokenId",
          "type": "uint256"
        }
      ],
      "name": "Transfer",
      "type": "event"
    },
    {
      "inputs": [
        {
          "internalType": "address",
          "name": "to",
          "type": "address"
        },
        {
          "internalType": "uint256",
          "name": "tokenId",
          "type": "uint256"
        }
      ],
      "name": "approve",
      "outputs": [],
      "stateMutability": "nonpayable",
      "type": "function"
    },
    {
      "inputs": [
        {
          "internalType": "address",
          "name": "owner",
          "type": "address"
        }
      ],
      "name": "balanceOf",
      "outputs": [
        {
          "internalType": "uint256",
          "name": "",
          "type": "uint256"
        }
      ],
      "stateMutability": "view",
      "type": "function"
    },
    {
      "inputs": [
        {
          "internalType": "uint256",
          "name": "tokenId",
          "type": "uint256"
        }
      ],
      "name": "getApproved",
      "outputs": [
        {
          "internalType": "address",
          "name": "",
          "type": "address"
        }
      ],
      "stateMutability": "view",
      "type": "function"
    },
    {
      "inputs": [
        {
          "internalType": "address",
          "name": "owner",
          "type": "address"
        },
        {
          "internalType": "address",
          "name": "operator",
          "type": "address"
        }
      ],
      "name": "isApprovedForAll",
      "outputs": [
        {
          "internalType": "bool",
          "name": "",
          "type": "bool"
        }
      ],
      "stateMutability": "view",
      "type": "function"
    },
    {
      "inputs": [
        {
          "internalType": "address",
          "name": "to",
          "type": "address"
        },
        {
          "internalType": "string",
          "name": "uri",
          "type": "string"
        }
      ],
      "name": "mintNFT",
      "outputs": [
        {
          "internalType": "uint256",
          "name": "",
          "type": "uint256"
        }
      ],
      "stateMutability": "nonpayable",
      "type": "function"
    },
    {
      "inputs": [
        {
          "internalType": "string",
          "name": "",
          "type": "string"
        }
      ],
      "name": "mintedURIs",
      "outputs": [
        {
          "internalType": "bool",
          "name": "",
          "type": "bool"
        }
      ],
      "stateMutability": "view",
      "type": "function"
    },
    {
      "inputs": [],
      "name": "name",
      "outputs": [
        {
          "internalType": "string",
          "name": "",
          "type": "string"
        }
      ],
      "stateMutability": "view",
      "type": "function"
    },
    {
      "inputs": [],
      "name": "owner",
      "outputs": [
        {
          "internalType": "address",
          "name": "",
          "type": "address"
        }
      ],
      "stateMutability": "view",
      "type": "function"
    },
    {
      "inputs": [
        {
          "internalType": "uint256",
          "name": "tokenId",
          "type": "uint256"
        }
      ],
      "name": "ownerOf",
      "outputs": [
        {
          "internalType": "address",
          "name": "",
          "type": "address"
        }
      ],
      "stateMutability": "view",
      "type": "function"
    },
    {
      "inputs": [],
      "name": "renounceOwnership",
      "outputs": [],
      "stateMutability": "nonpayable",
      "type": "function"
    },
    {
      "inputs": [
        {
          "internalType": "address",
          "name": "from",
          "type": "address"
        },
        {
          "internalType": "address",
          "name": "to",
          "type": "address"
        },
        {
          "internalType": "uint256",
          "name": "tokenId",
          "type": "uint256"
        }
      ],
      "name": "safeTransferFrom",
      "outputs": [],
      "stateMutability": "nonpayable",
      "type": "function"
    },
    {
      "inputs": [
        {
          "internalType": "address",
          "name": "from",
          "type": "address"
        },
        {
          "internalType": "address",
          "name": "to",
          "type": "address"
        },
        {
          "internalType": "uint256",
          "name": "tokenId",
          "type": "uint256"
        },
        {
          "internalType": "bytes",
          "name": "_data",
          "type": "bytes"
        }
      ],
      "name": "safeTransferFrom",
      "outputs": [],
      "stateMutability": "nonpayable",
      "type": "function"
    },
    {
      "inputs": [
        {
          "internalType": "address",
          "name": "operator",
          "type": "address"
        },
        {
          "internalType": "bool",
          "name": "approved",
          "type": "bool"
        }
      ],
      "name": "setApprovalForAll",
      "outputs": [],
      "stateMutability": "nonpayable",
      "type": "function"
    },
    {
      "inputs": [
        {
          "internalType": "bytes4",
          "name": "interfaceId",
          "type": "bytes4"
        }
      ],
      "name": "supportsInterface",
      "outputs": [
        {
          "internalType": "bool",
          "name": "",
          "type": "bool"
        }
      ],
      "stateMutability": "view",
      "type": "function"
    },
    {
      "inputs": [],
      "name": "symbol",
      "outputs": [
        {
          "internalType": "string",
          "name": "",
          "type": "string"
        }
      ],
      "stateMutability": "view",
      "type": "function"
    },
    {
      "inputs": [
        {
          "internalType": "uint256",
          "name": "tokenId",
          "type": "uint256"
        }
      ],
      "name": "tokenURI",
      "outputs": [
        {
          "internalType": "string",
          "name": "",
          "type": "string"
        }
      ],
      "stateMutability": "view",
      "type": "function"
    },
    {
      "inputs": [
        {
          "internalType": "address",
          "name": "from",
          "type": "address"
        },
        {
          "internalType": "address",
          "name": "to",
          "type": "address"
        },
        {
          "internalType": "uint256",
          "name": "tokenId",
          "type": "uint256"
        }
      ],
      "name": "transferFrom",
      "outputs": [],
      "stateMutability": "nonpayable",
      "type": "function"
    },
    {
      "inputs": [
        {
          "internalType": "address",
          "name": "newOwner",
          "type": "address"
        }
      ],
      "name": "transferOwnership",
      "outputs": [],
      "stateMutability": "nonpayable",
      "type": "function"
    }
  ],
  "bytecode": "0x60806040523480156200001157600080fd5b506040518060400160405280600d81526020017f43727970746f4368616e676f73000000000000000000000000000000000000008152506040518060400160405280600281526020017f4343000000000000000000000000000000000000000000000000000000000000815250816000908051906020019062000096929190620001a6565b508060019080519060200190620000af929190620001a6565b505050620000d2620000c6620000d860201b60201c565b620000e060201b60201c565b620002bb565b600033905090565b6000600760009054906101000a900473ffffffffffffffffffffffffffffffffffffffff16905081600760006101000a81548173ffffffffffffffffffffffffffffffffffffffff021916908373ffffffffffffffffffffffffffffffffffffffff1602179055508173ffffffffffffffffffffffffffffffffffffffff168173ffffffffffffffffffffffffffffffffffffffff167f8be0079c531659141344cd1fd0a4f28419497f9722a3daafe3b4186f6b6457e060405160405180910390a35050565b828054620001b49062000256565b90600052602060002090601f016020900481019282620001d8576000855562000224565b82601f10620001f357805160ff191683800117855562000224565b8280016001018555821562000224579182015b828111156200022357825182559160200191906001019062000206565b5b50905062000233919062000237565b5090565b5b808211156200025257600081600090555060010162000238565b5090565b600060028204905060018216806200026f57607f821691505b602082108114156200028657620002856200028c565b5b50919050565b7f4e487b7100000000000000000000000000000000000000000000000000000000600052602260045260246000fd5b6131a980620002cb6000396000f3fe608060405234801561001057600080fd5b50600436106101165760003560e01c80638da5cb5b116100a2578063c87b56dd11610071578063c87b56dd146102cb578063e8732afc146102fb578063e985e9c51461032b578063eacabe141461035b578063f2fde38b1461038b57610116565b80638da5cb5b1461025757806395d89b4114610275578063a22cb46514610293578063b88d4fde146102af57610116565b806323b872dd116100e957806323b872dd146101b557806342842e0e146101d15780636352211e146101ed57806370a082311461021d578063715018a61461024d57610116565b806301ffc9a71461011b57806306fdde031461014b578063081812fc14610169578063095ea7b314610199575b600080fd5b61013560048036038101906101309190612094565b6103a7565b604051610142919061255b565b60405180910390f35b610153610489565b6040516101609190612576565b60405180910390f35b610183600480360381019061017e9190612127565b61051b565b60405161019091906124f4565b60405180910390f35b6101b360048036038101906101ae9190612058565b6105a0565b005b6101cf60048036038101906101ca9190611efe565b6106b8565b005b6101eb60048036038101906101e69190611efe565b610718565b005b61020760048036038101906102029190612127565b610738565b60405161021491906124f4565b60405180910390f35b61023760048036038101906102329190611e99565b6107ea565b60405161024491906127f8565b60405180910390f35b6102556108a2565b005b61025f61092a565b60405161026c91906124f4565b60405180910390f35b61027d610954565b60405161028a9190612576565b60405180910390f35b6102ad60048036038101906102a89190611fc8565b6109e6565b005b6102c960048036038101906102c49190611f4d565b6109fc565b005b6102e560048036038101906102e09190612127565b610a5e565b6040516102f29190612576565b60405180910390f35b610315600480360381019061031091906120e6565b610a70565b604051610322919061255b565b60405180910390f35b61034560048036038101906103409190611ec2565b610aa6565b604051610352919061255b565b60405180910390f35b61037560048036038101906103709190612004565b610b3a565b60405161038291906127f8565b60405180910390f35b6103a560048036038101906103a09190611e99565b610c1a565b005b60007f80ac58cd000000000000000000000000000000000000000000000000000000007bffffffffffffffffffffffffffffffffffffffffffffffffffffffff1916827bffffffffffffffffffffffffffffffffffffffffffffffffffffffff1916148061047257507f5b5e139f000000000000000000000000000000000000000000000000000000007bffffffffffffffffffffffffffffffffffffffffffffffffffffffff1916827bffffffffffffffffffffffffffffffffffffffffffffffffffffffff1916145b80610482575061048182610d12565b5b9050919050565b60606000805461049890612a4e565b80601f01602080910402602001604051908101604052809291908181526020018280546104c490612a4e565b80156105115780601f106104e657610100808354040283529160200191610511565b820191906000526020600020905b8154815290600101906020018083116104f457829003601f168201915b5050505050905090565b600061052682610d7c565b610565576040517f08c379a000000000000000000000000000000000000000000000000000000000815260040161055c90612718565b60405180910390fd5b6004600083815260200190815260200160002060009054906101000a900473ffffffffffffffffffffffffffffffffffffffff169050919050565b60006105ab82610738565b90508073ffffffffffffffffffffffffffffffffffffffff168373ffffffffffffffffffffffffffffffffffffffff16141561061c576040517f08c379a000000000000000000000000000000000000000000000000000000000815260040161061390612798565b60405180910390fd5b8073ffffffffffffffffffffffffffffffffffffffff1661063b610de8565b73ffffffffffffffffffffffffffffffffffffffff16148061066a575061066981610664610de8565b610aa6565b5b6106a9576040517f08c379a00000000000000000000000000000000000000000000000000000000081526004016106a090612658565b60405180910390fd5b6106b38383610df0565b505050565b6106c96106c3610de8565b82610ea9565b610708576040517f08c379a00000000000000000000000000000000000000000000000000000000081526004016106ff906127d8565b60405180910390fd5b610713838383610f87565b505050565b610733838383604051806020016040528060008152506109fc565b505050565b6000806002600084815260200190815260200160002060009054906101000a900473ffffffffffffffffffffffffffffffffffffffff169050600073ffffffffffffffffffffffffffffffffffffffff168173ffffffffffffffffffffffffffffffffffffffff1614156107e1576040517f08c379a00000000000000000000000000000000000000000000000000000000081526004016107d890612698565b60405180910390fd5b80915050919050565b60008073ffffffffffffffffffffffffffffffffffffffff168273ffffffffffffffffffffffffffffffffffffffff16141561085b576040517f08c379a000000000000000000000000000000000000000000000000000000000815260040161085290612678565b60405180910390fd5b600360008373ffffffffffffffffffffffffffffffffffffffff1673ffffffffffffffffffffffffffffffffffffffff168152602001908152602001600020549050919050565b6108aa610de8565b73ffffffffffffffffffffffffffffffffffffffff166108c861092a565b73ffffffffffffffffffffffffffffffffffffffff161461091e576040517f08c379a000000000000000000000000000000000000000000000000000000000815260040161091590612738565b60405180910390fd5b61092860006111e3565b565b6000600760009054906101000a900473ffffffffffffffffffffffffffffffffffffffff16905090565b60606001805461096390612a4e565b80601f016020809104026020016040519081016040528092919081815260200182805461098f90612a4e565b80156109dc5780601f106109b1576101008083540402835291602001916109dc565b820191906000526020600020905b8154815290600101906020018083116109bf57829003601f168201915b5050505050905090565b6109f86109f1610de8565b83836112a9565b5050565b610a0d610a07610de8565b83610ea9565b610a4c576040517f08c379a0000000000000000000000000000000000000000000000000000000008152600401610a43906127d8565b60405180910390fd5b610a5884848484611416565b50505050565b6060610a6982611472565b9050919050565b6009818051602081018201805184825260208301602085012081835280955050505050506000915054906101000a900460ff1681565b6000600560008473ffffffffffffffffffffffffffffffffffffffff1673ffffffffffffffffffffffffffffffffffffffff16815260200190815260200160002060008373ffffffffffffffffffffffffffffffffffffffff1673ffffffffffffffffffffffffffffffffffffffff16815260200190815260200160002060009054906101000a900460ff16905092915050565b6000801515600983604051610b4f91906124b9565b908152602001604051809103902060009054906101000a900460ff16151514610bad576040517f08c379a0000000000000000000000000000000000000000000000000000000008152600401610ba4906127b8565b60405180910390fd5b6001600983604051610bbf91906124b9565b908152602001604051809103902060006101000a81548160ff021916908315150217905550610bee60086115c4565b6000610bfa60086115da565b9050610c0684826115e8565b610c108184611606565b8091505092915050565b610c22610de8565b73ffffffffffffffffffffffffffffffffffffffff16610c4061092a565b73ffffffffffffffffffffffffffffffffffffffff1614610c96576040517f08c379a0000000000000000000000000000000000000000000000000000000008152600401610c8d90612738565b60405180910390fd5b600073ffffffffffffffffffffffffffffffffffffffff168173ffffffffffffffffffffffffffffffffffffffff161415610d06576040517f08c379a0000000000000000000000000000000000000000000000000000000008152600401610cfd906125b8565b60405180910390fd5b610d0f816111e3565b50565b60007f01ffc9a7000000000000000000000000000000000000000000000000000000007bffffffffffffffffffffffffffffffffffffffffffffffffffffffff1916827bffffffffffffffffffffffffffffffffffffffffffffffffffffffff1916149050919050565b60008073ffffffffffffffffffffffffffffffffffffffff166002600084815260200190815260200160002060009054906101000a900473ffffffffffffffffffffffffffffffffffffffff1673ffffffffffffffffffffffffffffffffffffffff1614159050919050565b600033905090565b816004600083815260200190815260200160002060006101000a81548173ffffffffffffffffffffffffffffffffffffffff021916908373ffffffffffffffffffffffffffffffffffffffff160217905550808273ffffffffffffffffffffffffffffffffffffffff16610e6383610738565b73ffffffffffffffffffffffffffffffffffffffff167f8c5be1e5ebec7d5bd14f71427d1e84f3dd0314c0f7b2291e5b200ac8c7c3b92560405160405180910390a45050565b6000610eb482610d7c565b610ef3576040517f08c379a0000000000000000000000000000000000000000000000000000000008152600401610eea90612638565b60405180910390fd5b6000610efe83610738565b90508073ffffffffffffffffffffffffffffffffffffffff168473ffffffffffffffffffffffffffffffffffffffff161480610f6d57508373ffffffffffffffffffffffffffffffffffffffff16610f558461051b565b73ffffffffffffffffffffffffffffffffffffffff16145b80610f7e5750610f7d8185610aa6565b5b91505092915050565b8273ffffffffffffffffffffffffffffffffffffffff16610fa782610738565b73ffffffffffffffffffffffffffffffffffffffff1614610ffd576040517f08c379a0000000000000000000000000000000000000000000000000000000008152600401610ff490612758565b60405180910390fd5b600073ffffffffffffffffffffffffffffffffffffffff168273ffffffffffffffffffffffffffffffffffffffff16141561106d576040517f08c379a0000000000000000000000000000000000000000000000000000000008152600401611064906125f8565b60405180910390fd5b61107883838361167a565b611083600082610df0565b6001600360008573ffffffffffffffffffffffffffffffffffffffff1673ffffffffffffffffffffffffffffffffffffffff16815260200190815260200160002060008282546110d39190612964565b925050819055506001600360008473ffffffffffffffffffffffffffffffffffffffff1673ffffffffffffffffffffffffffffffffffffffff168152602001908152602001600020600082825461112a91906128dd565b92505081905550816002600083815260200190815260200160002060006101000a81548173ffffffffffffffffffffffffffffffffffffffff021916908373ffffffffffffffffffffffffffffffffffffffff160217905550808273ffffffffffffffffffffffffffffffffffffffff168473ffffffffffffffffffffffffffffffffffffffff167fddf252ad1be2c89b69c2b068fc378daa952ba7f163c4a11628f55a4df523b3ef60405160405180910390a4505050565b6000600760009054906101000a900473ffffffffffffffffffffffffffffffffffffffff16905081600760006101000a81548173ffffffffffffffffffffffffffffffffffffffff021916908373ffffffffffffffffffffffffffffffffffffffff1602179055508173ffffffffffffffffffffffffffffffffffffffff168173ffffffffffffffffffffffffffffffffffffffff167f8be0079c531659141344cd1fd0a4f28419497f9722a3daafe3b4186f6b6457e060405160405180910390a35050565b8173ffffffffffffffffffffffffffffffffffffffff168373ffffffffffffffffffffffffffffffffffffffff161415611318576040517f08c379a000000000000000000000000000000000000000000000000000000000815260040161130f90612618565b60405180910390fd5b80600560008573ffffffffffffffffffffffffffffffffffffffff1673ffffffffffffffffffffffffffffffffffffffff16815260200190815260200160002060008473ffffffffffffffffffffffffffffffffffffffff1673ffffffffffffffffffffffffffffffffffffffff16815260200190815260200160002060006101000a81548160ff0219169083151502179055508173ffffffffffffffffffffffffffffffffffffffff168373ffffffffffffffffffffffffffffffffffffffff167f17307eab39ab6107e8899845ad3d59bd9653f200f220920489ca2b5937696c3183604051611409919061255b565b60405180910390a3505050565b611421848484610f87565b61142d8484848461167f565b61146c576040517f08c379a000000000000000000000000000000000000000000000000000000000815260040161146390612598565b60405180910390fd5b50505050565b606061147d82610d7c565b6114bc576040517f08c379a00000000000000000000000000000000000000000000000000000000081526004016114b3906126f8565b60405180910390fd5b60006006600084815260200190815260200160002080546114dc90612a4e565b80601f016020809104026020016040519081016040528092919081815260200182805461150890612a4e565b80156115555780601f1061152a57610100808354040283529160200191611555565b820191906000526020600020905b81548152906001019060200180831161153857829003601f168201915b505050505090506000611566611816565b905060008151141561157c5781925050506115bf565b6000825111156115b15780826040516020016115999291906124d0565b604051602081830303815290604052925050506115bf565b6115ba8461182d565b925050505b919050565b6001816000016000828254019250508190555050565b600081600001549050919050565b6116028282604051806020016040528060008152506118d4565b5050565b61160f82610d7c565b61164e576040517f08c379a0000000000000000000000000000000000000000000000000000000008152600401611645906126b8565b60405180910390fd5b80600660008481526020019081526020016000209080519060200190611675929190611cbd565b505050565b505050565b60006116a08473ffffffffffffffffffffffffffffffffffffffff1661192f565b15611809578373ffffffffffffffffffffffffffffffffffffffff1663150b7a026116c9610de8565b8786866040518563ffffffff1660e01b81526004016116eb949392919061250f565b602060405180830381600087803b15801561170557600080fd5b505af192505050801561173657506040513d601f19601f8201168201806040525081019061173391906120bd565b60015b6117b9573d8060008114611766576040519150601f19603f3d011682016040523d82523d6000602084013e61176b565b606091505b506000815114156117b1576040517f08c379a00000000000000000000000000000000000000000000000000000000081526004016117a890612598565b60405180910390fd5b805181602001fd5b63150b7a0260e01b7bffffffffffffffffffffffffffffffffffffffffffffffffffffffff1916817bffffffffffffffffffffffffffffffffffffffffffffffffffffffff19161491505061180e565b600190505b949350505050565b606060405180602001604052806000815250905090565b606061183882610d7c565b611877576040517f08c379a000000000000000000000000000000000000000000000000000000000815260040161186e90612778565b60405180910390fd5b6000611881611816565b905060008151116118a157604051806020016040528060008152506118cc565b806118ab84611942565b6040516020016118bc9291906124d0565b6040516020818303038152906040525b915050919050565b6118de8383611aef565b6118eb600084848461167f565b61192a576040517f08c379a000000000000000000000000000000000000000000000000000000000815260040161192190612598565b60405180910390fd5b505050565b600080823b905060008111915050919050565b6060600082141561198a576040518060400160405280600181526020017f30000000000000000000000000000000000000000000000000000000000000008152509050611aea565b600082905060005b600082146119bc5780806119a590612ab1565b915050600a826119b59190612933565b9150611992565b60008167ffffffffffffffff8111156119fe577f4e487b7100000000000000000000000000000000000000000000000000000000600052604160045260246000fd5b6040519080825280601f01601f191660200182016040528015611a305781602001600182028036833780820191505090505b5090505b60008514611ae357600182611a499190612964565b9150600a85611a589190612afa565b6030611a6491906128dd565b60f81b818381518110611aa0577f4e487b7100000000000000000000000000000000000000000000000000000000600052603260045260246000fd5b60200101907effffffffffffffffffffffffffffffffffffffffffffffffffffffffffffff1916908160001a905350600a85611adc9190612933565b9450611a34565b8093505050505b919050565b600073ffffffffffffffffffffffffffffffffffffffff168273ffffffffffffffffffffffffffffffffffffffff161415611b5f576040517f08c379a0000000000000000000000000000000000000000000000000000000008152600401611b56906126d8565b60405180910390fd5b611b6881610d7c565b15611ba8576040517f08c379a0000000000000000000000000000000000000000000000000000000008152600401611b9f906125d8565b60405180910390fd5b611bb46000838361167a565b6001600360008473ffffffffffffffffffffffffffffffffffffffff1673ffffffffffffffffffffffffffffffffffffffff1681526020019081526020016000206000828254611c0491906128dd565b92505081905550816002600083815260200190815260200160002060006101000a81548173ffffffffffffffffffffffffffffffffffffffff021916908373ffffffffffffffffffffffffffffffffffffffff160217905550808273ffffffffffffffffffffffffffffffffffffffff16600073ffffffffffffffffffffffffffffffffffffffff167fddf252ad1be2c89b69c2b068fc378daa952ba7f163c4a11628f55a4df523b3ef60405160405180910390a45050565b828054611cc990612a4e565b90600052602060002090601f016020900481019282611ceb5760008555611d32565b82601f10611d0457805160ff1916838001178555611d32565b82800160010185558215611d32579182015b82811115611d31578251825591602001919060010190611d16565b5b509050611d3f9190611d43565b5090565b5b80821115611d5c576000816000905550600101611d44565b5090565b6000611d73611d6e84612838565b612813565b905082815260208101848484011115611d8b57600080fd5b611d96848285612a0c565b509392505050565b6000611db1611dac84612869565b612813565b905082815260208101848484011115611dc957600080fd5b611dd4848285612a0c565b509392505050565b600081359050611deb81613117565b92915050565b600081359050611e008161312e565b92915050565b600081359050611e1581613145565b92915050565b600081519050611e2a81613145565b92915050565b600082601f830112611e4157600080fd5b8135611e51848260208601611d60565b91505092915050565b600082601f830112611e6b57600080fd5b8135611e7b848260208601611d9e565b91505092915050565b600081359050611e938161315c565b92915050565b600060208284031215611eab57600080fd5b6000611eb984828501611ddc565b91505092915050565b60008060408385031215611ed557600080fd5b6000611ee385828601611ddc565b9250506020611ef485828601611ddc565b9150509250929050565b600080600060608486031215611f1357600080fd5b6000611f2186828701611ddc565b9350506020611f3286828701611ddc565b9250506040611f4386828701611e84565b9150509250925092565b60008060008060808587031215611f6357600080fd5b6000611f7187828801611ddc565b9450506020611f8287828801611ddc565b9350506040611f9387828801611e84565b925050606085013567ffffffffffffffff811115611fb057600080fd5b611fbc87828801611e30565b91505092959194509250565b60008060408385031215611fdb57600080fd5b6000611fe985828601611ddc565b9250506020611ffa85828601611df1565b9150509250929050565b6000806040838503121561201757600080fd5b600061202585828601611ddc565b925050602083013567ffffffffffffffff81111561204257600080fd5b61204e85828601611e5a565b9150509250929050565b6000806040838503121561206b57600080fd5b600061207985828601611ddc565b925050602061208a85828601611e84565b9150509250929050565b6000602082840312156120a657600080fd5b60006120b484828501611e06565b91505092915050565b6000602082840312156120cf57600080fd5b60006120dd84828501611e1b565b91505092915050565b6000602082840312156120f857600080fd5b600082013567ffffffffffffffff81111561211257600080fd5b61211e84828501611e5a565b91505092915050565b60006020828403121561213957600080fd5b600061214784828501611e84565b91505092915050565b61215981612998565b82525050565b612168816129aa565b82525050565b60006121798261289a565b61218381856128b0565b9350612193818560208601612a1b565b61219c81612be7565b840191505092915050565b60006121b2826128a5565b6121bc81856128c1565b93506121cc818560208601612a1b565b6121d581612be7565b840191505092915050565b60006121eb826128a5565b6121f581856128d2565b9350612205818560208601612a1b565b80840191505092915050565b600061221e6032836128c1565b915061222982612bf8565b604082019050919050565b60006122416026836128c1565b915061224c82612c47565b604082019050919050565b6000612264601c836128c1565b915061226f82612c96565b602082019050919050565b60006122876024836128c1565b915061229282612cbf565b604082019050919050565b60006122aa6019836128c1565b91506122b582612d0e565b602082019050919050565b60006122cd602c836128c1565b91506122d882612d37565b604082019050919050565b60006122f06038836128c1565b91506122fb82612d86565b604082019050919050565b6000612313602a836128c1565b915061231e82612dd5565b604082019050919050565b60006123366029836128c1565b915061234182612e24565b604082019050919050565b6000612359602e836128c1565b915061236482612e73565b604082019050919050565b600061237c6020836128c1565b915061238782612ec2565b602082019050919050565b600061239f6031836128c1565b91506123aa82612eeb565b604082019050919050565b60006123c2602c836128c1565b91506123cd82612f3a565b604082019050919050565b60006123e56020836128c1565b91506123f082612f89565b602082019050919050565b60006124086029836128c1565b915061241382612fb2565b604082019050919050565b600061242b602f836128c1565b915061243682613001565b604082019050919050565b600061244e6021836128c1565b915061245982613050565b604082019050919050565b6000612471601b836128c1565b915061247c8261309f565b602082019050919050565b60006124946031836128c1565b915061249f826130c8565b604082019050919050565b6124b381612a02565b82525050565b60006124c582846121e0565b915081905092915050565b60006124dc82856121e0565b91506124e882846121e0565b91508190509392505050565b60006020820190506125096000830184612150565b92915050565b60006080820190506125246000830187612150565b6125316020830186612150565b61253e60408301856124aa565b8181036060830152612550818461216e565b905095945050505050565b6000602082019050612570600083018461215f565b92915050565b6000602082019050818103600083015261259081846121a7565b905092915050565b600060208201905081810360008301526125b181612211565b9050919050565b600060208201905081810360008301526125d181612234565b9050919050565b600060208201905081810360008301526125f181612257565b9050919050565b600060208201905081810360008301526126118161227a565b9050919050565b600060208201905081810360008301526126318161229d565b9050919050565b60006020820190508181036000830152612651816122c0565b9050919050565b60006020820190508181036000830152612671816122e3565b9050919050565b6000602082019050818103600083015261269181612306565b9050919050565b600060208201905081810360008301526126b181612329565b9050919050565b600060208201905081810360008301526126d18161234c565b9050919050565b600060208201905081810360008301526126f18161236f565b9050919050565b6000602082019050818103600083015261271181612392565b9050919050565b60006020820190508181036000830152612731816123b5565b9050919050565b60006020820190508181036000830152612751816123d8565b9050919050565b60006020820190508181036000830152612771816123fb565b9050919050565b600060208201905081810360008301526127918161241e565b9050919050565b600060208201905081810360008301526127b181612441565b9050919050565b600060208201905081810360008301526127d181612464565b9050919050565b600060208201905081810360008301526127f181612487565b9050919050565b600060208201905061280d60008301846124aa565b92915050565b600061281d61282e565b90506128298282612a80565b919050565b6000604051905090565b600067ffffffffffffffff82111561285357612852612bb8565b5b61285c82612be7565b9050602081019050919050565b600067ffffffffffffffff82111561288457612883612bb8565b5b61288d82612be7565b9050602081019050919050565b600081519050919050565b600081519050919050565b600082825260208201905092915050565b600082825260208201905092915050565b600081905092915050565b60006128e882612a02565b91506128f383612a02565b9250827fffffffffffffffffffffffffffffffffffffffffffffffffffffffffffffffff0382111561292857612927612b2b565b5b828201905092915050565b600061293e82612a02565b915061294983612a02565b92508261295957612958612b5a565b5b828204905092915050565b600061296f82612a02565b915061297a83612a02565b92508282101561298d5761298c612b2b565b5b828203905092915050565b60006129a3826129e2565b9050919050565b60008115159050919050565b60007fffffffff0000000000000000000000000000000000000000000000000000000082169050919050565b600073ffffffffffffffffffffffffffffffffffffffff82169050919050565b6000819050919050565b82818337600083830152505050565b60005b83811015612a39578082015181840152602081019050612a1e565b83811115612a48576000848401525b50505050565b60006002820490506001821680612a6657607f821691505b60208210811415612a7a57612a79612b89565b5b50919050565b612a8982612be7565b810181811067ffffffffffffffff82111715612aa857612aa7612bb8565b5b80604052505050565b6000612abc82612a02565b91507fffffffffffffffffffffffffffffffffffffffffffffffffffffffffffffffff821415612aef57612aee612b2b565b5b600182019050919050565b6000612b0582612a02565b9150612b1083612a02565b925082612b2057612b1f612b5a565b5b828206905092915050565b7f4e487b7100000000000000000000000000000000000000000000000000000000600052601160045260246000fd5b7f4e487b7100000000000000000000000000000000000000000000000000000000600052601260045260246000fd5b7f4e487b7100000000000000000000000000000000000000000000000000000000600052602260045260246000fd5b7f4e487b7100000000000000000000000000000000000000000000000000000000600052604160045260246000fd5b6000601f19601f8301169050919050565b7f4552433732313a207472616e7366657220746f206e6f6e20455243373231526560008201527f63656976657220696d706c656d656e7465720000000000000000000000000000602082015250565b7f4f776e61626c653a206e6577206f776e657220697320746865207a65726f206160008201527f6464726573730000000000000000000000000000000000000000000000000000602082015250565b7f4552433732313a20746f6b656e20616c7265616479206d696e74656400000000600082015250565b7f4552433732313a207472616e7366657220746f20746865207a65726f2061646460008201527f7265737300000000000000000000000000000000000000000000000000000000602082015250565b7f4552433732313a20617070726f766520746f2063616c6c657200000000000000600082015250565b7f4552433732313a206f70657261746f7220717565727920666f72206e6f6e657860008201527f697374656e7420746f6b656e0000000000000000000000000000000000000000602082015250565b7f4552433732313a20617070726f76652063616c6c6572206973206e6f74206f7760008201527f6e6572206e6f7220617070726f76656420666f7220616c6c0000000000000000602082015250565b7f4552433732313a2062616c616e636520717565727920666f7220746865207a6560008201527f726f206164647265737300000000000000000000000000000000000000000000602082015250565b7f4552433732313a206f776e657220717565727920666f72206e6f6e657869737460008201527f656e7420746f6b656e0000000000000000000000000000000000000000000000602082015250565b7f45524337323155524953746f726167653a2055524920736574206f66206e6f6e60008201527f6578697374656e7420746f6b656e000000000000000000000000000000000000602082015250565b7f4552433732313a206d696e7420746f20746865207a65726f2061646472657373600082015250565b7f45524337323155524953746f726167653a2055524920717565727920666f722060008201527f6e6f6e6578697374656e7420746f6b656e000000000000000000000000000000602082015250565b7f4552433732313a20617070726f76656420717565727920666f72206e6f6e657860008201527f697374656e7420746f6b656e0000000000000000000000000000000000000000602082015250565b7f4f776e61626c653a2063616c6c6572206973206e6f7420746865206f776e6572600082015250565b7f4552433732313a207472616e73666572206f6620746f6b656e2074686174206960008201527f73206e6f74206f776e0000000000000000000000000000000000000000000000602082015250565b7f4552433732314d657461646174613a2055524920717565727920666f72206e6f60008201527f6e6578697374656e7420746f6b656e0000000000000000000000000000000000602082015250565b7f4552433732313a20617070726f76616c20746f2063757272656e74206f776e6560008201527f7200000000000000000000000000000000000000000000000000000000000000602082015250565b7f4d696e7465723a204e465420616c7265616479206d696e746564210000000000600082015250565b7f4552433732313a207472616e736665722063616c6c6572206973206e6f74206f60008201527f776e6572206e6f7220617070726f766564000000000000000000000000000000602082015250565b61312081612998565b811461312b57600080fd5b50565b613137816129aa565b811461314257600080fd5b50565b61314e816129b6565b811461315957600080fd5b50565b61316581612a02565b811461317057600080fd5b5056fea2646970667358221220377635bb62aedb8888413da8fb4840987889f9aedd96005255cf58dc306afd4164736f6c63430008040033",
  "linkReferences": {},
  "deployedLinkReferences": {}
}