{
  "_format": "hh-sol-artifact-1",
  "contractName": "Minter",
  "sourceName": "contracts/Minter.sol",
  "abi": [
    {
      "inputs": [],
      "stateMutability": "nonpayable",
      "type": "constructor"
    },
    {
      "anonymous": false,
      "inputs": [
        {
          "indexed": true,
          "internalType": "address",
          "name": "owner",
          "type": "address"
        },
        {
          "indexed": true,
          "internalType": "address",
          "name": "approved",
          "type": "address"
        },
        {
          "indexed": true,
          "internalType": "uint256",
          "name": "tokenId",
          "type": "uint256"
        }
      ],
      "name": "Approval",
      "type": "event"
    },
    {
      "anonymous": false,
      "inputs": [
        {
          "indexed": true,
          "internalType": "address",
          "name": "owner",
          "type": "address"
        },
        {
          "indexed": true,
          "internalType": "address",
          "name": "operator",
          "type": "address"
        },
        {
          "indexed": false,
          "internalType": "bool",
          "name": "approved",
          "type": "bool"
        }
      ],
      "name": "ApprovalForAll",
      "type": "event"
    },
    {
      "anonymous": false,
      "inputs": [
        {
          "indexed": true,
          "internalType": "address",
          "name": "previousOwner",
          "type": "address"
        },
        {
          "indexed": true,
          "internalType": "address",
          "name": "newOwner",
          "type": "address"
        }
      ],
      "name": "OwnershipTransferred",
      "type": "event"
    },
    {
      "anonymous": false,
      "inputs": [
        {
          "indexed": true,
          "internalType": "address",
          "name": "from",
          "type": "address"
        },
        {
          "indexed": true,
          "internalType": "address",
          "name": "to",
          "type": "address"
        },
        {
          "indexed": true,
          "internalType": "uint256",
          "name": "tokenId",
          "type": "uint256"
        }
      ],
      "name": "Transfer",
      "type": "event"
    },
    {
      "inputs": [],
      "name": "MAX_SUPPLY",
      "outputs": [
        {
          "internalType": "uint256",
          "name": "",
          "type": "uint256"
        }
      ],
      "stateMutability": "view",
      "type": "function"
    },
    {
      "inputs": [
        {
          "internalType": "address",
          "name": "to",
          "type": "address"
        },
        {
          "internalType": "uint256",
          "name": "tokenId",
          "type": "uint256"
        }
      ],
      "name": "approve",
      "outputs": [],
      "stateMutability": "nonpayable",
      "type": "function"
    },
    {
      "inputs": [
        {
          "internalType": "address",
          "name": "owner",
          "type": "address"
        }
      ],
      "name": "balanceOf",
      "outputs": [
        {
          "internalType": "uint256",
          "name": "",
          "type": "uint256"
        }
      ],
      "stateMutability": "view",
      "type": "function"
    },
    {
      "inputs": [],
      "name": "count",
      "outputs": [
        {
          "internalType": "uint256",
          "name": "",
          "type": "uint256"
        }
      ],
      "stateMutability": "view",
      "type": "function"
    },
    {
      "inputs": [
        {
          "internalType": "uint256",
          "name": "tokenId",
          "type": "uint256"
        }
      ],
      "name": "getApproved",
      "outputs": [
        {
          "internalType": "address",
          "name": "",
          "type": "address"
        }
      ],
      "stateMutability": "view",
      "type": "function"
    },
    {
      "inputs": [
        {
          "internalType": "address",
          "name": "owner",
          "type": "address"
        },
        {
          "internalType": "address",
          "name": "operator",
          "type": "address"
        }
      ],
      "name": "isApprovedForAll",
      "outputs": [
        {
          "internalType": "bool",
          "name": "",
          "type": "bool"
        }
      ],
      "stateMutability": "view",
      "type": "function"
    },
    {
      "inputs": [
        {
          "internalType": "string",
          "name": "uri",
          "type": "string"
        }
      ],
      "name": "mintNFT",
      "outputs": [
        {
          "internalType": "uint256",
          "name": "",
          "type": "uint256"
        }
      ],
      "stateMutability": "nonpayable",
      "type": "function"
    },
    {
      "inputs": [
        {
          "internalType": "string",
          "name": "",
          "type": "string"
        }
      ],
      "name": "mintedURIs",
      "outputs": [
        {
          "internalType": "bool",
          "name": "",
          "type": "bool"
        }
      ],
      "stateMutability": "view",
      "type": "function"
    },
    {
      "inputs": [
        {
          "internalType": "address",
          "name": "",
          "type": "address"
        }
      ],
      "name": "minterAddresses",
      "outputs": [
        {
          "internalType": "bool",
          "name": "",
          "type": "bool"
        }
      ],
      "stateMutability": "view",
      "type": "function"
    },
    {
      "inputs": [],
      "name": "name",
      "outputs": [
        {
          "internalType": "string",
          "name": "",
          "type": "string"
        }
      ],
      "stateMutability": "view",
      "type": "function"
    },
    {
      "inputs": [],
      "name": "owner",
      "outputs": [
        {
          "internalType": "address",
          "name": "",
          "type": "address"
        }
      ],
      "stateMutability": "view",
      "type": "function"
    },
    {
      "inputs": [
        {
          "internalType": "uint256",
          "name": "tokenId",
          "type": "uint256"
        }
      ],
      "name": "ownerOf",
      "outputs": [
        {
          "internalType": "address",
          "name": "",
          "type": "address"
        }
      ],
      "stateMutability": "view",
      "type": "function"
    },
    {
      "inputs": [],
      "name": "renounceOwnership",
      "outputs": [],
      "stateMutability": "nonpayable",
      "type": "function"
    },
    {
      "inputs": [
        {
          "internalType": "address",
          "name": "from",
          "type": "address"
        },
        {
          "internalType": "address",
          "name": "to",
          "type": "address"
        },
        {
          "internalType": "uint256",
          "name": "tokenId",
          "type": "uint256"
        }
      ],
      "name": "safeTransferFrom",
      "outputs": [],
      "stateMutability": "nonpayable",
      "type": "function"
    },
    {
      "inputs": [
        {
          "internalType": "address",
          "name": "from",
          "type": "address"
        },
        {
          "internalType": "address",
          "name": "to",
          "type": "address"
        },
        {
          "internalType": "uint256",
          "name": "tokenId",
          "type": "uint256"
        },
        {
          "internalType": "bytes",
          "name": "_data",
          "type": "bytes"
        }
      ],
      "name": "safeTransferFrom",
      "outputs": [],
      "stateMutability": "nonpayable",
      "type": "function"
    },
    {
      "inputs": [
        {
          "internalType": "address",
          "name": "operator",
          "type": "address"
        },
        {
          "internalType": "bool",
          "name": "approved",
          "type": "bool"
        }
      ],
      "name": "setApprovalForAll",
      "outputs": [],
      "stateMutability": "nonpayable",
      "type": "function"
    },
    {
      "inputs": [
        {
          "internalType": "bytes4",
          "name": "interfaceId",
          "type": "bytes4"
        }
      ],
      "name": "supportsInterface",
      "outputs": [
        {
          "internalType": "bool",
          "name": "",
          "type": "bool"
        }
      ],
      "stateMutability": "view",
      "type": "function"
    },
    {
      "inputs": [],
      "name": "symbol",
      "outputs": [
        {
          "internalType": "string",
          "name": "",
          "type": "string"
        }
      ],
      "stateMutability": "view",
      "type": "function"
    },
    {
      "inputs": [
        {
          "internalType": "uint256",
          "name": "index",
          "type": "uint256"
        }
      ],
      "name": "tokenByIndex",
      "outputs": [
        {
          "internalType": "uint256",
          "name": "",
          "type": "uint256"
        }
      ],
      "stateMutability": "view",
      "type": "function"
    },
    {
      "inputs": [
        {
          "internalType": "address",
          "name": "owner",
          "type": "address"
        },
        {
          "internalType": "uint256",
          "name": "index",
          "type": "uint256"
        }
      ],
      "name": "tokenOfOwnerByIndex",
      "outputs": [
        {
          "internalType": "uint256",
          "name": "",
          "type": "uint256"
        }
      ],
      "stateMutability": "view",
      "type": "function"
    },
    {
      "inputs": [
        {
          "internalType": "uint256",
          "name": "tokenId",
          "type": "uint256"
        }
      ],
      "name": "tokenURI",
      "outputs": [
        {
          "internalType": "string",
          "name": "",
          "type": "string"
        }
      ],
      "stateMutability": "view",
      "type": "function"
    },
    {
      "inputs": [
        {
          "internalType": "address",
          "name": "addr",
          "type": "address"
        }
      ],
      "name": "tokensOfOwner",
      "outputs": [
        {
          "internalType": "uint256[]",
          "name": "",
          "type": "uint256[]"
        }
      ],
      "stateMutability": "view",
      "type": "function"
    },
    {
      "inputs": [],
      "name": "totalSupply",
      "outputs": [
        {
          "internalType": "uint256",
          "name": "",
          "type": "uint256"
        }
      ],
      "stateMutability": "view",
      "type": "function"
    },
    {
      "inputs": [
        {
          "internalType": "address",
          "name": "from",
          "type": "address"
        },
        {
          "internalType": "address",
          "name": "to",
          "type": "address"
        },
        {
          "internalType": "uint256",
          "name": "tokenId",
          "type": "uint256"
        }
      ],
      "name": "transferFrom",
      "outputs": [],
      "stateMutability": "nonpayable",
      "type": "function"
    },
    {
      "inputs": [
        {
          "internalType": "address",
          "name": "newOwner",
          "type": "address"
        }
      ],
      "name": "transferOwnership",
      "outputs": [],
      "stateMutability": "nonpayable",
      "type": "function"
    }
  ],
  "bytecode": "0x60806040523480156200001157600080fd5b506040518060400160405280600d81526020017f43727970746f4368616e676f73000000000000000000000000000000000000008152506040518060400160405280600281526020017f4343000000000000000000000000000000000000000000000000000000000000815250816000908051906020019062000096929190620001a6565b508060019080519060200190620000af929190620001a6565b505050620000d2620000c6620000d860201b60201c565b620000e060201b60201c565b620002bb565b600033905090565b6000600b60009054906101000a900473ffffffffffffffffffffffffffffffffffffffff16905081600b60006101000a81548173ffffffffffffffffffffffffffffffffffffffff021916908373ffffffffffffffffffffffffffffffffffffffff1602179055508173ffffffffffffffffffffffffffffffffffffffff168173ffffffffffffffffffffffffffffffffffffffff167f8be0079c531659141344cd1fd0a4f28419497f9722a3daafe3b4186f6b6457e060405160405180910390a35050565b828054620001b49062000256565b90600052602060002090601f016020900481019282620001d8576000855562000224565b82601f10620001f357805160ff191683800117855562000224565b8280016001018555821562000224579182015b828111156200022357825182559160200191906001019062000206565b5b50905062000233919062000237565b5090565b5b808211156200025257600081600090555060010162000238565b5090565b600060028204905060018216806200026f57607f821691505b602082108114156200028657620002856200028c565b5b50919050565b7f4e487b7100000000000000000000000000000000000000000000000000000000600052602260045260246000fd5b613e5b80620002cb6000396000f3fe608060405234801561001057600080fd5b50600436106101735760003560e01c80636352211e116100de578063a22cb46511610097578063e8732afc11610071578063e8732afc14610472578063e985e9c5146104a2578063f2fde38b146104d2578063fb37e883146104ee57610173565b8063a22cb4651461040a578063b88d4fde14610426578063c87b56dd1461044257610173565b80636352211e1461033457806370a0823114610364578063715018a6146103945780638462151c1461039e5780638da5cb5b146103ce57806395d89b41146103ec57610173565b8063232ee76011610130578063232ee7601461024e57806323b872dd1461027e5780632f745c591461029a57806332cb6b0c146102ca57806342842e0e146102e85780634f6ccce71461030457610173565b806301ffc9a71461017857806306661abd146101a857806306fdde03146101c6578063081812fc146101e4578063095ea7b31461021457806318160ddd14610230575b600080fd5b610192600480360381019061018d9190612ad6565b61051e565b60405161019f91906130ad565b60405180910390f35b6101b0610530565b6040516101bd91906133aa565b60405180910390f35b6101ce610541565b6040516101db91906130c8565b60405180910390f35b6101fe60048036038101906101f99190612b69565b6105d3565b60405161020b9190613024565b60405180910390f35b61022e60048036038101906102299190612a9a565b610658565b005b610238610770565b60405161024591906133aa565b60405180910390f35b6102686004803603810190610263919061292f565b61077d565b60405161027591906130ad565b60405180910390f35b61029860048036038101906102939190612994565b61079d565b005b6102b460048036038101906102af9190612a9a565b6107fd565b6040516102c191906133aa565b60405180910390f35b6102d26108a2565b6040516102df91906133aa565b60405180910390f35b61030260048036038101906102fd9190612994565b6108a8565b005b61031e60048036038101906103199190612b69565b6108c8565b60405161032b91906133aa565b60405180910390f35b61034e60048036038101906103499190612b69565b61095f565b60405161035b9190613024565b60405180910390f35b61037e6004803603810190610379919061292f565b610a11565b60405161038b91906133aa565b60405180910390f35b61039c610ac9565b005b6103b860048036038101906103b3919061292f565b610b51565b6040516103c5919061308b565b60405180910390f35b6103d6610c4b565b6040516103e39190613024565b60405180910390f35b6103f4610c75565b60405161040191906130c8565b60405180910390f35b610424600480360381019061041f9190612a5e565b610d07565b005b610440600480360381019061043b91906129e3565b610d1d565b005b61045c60048036038101906104579190612b69565b610d7f565b60405161046991906130c8565b60405180910390f35b61048c60048036038101906104879190612b28565b610d91565b60405161049991906130ad565b60405180910390f35b6104bc60048036038101906104b79190612958565b610dc7565b6040516104c991906130ad565b60405180910390f35b6104ec60048036038101906104e7919061292f565b610e5b565b005b61050860048036038101906105039190612b28565b610f53565b60405161051591906133aa565b60405180910390f35b60006105298261115e565b9050919050565b600061053c600c6111d8565b905090565b60606000805461055090613639565b80601f016020809104026020016040519081016040528092919081815260200182805461057c90613639565b80156105c95780601f1061059e576101008083540402835291602001916105c9565b820191906000526020600020905b8154815290600101906020018083116105ac57829003601f168201915b5050505050905090565b60006105de826111e6565b61061d576040517f08c379a0000000000000000000000000000000000000000000000000000000008152600401610614906132ca565b60405180910390fd5b6004600083815260200190815260200160002060009054906101000a900473ffffffffffffffffffffffffffffffffffffffff169050919050565b60006106638261095f565b90508073ffffffffffffffffffffffffffffffffffffffff168373ffffffffffffffffffffffffffffffffffffffff1614156106d4576040517f08c379a00000000000000000000000000000000000000000000000000000000081526004016106cb9061332a565b60405180910390fd5b8073ffffffffffffffffffffffffffffffffffffffff166106f3611252565b73ffffffffffffffffffffffffffffffffffffffff16148061072257506107218161071c611252565b610dc7565b5b610761576040517f08c379a0000000000000000000000000000000000000000000000000000000008152600401610758906131ea565b60405180910390fd5b61076b838361125a565b505050565b6000600880549050905090565b600e6020528060005260406000206000915054906101000a900460ff1681565b6107ae6107a8611252565b82611313565b6107ed576040517f08c379a00000000000000000000000000000000000000000000000000000000081526004016107e49061336a565b60405180910390fd5b6107f88383836113f1565b505050565b600061080883610a11565b8210610849576040517f08c379a0000000000000000000000000000000000000000000000000000000008152600401610840906130ea565b60405180910390fd5b600660008473ffffffffffffffffffffffffffffffffffffffff1673ffffffffffffffffffffffffffffffffffffffff168152602001908152602001600020600083815260200190815260200160002054905092915050565b61138881565b6108c383838360405180602001604052806000815250610d1d565b505050565b60006108d2610770565b8210610913576040517f08c379a000000000000000000000000000000000000000000000000000000000815260040161090a9061338a565b60405180910390fd5b6008828154811061094d577f4e487b7100000000000000000000000000000000000000000000000000000000600052603260045260246000fd5b90600052602060002001549050919050565b6000806002600084815260200190815260200160002060009054906101000a900473ffffffffffffffffffffffffffffffffffffffff169050600073ffffffffffffffffffffffffffffffffffffffff168173ffffffffffffffffffffffffffffffffffffffff161415610a08576040517f08c379a00000000000000000000000000000000000000000000000000000000081526004016109ff9061322a565b60405180910390fd5b80915050919050565b60008073ffffffffffffffffffffffffffffffffffffffff168273ffffffffffffffffffffffffffffffffffffffff161415610a82576040517f08c379a0000000000000000000000000000000000000000000000000000000008152600401610a799061320a565b60405180910390fd5b600360008373ffffffffffffffffffffffffffffffffffffffff1673ffffffffffffffffffffffffffffffffffffffff168152602001908152602001600020549050919050565b610ad1611252565b73ffffffffffffffffffffffffffffffffffffffff16610aef610c4b565b73ffffffffffffffffffffffffffffffffffffffff1614610b45576040517f08c379a0000000000000000000000000000000000000000000000000000000008152600401610b3c906132ea565b60405180910390fd5b610b4f6000611658565b565b60606000610b5e83610a11565b905060008167ffffffffffffffff811115610ba2577f4e487b7100000000000000000000000000000000000000000000000000000000600052604160045260246000fd5b604051908082528060200260200182016040528015610bd05781602001602082028036833780820191505090505b50905060005b82811015610c4057610be885826107fd565b828281518110610c21577f4e487b7100000000000000000000000000000000000000000000000000000000600052603260045260246000fd5b6020026020010181815250508080610c389061369c565b915050610bd6565b508092505050919050565b6000600b60009054906101000a900473ffffffffffffffffffffffffffffffffffffffff16905090565b606060018054610c8490613639565b80601f0160208091040260200160405190810160405280929190818152602001828054610cb090613639565b8015610cfd5780601f10610cd257610100808354040283529160200191610cfd565b820191906000526020600020905b815481529060010190602001808311610ce057829003601f168201915b5050505050905090565b610d19610d12611252565b838361171e565b5050565b610d2e610d28611252565b83611313565b610d6d576040517f08c379a0000000000000000000000000000000000000000000000000000000008152600401610d649061336a565b60405180910390fd5b610d798484848461188b565b50505050565b6060610d8a826118e7565b9050919050565b600d818051602081018201805184825260208301602085012081835280955050505050506000915054906101000a900460ff1681565b6000600560008473ffffffffffffffffffffffffffffffffffffffff1673ffffffffffffffffffffffffffffffffffffffff16815260200190815260200160002060008373ffffffffffffffffffffffffffffffffffffffff1673ffffffffffffffffffffffffffffffffffffffff16815260200190815260200160002060009054906101000a900460ff16905092915050565b610e63611252565b73ffffffffffffffffffffffffffffffffffffffff16610e81610c4b565b73ffffffffffffffffffffffffffffffffffffffff1614610ed7576040517f08c379a0000000000000000000000000000000000000000000000000000000008152600401610ece906132ea565b60405180910390fd5b600073ffffffffffffffffffffffffffffffffffffffff168173ffffffffffffffffffffffffffffffffffffffff161415610f47576040517f08c379a0000000000000000000000000000000000000000000000000000000008152600401610f3e9061312a565b60405180910390fd5b610f5081611658565b50565b60008033905060001515600d84604051610f6d9190612fe9565b908152602001604051809103902060009054906101000a900460ff16151514610fcb576040517f08c379a0000000000000000000000000000000000000000000000000000000008152600401610fc29061334a565b60405180910390fd5b610fd3610c4b565b73ffffffffffffffffffffffffffffffffffffffff168173ffffffffffffffffffffffffffffffffffffffff16146110995760001515600e60008373ffffffffffffffffffffffffffffffffffffffff1673ffffffffffffffffffffffffffffffffffffffff16815260200190815260200160002060009054906101000a900460ff16151514611098576040517f08c379a000000000000000000000000000000000000000000000000000000000815260040161108f906132aa565b60405180910390fd5b5b6001600d846040516110ab9190612fe9565b908152602001604051809103902060006101000a81548160ff0219169083151502179055506001600e60008373ffffffffffffffffffffffffffffffffffffffff1673ffffffffffffffffffffffffffffffffffffffff16815260200190815260200160002060006101000a81548160ff021916908315150217905550611132600c611a39565b600061113e600c6111d8565b905061114a8282611a4f565b6111548185611a6d565b8092505050919050565b60007f780e9d63000000000000000000000000000000000000000000000000000000007bffffffffffffffffffffffffffffffffffffffffffffffffffffffff1916827bffffffffffffffffffffffffffffffffffffffffffffffffffffffff191614806111d157506111d082611ae1565b5b9050919050565b600081600001549050919050565b60008073ffffffffffffffffffffffffffffffffffffffff166002600084815260200190815260200160002060009054906101000a900473ffffffffffffffffffffffffffffffffffffffff1673ffffffffffffffffffffffffffffffffffffffff1614159050919050565b600033905090565b816004600083815260200190815260200160002060006101000a81548173ffffffffffffffffffffffffffffffffffffffff021916908373ffffffffffffffffffffffffffffffffffffffff160217905550808273ffffffffffffffffffffffffffffffffffffffff166112cd8361095f565b73ffffffffffffffffffffffffffffffffffffffff167f8c5be1e5ebec7d5bd14f71427d1e84f3dd0314c0f7b2291e5b200ac8c7c3b92560405160405180910390a45050565b600061131e826111e6565b61135d576040517f08c379a0000000000000000000000000000000000000000000000000000000008152600401611354906131ca565b60405180910390fd5b60006113688361095f565b90508073ffffffffffffffffffffffffffffffffffffffff168473ffffffffffffffffffffffffffffffffffffffff1614806113aa57506113a98185610dc7565b5b806113e857508373ffffffffffffffffffffffffffffffffffffffff166113d0846105d3565b73ffffffffffffffffffffffffffffffffffffffff16145b91505092915050565b8273ffffffffffffffffffffffffffffffffffffffff166114118261095f565b73ffffffffffffffffffffffffffffffffffffffff1614611467576040517f08c379a000000000000000000000000000000000000000000000000000000000815260040161145e9061314a565b60405180910390fd5b600073ffffffffffffffffffffffffffffffffffffffff168273ffffffffffffffffffffffffffffffffffffffff1614156114d7576040517f08c379a00000000000000000000000000000000000000000000000000000000081526004016114ce9061318a565b60405180910390fd5b6114e2838383611bc3565b6114ed60008261125a565b6001600360008573ffffffffffffffffffffffffffffffffffffffff1673ffffffffffffffffffffffffffffffffffffffff168152602001908152602001600020600082825461153d919061354f565b925050819055506001600360008473ffffffffffffffffffffffffffffffffffffffff1673ffffffffffffffffffffffffffffffffffffffff168152602001908152602001600020600082825461159491906134c8565b92505081905550816002600083815260200190815260200160002060006101000a81548173ffffffffffffffffffffffffffffffffffffffff021916908373ffffffffffffffffffffffffffffffffffffffff160217905550808273ffffffffffffffffffffffffffffffffffffffff168473ffffffffffffffffffffffffffffffffffffffff167fddf252ad1be2c89b69c2b068fc378daa952ba7f163c4a11628f55a4df523b3ef60405160405180910390a4611653838383611bd3565b505050565b6000600b60009054906101000a900473ffffffffffffffffffffffffffffffffffffffff16905081600b60006101000a81548173ffffffffffffffffffffffffffffffffffffffff021916908373ffffffffffffffffffffffffffffffffffffffff1602179055508173ffffffffffffffffffffffffffffffffffffffff168173ffffffffffffffffffffffffffffffffffffffff167f8be0079c531659141344cd1fd0a4f28419497f9722a3daafe3b4186f6b6457e060405160405180910390a35050565b8173ffffffffffffffffffffffffffffffffffffffff168373ffffffffffffffffffffffffffffffffffffffff16141561178d576040517f08c379a0000000000000000000000000000000000000000000000000000000008152600401611784906131aa565b60405180910390fd5b80600560008573ffffffffffffffffffffffffffffffffffffffff1673ffffffffffffffffffffffffffffffffffffffff16815260200190815260200160002060008473ffffffffffffffffffffffffffffffffffffffff1673ffffffffffffffffffffffffffffffffffffffff16815260200190815260200160002060006101000a81548160ff0219169083151502179055508173ffffffffffffffffffffffffffffffffffffffff168373ffffffffffffffffffffffffffffffffffffffff167f17307eab39ab6107e8899845ad3d59bd9653f200f220920489ca2b5937696c318360405161187e91906130ad565b60405180910390a3505050565b6118968484846113f1565b6118a284848484611bd8565b6118e1576040517f08c379a00000000000000000000000000000000000000000000000000000000081526004016118d89061310a565b60405180910390fd5b50505050565b60606118f2826111e6565b611931576040517f08c379a00000000000000000000000000000000000000000000000000000000081526004016119289061328a565b60405180910390fd5b6000600a6000848152602001908152602001600020805461195190613639565b80601f016020809104026020016040519081016040528092919081815260200182805461197d90613639565b80156119ca5780601f1061199f576101008083540402835291602001916119ca565b820191906000526020600020905b8154815290600101906020018083116119ad57829003601f168201915b5050505050905060006119db611d6f565b90506000815114156119f1578192505050611a34565b600082511115611a26578082604051602001611a0e929190613000565b60405160208183030381529060405292505050611a34565b611a2f84611dac565b925050505b919050565b6001816000016000828254019250508190555050565b611a69828260405180602001604052806000815250611e53565b5050565b611a76826111e6565b611ab5576040517f08c379a0000000000000000000000000000000000000000000000000000000008152600401611aac9061324a565b60405180910390fd5b80600a60008481526020019081526020016000209080519060200190611adc929190612753565b505050565b60007f80ac58cd000000000000000000000000000000000000000000000000000000007bffffffffffffffffffffffffffffffffffffffffffffffffffffffff1916827bffffffffffffffffffffffffffffffffffffffffffffffffffffffff19161480611bac57507f5b5e139f000000000000000000000000000000000000000000000000000000007bffffffffffffffffffffffffffffffffffffffffffffffffffffffff1916827bffffffffffffffffffffffffffffffffffffffffffffffffffffffff1916145b80611bbc5750611bbb82611eae565b5b9050919050565b611bce838383611f18565b505050565b505050565b6000611bf98473ffffffffffffffffffffffffffffffffffffffff1661202c565b15611d62578373ffffffffffffffffffffffffffffffffffffffff1663150b7a02611c22611252565b8786866040518563ffffffff1660e01b8152600401611c44949392919061303f565b602060405180830381600087803b158015611c5e57600080fd5b505af1925050508015611c8f57506040513d601f19601f82011682018060405250810190611c8c9190612aff565b60015b611d12573d8060008114611cbf576040519150601f19603f3d011682016040523d82523d6000602084013e611cc4565b606091505b50600081511415611d0a576040517f08c379a0000000000000000000000000000000000000000000000000000000008152600401611d019061310a565b60405180910390fd5b805181602001fd5b63150b7a0260e01b7bffffffffffffffffffffffffffffffffffffffffffffffffffffffff1916817bffffffffffffffffffffffffffffffffffffffffffffffffffffffff191614915050611d67565b600190505b949350505050565b60606040518060400160405280600c81526020017f697066733a2f2f697066732f0000000000000000000000000000000000000000815250905090565b6060611db7826111e6565b611df6576040517f08c379a0000000000000000000000000000000000000000000000000000000008152600401611ded9061330a565b60405180910390fd5b6000611e00611d6f565b90506000815111611e205760405180602001604052806000815250611e4b565b80611e2a8461204f565b604051602001611e3b929190613000565b6040516020818303038152906040525b915050919050565b611e5d83836121fc565b611e6a6000848484611bd8565b611ea9576040517f08c379a0000000000000000000000000000000000000000000000000000000008152600401611ea09061310a565b60405180910390fd5b505050565b60007f01ffc9a7000000000000000000000000000000000000000000000000000000007bffffffffffffffffffffffffffffffffffffffffffffffffffffffff1916827bffffffffffffffffffffffffffffffffffffffffffffffffffffffff1916149050919050565b611f238383836123d6565b600073ffffffffffffffffffffffffffffffffffffffff168373ffffffffffffffffffffffffffffffffffffffff161415611f6657611f61816123db565b611fa5565b8173ffffffffffffffffffffffffffffffffffffffff168373ffffffffffffffffffffffffffffffffffffffff1614611fa457611fa38382612424565b5b5b600073ffffffffffffffffffffffffffffffffffffffff168273ffffffffffffffffffffffffffffffffffffffff161415611fe857611fe381612591565b612027565b8273ffffffffffffffffffffffffffffffffffffffff168273ffffffffffffffffffffffffffffffffffffffff16146120265761202582826126d4565b5b5b505050565b6000808273ffffffffffffffffffffffffffffffffffffffff163b119050919050565b60606000821415612097576040518060400160405280600181526020017f300000000000000000000000000000000000000000000000000000000000000081525090506121f7565b600082905060005b600082146120c95780806120b29061369c565b915050600a826120c2919061351e565b915061209f565b60008167ffffffffffffffff81111561210b577f4e487b7100000000000000000000000000000000000000000000000000000000600052604160045260246000fd5b6040519080825280601f01601f19166020018201604052801561213d5781602001600182028036833780820191505090505b5090505b600085146121f057600182612156919061354f565b9150600a8561216591906136e5565b603061217191906134c8565b60f81b8183815181106121ad577f4e487b7100000000000000000000000000000000000000000000000000000000600052603260045260246000fd5b60200101907effffffffffffffffffffffffffffffffffffffffffffffffffffffffffffff1916908160001a905350600a856121e9919061351e565b9450612141565b8093505050505b919050565b600073ffffffffffffffffffffffffffffffffffffffff168273ffffffffffffffffffffffffffffffffffffffff16141561226c576040517f08c379a00000000000000000000000000000000000000000000000000000000081526004016122639061326a565b60405180910390fd5b612275816111e6565b156122b5576040517f08c379a00000000000000000000000000000000000000000000000000000000081526004016122ac9061316a565b60405180910390fd5b6122c160008383611bc3565b6001600360008473ffffffffffffffffffffffffffffffffffffffff1673ffffffffffffffffffffffffffffffffffffffff168152602001908152602001600020600082825461231191906134c8565b92505081905550816002600083815260200190815260200160002060006101000a81548173ffffffffffffffffffffffffffffffffffffffff021916908373ffffffffffffffffffffffffffffffffffffffff160217905550808273ffffffffffffffffffffffffffffffffffffffff16600073ffffffffffffffffffffffffffffffffffffffff167fddf252ad1be2c89b69c2b068fc378daa952ba7f163c4a11628f55a4df523b3ef60405160405180910390a46123d260008383611bd3565b5050565b505050565b6008805490506009600083815260200190815260200160002081905550600881908060018154018082558091505060019003906000526020600020016000909190919091505550565b6000600161243184610a11565b61243b919061354f565b9050600060076000848152602001908152602001600020549050818114612520576000600660008673ffffffffffffffffffffffffffffffffffffffff1673ffffffffffffffffffffffffffffffffffffffff168152602001908152602001600020600084815260200190815260200160002054905080600660008773ffffffffffffffffffffffffffffffffffffffff1673ffffffffffffffffffffffffffffffffffffffff168152602001908152602001600020600084815260200190815260200160002081905550816007600083815260200190815260200160002081905550505b6007600084815260200190815260200160002060009055600660008573ffffffffffffffffffffffffffffffffffffffff1673ffffffffffffffffffffffffffffffffffffffff16815260200190815260200160002060008381526020019081526020016000206000905550505050565b600060016008805490506125a5919061354f565b90506000600960008481526020019081526020016000205490506000600883815481106125fb577f4e487b7100000000000000000000000000000000000000000000000000000000600052603260045260246000fd5b906000526020600020015490508060088381548110612643577f4e487b7100000000000000000000000000000000000000000000000000000000600052603260045260246000fd5b9060005260206000200181905550816009600083815260200190815260200160002081905550600960008581526020019081526020016000206000905560088054806126b8577f4e487b7100000000000000000000000000000000000000000000000000000000600052603160045260246000fd5b6001900381819060005260206000200160009055905550505050565b60006126df83610a11565b905081600660008573ffffffffffffffffffffffffffffffffffffffff1673ffffffffffffffffffffffffffffffffffffffff168152602001908152602001600020600083815260200190815260200160002081905550806007600084815260200190815260200160002081905550505050565b82805461275f90613639565b90600052602060002090601f01602090048101928261278157600085556127c8565b82601f1061279a57805160ff19168380011785556127c8565b828001600101855582156127c8579182015b828111156127c75782518255916020019190600101906127ac565b5b5090506127d591906127d9565b5090565b5b808211156127f25760008160009055506001016127da565b5090565b6000612809612804846133ea565b6133c5565b90508281526020810184848401111561282157600080fd5b61282c8482856135f7565b509392505050565b60006128476128428461341b565b6133c5565b90508281526020810184848401111561285f57600080fd5b61286a8482856135f7565b509392505050565b60008135905061288181613dc9565b92915050565b60008135905061289681613de0565b92915050565b6000813590506128ab81613df7565b92915050565b6000815190506128c081613df7565b92915050565b600082601f8301126128d757600080fd5b81356128e78482602086016127f6565b91505092915050565b600082601f83011261290157600080fd5b8135612911848260208601612834565b91505092915050565b60008135905061292981613e0e565b92915050565b60006020828403121561294157600080fd5b600061294f84828501612872565b91505092915050565b6000806040838503121561296b57600080fd5b600061297985828601612872565b925050602061298a85828601612872565b9150509250929050565b6000806000606084860312156129a957600080fd5b60006129b786828701612872565b93505060206129c886828701612872565b92505060406129d98682870161291a565b9150509250925092565b600080600080608085870312156129f957600080fd5b6000612a0787828801612872565b9450506020612a1887828801612872565b9350506040612a298782880161291a565b925050606085013567ffffffffffffffff811115612a4657600080fd5b612a52878288016128c6565b91505092959194509250565b60008060408385031215612a7157600080fd5b6000612a7f85828601612872565b9250506020612a9085828601612887565b9150509250929050565b60008060408385031215612aad57600080fd5b6000612abb85828601612872565b9250506020612acc8582860161291a565b9150509250929050565b600060208284031215612ae857600080fd5b6000612af68482850161289c565b91505092915050565b600060208284031215612b1157600080fd5b6000612b1f848285016128b1565b91505092915050565b600060208284031215612b3a57600080fd5b600082013567ffffffffffffffff811115612b5457600080fd5b612b60848285016128f0565b91505092915050565b600060208284031215612b7b57600080fd5b6000612b898482850161291a565b91505092915050565b6000612b9e8383612fcb565b60208301905092915050565b612bb381613583565b82525050565b6000612bc48261345c565b612bce818561348a565b9350612bd98361344c565b8060005b83811015612c0a578151612bf18882612b92565b9750612bfc8361347d565b925050600181019050612bdd565b5085935050505092915050565b612c2081613595565b82525050565b6000612c3182613467565b612c3b818561349b565b9350612c4b818560208601613606565b612c54816137d2565b840191505092915050565b6000612c6a82613472565b612c7481856134ac565b9350612c84818560208601613606565b612c8d816137d2565b840191505092915050565b6000612ca382613472565b612cad81856134bd565b9350612cbd818560208601613606565b80840191505092915050565b6000612cd6602b836134ac565b9150612ce1826137e3565b604082019050919050565b6000612cf96032836134ac565b9150612d0482613832565b604082019050919050565b6000612d1c6026836134ac565b9150612d2782613881565b604082019050919050565b6000612d3f6025836134ac565b9150612d4a826138d0565b604082019050919050565b6000612d62601c836134ac565b9150612d6d8261391f565b602082019050919050565b6000612d856024836134ac565b9150612d9082613948565b604082019050919050565b6000612da86019836134ac565b9150612db382613997565b602082019050919050565b6000612dcb602c836134ac565b9150612dd6826139c0565b604082019050919050565b6000612dee6038836134ac565b9150612df982613a0f565b604082019050919050565b6000612e11602a836134ac565b9150612e1c82613a5e565b604082019050919050565b6000612e346029836134ac565b9150612e3f82613aad565b604082019050919050565b6000612e57602e836134ac565b9150612e6282613afc565b604082019050919050565b6000612e7a6020836134ac565b9150612e8582613b4b565b602082019050919050565b6000612e9d6031836134ac565b9150612ea882613b74565b604082019050919050565b6000612ec0601d836134ac565b9150612ecb82613bc3565b602082019050919050565b6000612ee3602c836134ac565b9150612eee82613bec565b604082019050919050565b6000612f066020836134ac565b9150612f1182613c3b565b602082019050919050565b6000612f29602f836134ac565b9150612f3482613c64565b604082019050919050565b6000612f4c6021836134ac565b9150612f5782613cb3565b604082019050919050565b6000612f6f601b836134ac565b9150612f7a82613d02565b602082019050919050565b6000612f926031836134ac565b9150612f9d82613d2b565b604082019050919050565b6000612fb5602c836134ac565b9150612fc082613d7a565b604082019050919050565b612fd4816135ed565b82525050565b612fe3816135ed565b82525050565b6000612ff58284612c98565b915081905092915050565b600061300c8285612c98565b91506130188284612c98565b91508190509392505050565b60006020820190506130396000830184612baa565b92915050565b60006080820190506130546000830187612baa565b6130616020830186612baa565b61306e6040830185612fda565b81810360608301526130808184612c26565b905095945050505050565b600060208201905081810360008301526130a58184612bb9565b905092915050565b60006020820190506130c26000830184612c17565b92915050565b600060208201905081810360008301526130e28184612c5f565b905092915050565b6000602082019050818103600083015261310381612cc9565b9050919050565b6000602082019050818103600083015261312381612cec565b9050919050565b6000602082019050818103600083015261314381612d0f565b9050919050565b6000602082019050818103600083015261316381612d32565b9050919050565b6000602082019050818103600083015261318381612d55565b9050919050565b600060208201905081810360008301526131a381612d78565b9050919050565b600060208201905081810360008301526131c381612d9b565b9050919050565b600060208201905081810360008301526131e381612dbe565b9050919050565b6000602082019050818103600083015261320381612de1565b9050919050565b6000602082019050818103600083015261322381612e04565b9050919050565b6000602082019050818103600083015261324381612e27565b9050919050565b6000602082019050818103600083015261326381612e4a565b9050919050565b6000602082019050818103600083015261328381612e6d565b9050919050565b600060208201905081810360008301526132a381612e90565b9050919050565b600060208201905081810360008301526132c381612eb3565b9050919050565b600060208201905081810360008301526132e381612ed6565b9050919050565b6000602082019050818103600083015261330381612ef9565b9050919050565b6000602082019050818103600083015261332381612f1c565b9050919050565b6000602082019050818103600083015261334381612f3f565b9050919050565b6000602082019050818103600083015261336381612f62565b9050919050565b6000602082019050818103600083015261338381612f85565b9050919050565b600060208201905081810360008301526133a381612fa8565b9050919050565b60006020820190506133bf6000830184612fda565b92915050565b60006133cf6133e0565b90506133db828261366b565b919050565b6000604051905090565b600067ffffffffffffffff821115613405576134046137a3565b5b61340e826137d2565b9050602081019050919050565b600067ffffffffffffffff821115613436576134356137a3565b5b61343f826137d2565b9050602081019050919050565b6000819050602082019050919050565b600081519050919050565b600081519050919050565b600081519050919050565b6000602082019050919050565b600082825260208201905092915050565b600082825260208201905092915050565b600082825260208201905092915050565b600081905092915050565b60006134d3826135ed565b91506134de836135ed565b9250827fffffffffffffffffffffffffffffffffffffffffffffffffffffffffffffffff0382111561351357613512613716565b5b828201905092915050565b6000613529826135ed565b9150613534836135ed565b92508261354457613543613745565b5b828204905092915050565b600061355a826135ed565b9150613565836135ed565b92508282101561357857613577613716565b5b828203905092915050565b600061358e826135cd565b9050919050565b60008115159050919050565b60007fffffffff0000000000000000000000000000000000000000000000000000000082169050919050565b600073ffffffffffffffffffffffffffffffffffffffff82169050919050565b6000819050919050565b82818337600083830152505050565b60005b83811015613624578082015181840152602081019050613609565b83811115613633576000848401525b50505050565b6000600282049050600182168061365157607f821691505b6020821081141561366557613664613774565b5b50919050565b613674826137d2565b810181811067ffffffffffffffff82111715613693576136926137a3565b5b80604052505050565b60006136a7826135ed565b91507fffffffffffffffffffffffffffffffffffffffffffffffffffffffffffffffff8214156136da576136d9613716565b5b600182019050919050565b60006136f0826135ed565b91506136fb836135ed565b92508261370b5761370a613745565b5b828206905092915050565b7f4e487b7100000000000000000000000000000000000000000000000000000000600052601160045260246000fd5b7f4e487b7100000000000000000000000000000000000000000000000000000000600052601260045260246000fd5b7f4e487b7100000000000000000000000000000000000000000000000000000000600052602260045260246000fd5b7f4e487b7100000000000000000000000000000000000000000000000000000000600052604160045260246000fd5b6000601f19601f8301169050919050565b7f455243373231456e756d657261626c653a206f776e657220696e646578206f7560008201527f74206f6620626f756e6473000000000000000000000000000000000000000000602082015250565b7f4552433732313a207472616e7366657220746f206e6f6e20455243373231526560008201527f63656976657220696d706c656d656e7465720000000000000000000000000000602082015250565b7f4f776e61626c653a206e6577206f776e657220697320746865207a65726f206160008201527f6464726573730000000000000000000000000000000000000000000000000000602082015250565b7f4552433732313a207472616e736665722066726f6d20696e636f72726563742060008201527f6f776e6572000000000000000000000000000000000000000000000000000000602082015250565b7f4552433732313a20746f6b656e20616c7265616479206d696e74656400000000600082015250565b7f4552433732313a207472616e7366657220746f20746865207a65726f2061646460008201527f7265737300000000000000000000000000000000000000000000000000000000602082015250565b7f4552433732313a20617070726f766520746f2063616c6c657200000000000000600082015250565b7f4552433732313a206f70657261746f7220717565727920666f72206e6f6e657860008201527f697374656e7420746f6b656e0000000000000000000000000000000000000000602082015250565b7f4552433732313a20617070726f76652063616c6c6572206973206e6f74206f7760008201527f6e6572206e6f7220617070726f76656420666f7220616c6c0000000000000000602082015250565b7f4552433732313a2062616c616e636520717565727920666f7220746865207a6560008201527f726f206164647265737300000000000000000000000000000000000000000000602082015250565b7f4552433732313a206f776e657220717565727920666f72206e6f6e657869737460008201527f656e7420746f6b656e0000000000000000000000000000000000000000000000602082015250565b7f45524337323155524953746f726167653a2055524920736574206f66206e6f6e60008201527f6578697374656e7420746f6b656e000000000000000000000000000000000000602082015250565b7f4552433732313a206d696e7420746f20746865207a65726f2061646472657373600082015250565b7f45524337323155524953746f726167653a2055524920717565727920666f722060008201527f6e6f6e6578697374656e7420746f6b656e000000000000000000000000000000602082015250565b7f4d696e7465723a206164647265737320616c7265616479207573656421000000600082015250565b7f4552433732313a20617070726f76656420717565727920666f72206e6f6e657860008201527f697374656e7420746f6b656e0000000000000000000000000000000000000000602082015250565b7f4f776e61626c653a2063616c6c6572206973206e6f7420746865206f776e6572600082015250565b7f4552433732314d657461646174613a2055524920717565727920666f72206e6f60008201527f6e6578697374656e7420746f6b656e0000000000000000000000000000000000602082015250565b7f4552433732313a20617070726f76616c20746f2063757272656e74206f776e6560008201527f7200000000000000000000000000000000000000000000000000000000000000602082015250565b7f4d696e7465723a204e465420616c7265616479206d696e746564210000000000600082015250565b7f4552433732313a207472616e736665722063616c6c6572206973206e6f74206f60008201527f776e6572206e6f7220617070726f766564000000000000000000000000000000602082015250565b7f455243373231456e756d657261626c653a20676c6f62616c20696e646578206f60008201527f7574206f6620626f756e64730000000000000000000000000000000000000000602082015250565b613dd281613583565b8114613ddd57600080fd5b50565b613de981613595565b8114613df457600080fd5b50565b613e00816135a1565b8114613e0b57600080fd5b50565b613e17816135ed565b8114613e2257600080fd5b5056fea2646970667358221220ef6eb6b92fe4f7bec02c6ffc3b4a7ad1bacc220a02291a16f6fa884fee3cc23b64736f6c63430008040033",
  "linkReferences": {},
  "deployedLinkReferences": {}
}